:020000040000FA
:060000003BEF18F01200B6
:020006001200E6
:06000800CEEF01F0120032
:060018001FEF02F01200D0
:02001E000100DF
:0C00200092300000800500003700000056
:04002C001FEF0EF0C4
:10003000F00E8C1695169388938A0501806B816B60
:10004000826B836B010E846F1200D9CFE6FFE1CF84
:10005000D9FF020EE1260501845101E0DDD8200E12
:100060000501B75D03E36D50020B01E0A4D005016B
:100070008051811102E1000E08D080C5E9FF81C5E1
:10008000EAFFEF50800B01E0010E000901E093D080
:1000900005010051370A45E0B60A17E0010A01E000
:1000A00077D00501846B8C50010B146E8C50020BC1
:1000B00001E0010E145C03E18C708C7205D08CA001
:1000C00002D08C8201D08C9263D0810E406F81A8C7
:1000D00003D0010E416F01D0416B050182518311A4
:1000E00002E1000E08D082C5E9FF83C5EAFFEF50A8
:1000F000800B01E0010E000913E1400EE66E400E98
:10010000E66E050EE66E010EE66EE66ED4EC15F0B8
:10011000146E050EE15E1450F3CF82F5F4CF83F533
:1001200037D005018251831102E1000E08D082C54B
:10013000E9FF83C5EAFFEF50800B01E0010E0009E3
:1001400026E19280010EC26E3C0EC06EC08E3DD87C
:10015000F3CFDEFFF4CFDDFF0501370E406FDFCFB9
:1001600041F5010EDBCF42F5400EE66E400EE66E25
:10017000050EE66E010EE66EE66ED4EC15F0146E1A
:10018000050EE15E1450F3CF82F5F4CF83F500D075
:10019000400EE66E000EE66E050EE66EE66A010E95
:1001A000E66ED4EC15F0146E050EE15E1450F3CF3C
:1001B00080F5F4CF81F5020EE15C02E2E16AE552DE
:1001C000E16EE552E7CFD9FF1200D9CFE6FFE1CFCC
:1001D000D9FF020EE1269280010EC26E3C0EC06E67
:1001E000C08EC282C2B2FED7C350DF6E010EC4CF32
:1001F000DBFFDECF14F0DDCF15F014C0F3FF15C028
:10020000F4FF020EE15C03E200D0E16AE552E16E28
:10021000E552E7CFD9FF120005018551861104E1AF
:10022000100E856F270E866F8507000E865B6DA208
:100230000AD08551861106E18C708CA002D08C8288
:1002400001D08C922ED00501B75103E18C908C9295
:1002500028D0B70503E18C808C8223D0020EB75DD5
:1002600003E18C808C921DD0040EB75D03E18C906D
:100270008C8217D0100EB75D07E1050185518611FC
:1002800002E18C708C920DD0200EB75D0AE1050161
:100290008551861106E18C708CA002D08C9201D021
:1002A0008C821200120012001200120069EF16F088
:1002B00012001E0EE66E010EE66E2EEC15F0E552F3
:1002C000E552400EE66E000EE66E050EE66EE66A3C
:1002D000010EE66ED4EC15F0146E050EE15E1450BE
:1002E000F3CF80F5F4CF81F512006D840501080E7F
:1002F000E96F070EEA6FE907000EEA5BE951EA11C0
:10030000FAE16D941200D9CFE6FFE1CFD9FFFD0EDF
:10031000DBCF08F0FE0EDBCF09F0010E081801E17B
:10032000095033E0E868081802E1E86809182BE092
:10033000030E081801E1095024E0040E081801E139
:1003400009501DE0020E081801E1095016E0170ED1
:10035000081801E109500FE0160E081801E10950D4
:1003600008E0150E081801E1095001E010D0A1DFE6
:100370000FD09EDF0DD09ADF0BD096DF09D092DF31
:1003800007D091DF05D091DF03D0000001D000D06D
:10039000010E00D0E552E7CFD9FF1200DACFE4FF1B
:1003A000E2CFDAFFE9CFE4FFEACFE4FFF6CFE4FFE4
:1003B000F7CFE4FFF5CFE4FFF3CFE4FFF4CFE4FFA2
:1003C000FACFE4FF00EE00F0140EE80403E3EECFF2
:1003D000E4FFFBD700EE14F00F0EE80403E3EECFCA
:1003E000E4FFFBD7E652F2A402D03ADBF2949EA0DF
:1003F00002D038D89E90E55200EE22F00F0EE804AD
:1004000003E3E5CFEDFFFBD700EE13F0140EE80495
:1004100003E3E5CFEDFFFBD7E5CFFAFFE5CFF4FF30
:10042000E5CFF3FFE5CFF5FFE5CFF7FFE5CFF6FF2B
:10043000E5CFEAFFE5CFE9FFE5CFDAFF1100D8CF3E
:10044000E4FFE0CFE4FFE46EDACFE4FFE2CFDAFFCF
:10045000E652E552E5CFDAFFE550E5CFE0FFE5CF24
:10046000D8FF1000D9CFE6FFE1CFD9FF020EE12679
:100470000501B251020A01E1A1D0030A3BE0010AE1
:1004800001E0D2D0B05101E08A80B15101E08A820E
:10049000A8C5ACF5A9C5ADF5AAC5AEF5ABC5AFF518
:1004A000176A186A010E196EA951AB19E8AE02D08D
:1004B000AB3504D0AA51A85DAB51A95905E2A8C536
:1004C0001AF0A9C51BF004D0AAC51AF0ABC51BF0E1
:1004D0001C6A1BBE1C681A50175C146E1B501858FF
:1004E000156E1C501958166E14C0DEFF15C0DDFFC6
:1004F000B22B9AD0AD51AF19E8AE02D0AF3504D0CF
:10050000AE51AC5DAF51AD592CE2B05101E08A90D3
:100510001A6A1B6A010E1C6EAEC51DF0AFC51EF037
:100520001F6A1EBE1F681D501A5C176E1E501B5896
:10053000186E1F501C58196EACC520F0ADC521F0C7
:10054000226A21BE226817502024146E18502120E0
:10055000156E19502220166E14C0DEFF15C0DDFF87
:100560002BD0B15101E08A921A6A1B6A010E1C6EEF
:10057000ACC51DF0ADC51EF01F6A1EBE1F681D5024
:100580001A5C176E1E501B58186E1F501C58196E9F
:10059000AEC520F0AFC521F0226A21BE22681750F7
:1005A0002024146E18502120156E19502220166E2A
:1005B00014C0DEFF15C0DDFFB22B36D0AF51AD1930
:1005C000E8AE02D0AD3504D0AC51AE5DAD51AF59FF
:1005D00015E2B05101E08A90ACC514F0ADC515F03C
:1005E000166A15BE1668480E1426F40E1522000E63
:1005F000162214C0DEFF15C0DDFF14D0B15101E09A
:100600008A92AEC514F0AFC515F0166A15BE16680D
:10061000480E1426F40E1522000E162214C0DEFF1A
:1006200015C0DDFFB26B00D0DECF14F0DDCF15F0CA
:1006300015C014F0156A1450CF6EDECF14F0DDCF64
:1006400015F01450CE6E020EE15C02E2E16AE55252
:10065000E16EE552E7CFD9FF1200D9CFE6FFE1CF37
:10066000D9FFE652DF6AFD0EDBCFE9FFFE0EDBCFDE
:10067000EAFF8F0EE926050EEA22EF0401E033D1EE
:10068000FD0EDBCFE9FFFE0EDBCFEAFFD890E936A7
:10069000EA36960EE926050EEA22EE50ED1001E04C
:1006A00022D1FD0EDBCFE9FFFE0EDBCFEAFFD890B3
:1006B000E936EA369A0EE926050EEA22EE50ED10EA
:1006C0002FE0FD0EDBCFE9FFFE0EDBCFEAFFD89077
:1006D000E936EA36A20EE926050EEA22EE50ED10C2
:1006E00001E001D1FD0EDBCFE9FFFE0EDBCFEAFF1B
:1006F000D890E936EA369E0EE926050EEA22EECFBC
:1007000014F0EFCF15F005011550A719E8AE02D08F
:10071000A73504D0A651145CA751155801E3E3D0C6
:10072000FD0EDBCFE9FFFE0EDBCFEAFFD890E93606
:10073000EA369E0EE926050EEA22EECF14F0EFCF40
:1007400015F0010E1426000E1522FD0EDBCFE9FF79
:10075000FE0EDBCFEAFFD890E936EA369E0EE92698
:10076000050EEA2214C0EEFF15C0EDFFFD0EDBCF33
:10077000E9FFFE0EDBCFEAFFD890E936EA36A20E9B
:10078000E926050EEA22EE6AED6AFD0EDBCF08F0DF
:10079000FE0EDBCF09F0010E081801E1095016E04A
:1007A000085001E1095005E0B40EF36EE20EF46E5C
:1007B00052D1010E146E8A50010B145CE8B08A808D
:1007C000E8A08A908A50010BDF6E11D0010E146EE2
:1007D0008A50020B01E0010E145CE8B08A82E8A0A6
:1007E0008A928A50020B01E0010EDF6E00D0DF50CA
:1007F00050E0FD0EDBCFE9FFFE0EDBCFEAFFD89025
:10080000E936EA36870EE926050EEA22EECF14F025
:10081000EFCF15F0FD0EDBCFE9FFFE0EDBCFEAFFD9
:10082000D890E936EA368B0EE926050EEA2214C086
:10083000EEFF15C0EDFF176A186A010E196EFD0E66
:10084000DBCFE9FFFE0EDBCFEAFFD890E936EA36D0
:10085000870EE926050EEA22EECF1AF0EFCF1BF045
:10086000030E1B02F3CF1BF01A02F3CF1AF0F45061
:100870001B261C6A1A50175C146E1B501858156EF4
:100880001C501958166E14C0F3FF15C0F4FFE3D0C6
:10089000E2D005019129070B916FFD0EDBCFE9FF37
:1008A000FE0EDBCFEAFFD890E936EA368B0EE9265A
:1008B000050EEA22EECF14F0EFCF15F0030E15026D
:1008C000F3CF15F01402F3CF14F0F4501526166A86
:1008D000B40E1426E20E1522000E162214C0F3FFE9
:1008E00015C0F4FFB8D0FD0EDBCFE9FFFE0EDBCF65
:1008F000EAFFD890E936EA36960EE926050EEA2296
:10090000EECF14F0EFCF15F0153404E214500008C8
:10091000000E155425E2FD0EDBCFE9FFFE0EDBCF06
:10092000EAFFD890E936EA36960EE926050EEA2265
:10093000EECF14F0EFCF15F01406000E155AFD0E91
:10094000DBCFE9FFFE0EDBCFEAFFD890E936EA36CF
:10095000960EE926050EEA2214C0EEFF15C0EDFF43
:10096000FD0EDBCFE9FFFE0EDBCFEAFFD890E936C4
:10097000EA36A20EE926050EEA22EECF14F0EFCFFA
:1009800015F0FD0EDBCFE9FFFE0EDBCFEAFFD890BE
:10099000E936EA369A0EE926050EEA22EECF16F07F
:1009A000EFCF17F015501718E8AE02D0173404D067
:1009B0001650145C1750155836E2FD0EDBCFE9FFD8
:1009C000FE0EDBCFEAFFD890E936EA36A20EE92622
:1009D000050EEA22EECF14F0EFCF15F0010E14262B
:1009E000000E1522FD0EDBCFE9FFFE0EDBCFEAFF86
:1009F000D890E936EA36A20EE926050EEA2214C09E
:100A0000EEFF15C0EDFFFD0EDBCFE9FFFE0EDBCFE5
:100A1000EAFFD890E936EA369E0EE926050EEA226C
:100A2000EE6AED6A0FD0FD0EDBCFE9FFFE0EDBCFE5
:100A3000EAFFD890E936EA36A20EE926050EEA2248
:100A4000EE6AED6A05019129070B916FB40EF36E02
:100A5000E20EF46E00D0E552E552E7CFD9FF120066
:100A6000D9CFE6FFE1CFD9FF020EE1260501915172
:100A7000020A25E0010A23E0070A21E0010A1FE03B
:100A8000030A1DE0010A1BE0060A0EE0010A01E06C
:100A90001ED0000EE66EE66AE0DDE552E552F3CFC9
:100AA000DEFFF4CFDDFF13D0010EE66EE66AD5DD82
:100AB000E552E552F3CFDEFFF4CFDDFF08D0B40EF0
:100AC000DE6EE20EDD6E9129070B916F00D0DECF56
:100AD00014F0DDCF15F015C014F0156A1450D76E60
:100AE000DECF14F0DDCF15F01450D66E020EE15CAF
:100AF00002E2E16AE552E16EE552E7CFD9FF12006A
:100B0000D9CFE6FFE1CFD9FF020EE126DE6ADD6A2A
:100B1000DECF14F0DDCF15F0153404E214500108D7
:100B2000000E15540AE3FA0EE66EFEEC17F0E552DD
:100B3000DF2A010E01E3DB2AEBD7020EE15C02E2C1
:100B4000E16AE552E16EE552E7CFD9FF1200D9CF55
:100B5000E6FFE1CFD9FF020EE126FD0EDBCF14F058
:100B6000FE0EDBCF15F0D89014361536D89014361B
:100B70001536010E1410C26E3C0EC06EC08EC282BD
:100B8000C2B2FED7C350DF6E010EC4CFDBFFDECF93
:100B900014F0DDCF15F014C0F3FF15C0F4FF020E02
:100BA000E15C03E200D0E16AE552E16EE552E7CF95
:100BB000D9FF120016EC00F009D875EC0EF0050113
:100BC000B32B000EB4230ED8F8D71200926A936AA2
:100BD000956A010ED56E200ECD6EF28EF28C9D8040
:100BE000CD80120043EF06F0D9CFE6FFE1CFD9FF69
:100BF000020EE1260501B551B35D146EB451B65530
:100C0000156ED890155004E6640E145C000E15584D
:100C100001E22FD0B3C5B5F5B4C5B6F580CF40F528
:100C200083CF41F581CF42F509EC0AF005018251ED
:100C3000831102E1000E08D082C5E9FF83C5EAFFF7
:100C4000EF50800B01E0010E000913E1400EE66E4B
:100C5000400EE66E050EE66E010EE66EE66ED4EC14
:100C600015F0146E050EE15E1450F3CF82F5F4CF4B
:100C700083F5020EE15C02E2E16AE552E16EE552C3
:100C8000E7CFD9FF1200200E0501B75D03E36D50D9
:100C9000020B01E043D005018051811102E1000EF9
:100CA00008D080C5E9FF81C5EAFFEF50800B01E065
:100CB000010E000932E105010051050A18E0010AA0
:100CC00013E0070A0EE0010A09E0030A05E0010A41
:100CD00001E010D0E1D90ED022D80CD003EC0BF0FB
:100CE00009D063EC0BF006D013EC0DF003D07DECD3
:100CF0000DF000D0400EE66E000EE66E050EE66EBC
:100D0000E66A010EE66ED4EC15F0146E050EE15E97
:100D10001450F3CF80F5F4CF81F566DF1200D9CF00
:100D2000E6FFE1CFD9FF040EE12605010151DE6E99
:100D3000DD6A0251E66ED950020FE96EDACFEAFFA2
:100D4000E552E750EE6EED6A000EDFCF08F0010EBF
:100D5000DBCF09F0280E081801E1095001E18BD121
:100D6000270E081801E1095001E17ED1260E08186E
:100D700001E1095001E171D1250E081801E1095086
:100D800001E164D1240E081801E1095001E157D1B5
:100D9000230E081801E1095001E14AD1220E08187A
:100DA00001E1095001E13DD1210E081801E109508E
:100DB00001E130D11E0E081801E1095001E123D1F3
:100DC0001D0E081801E1095001E116D11C0E08188A
:100DD00001E1095001E109D11B0E081801E1095098
:100DE00001E1FCD01A0E081801E1095001E1EFD031
:100DF000190E081801E1095001E1E2D0180E081897
:100E000001E1095001E1DBD0170E081801E109509A
:100E100001E1D4D0160E081801E1095001E1C7D054
:100E2000150E081801E1095001E1BAD0140E081896
:100E300001E1095001E1ADD0130E081801E109509C
:100E400001E1A0D0110E081801E1095001E193D091
:100E5000100E081801E1095001E186D00F0E0818A4
:100E600001E1095001E179D00E0E081801E10950A5
:100E70006DE00A0E081801E1095061E0090E08183A
:100E800001E1095055E0080E081801E1095049E058
:100E9000070E081801E109503DE0060E081801E1AF
:100EA000095031E0050E081801E1095025E0040E53
:100EB000081801E1095019E0030E081801E1095072
:100EC0000DE0020E081801E1095001E0DBD0020E2E
:100ED000DB50E8B08980E8A08990D4D0020EDB50C6
:100EE000E8B08982E8A08992CDD0020EDB50E8B04C
:100EF0008984E8A08994C6D0020EDB50E8B08986C8
:100F0000E8A08996BFD0020EDB50E8B08988E8A03F
:100F10008998B8D0020EDB50E8B0898AE8A0899A97
:100F2000B1D0020EDB50E8B08D80E8A08D90AAD041
:100F3000020EDB50E8B08D82E8A08D92A3D0020EA5
:100F4000DB50E8B08D84E8A08D949CD0020EDB507D
:100F5000E8B0898CE8A0899C95D0020EDB50E8B0FF
:100F60008B80E8A08B908ED0020EDB50E8B08B8295
:100F7000E8A08B9287D0020EDB50E8B08B84E8A00B
:100F80008B9480D0020EDB50E8B08C80E8A08C906F
:100F900079D0020EDB50E8B08C82E8A08C9272D03F
:100FA000020EDB50E8B08C84E8A08C946BD0020E6B
:100FB000DB50E8B08C86E8A08C9664D063D062D019
:100FC000020EDB50E8B08B8CE8A08B9C5BD0020E4D
:100FD000DB50E8B08B8EE8A08B9E54D0020EDB5025
:100FE000E8B08C88E8A08C984DD0020EDB50E8B0B9
:100FF0008C8AE8A08C9A46D0020EDB50E8B08C8C2C
:10100000E8A08C9C3FD0020EDB50E8B08C8EE8A0AC
:101010008C9E38D0020EDB50E8B08A80E8A08A901F
:1010200031D0020EDB50E8B08A82E8A08A922AD042
:10103000020EDB50E8B08A84E8A08A9423D0020E26
:10104000DB50E8B08A86E8A08A961CD0020EDB50FE
:10105000E8B08A88E8A08A9815D0020EDB50E8B084
:101060008A8AE8A08A9A0ED0020EDB50E8B08A8CF9
:10107000E8A08A9C07D0020EDB50E8B08A8EE8A078
:101080008A9E00D0040EE15C02E2E16AE552E16E64
:10109000E552E7CFD9FF1200D9CFE6FFE1CFD9FF64
:1010A000040EE12605010151DE6EDD6A0251E66E95
:1010B000D950020FE96EDACFEAFFE552E750EE6E43
:1010C000ED6A000EDFCF08F0010EDBCF09F0280E2D
:1010D000081801E1095001E18BD1270E081801E140
:1010E000095001E17ED1260E081801E1095001E105
:1010F00071D1250E081801E1095001E164D1240ED7
:10110000081801E1095001E157D1230E081801E147
:10111000095001E14AD1220E081801E1095001E10C
:101120003DD1210E081801E1095001E130D11E0E18
:10113000081801E1095001E123D11D0E081801E151
:10114000095001E116D11C0E081801E1095001E116
:1011500009D11B0E081801E1095001E1FCD01A0E5B
:10116000081801E1095001E1EFD0190E081801E15A
:10117000095001E1E2D0180E081801E1095001E11F
:10118000DBD0170E081801E1095001E1D4D0160E8A
:10119000081801E1095001E1C7D0150E081801E156
:1011A000095001E1BAD0140E081801E1095001E11B
:1011B000ADD0130E081801E1095001E1A0D0110EC5
:1011C000081801E1095001E193D0100E081801E15F
:1011D000095001E186D00F0E081801E1095001E124
:1011E00079D00E0E081801E109506DE00A0E0818BA
:1011F00001E1095061E0090E081801E1095055E0CC
:10120000080E081801E1095049E0070E081801E12D
:1012100009503DE0060E081801E1095031E0050EC5
:10122000081801E1095025E0040E081801E10950F1
:1012300019E0030E081801E109500DE0020E08182C
:1012400001E1095001E0DBD0020EDB50E8B09280F2
:10125000E8A09290D4D0020EDB50E8B09282E8A0D1
:101260009292CDD0020EDB50E8B09284E8A0929426
:10127000C6D0020EDB50E8B09286E8A09296BFD0AE
:10128000020EDB50E8B09288E8A09298B8D0020E27
:10129000DB50E8B0928AE8A0929AB1D0020EDB50FF
:1012A000E8B09680E8A09690AAD0020EDB50E8B095
:1012B0009682E8A09692A3D0020EDB50E8B0968406
:1012C000E8A096949CD0020EDB50E8B0928CE8A087
:1012D000929C95D0020EDB50E8B09480E8A09490E8
:1012E0008ED0020EDB50E8B09482E8A0949287D0B2
:1012F000020EDB50E8B09484E8A0949480D0020EF3
:10130000DB50E8B09580E8A0959079D0020EDB50D4
:10131000E8B09582E8A0959272D0020EDB50E8B05A
:101320009584E8A095946BD0020EDB50E8B09586CA
:10133000E8A0959664D063D062D0020EDB50E8B08E
:10134000948CE8A0949C5BD0020EDB50E8B0948EA5
:10135000E8A0949E54D0020EDB50E8B09588E8A037
:1013600095984DD0020EDB50E8B0958AE8A0959A8A
:1013700046D0020EDB50E8B0958CE8A0959C3FD09B
:10138000020EDB50E8B0958EE8A0959E38D0020E94
:10139000DB50E8B09380E8A0939031D0020EDB5090
:1013A000E8B09382E8A093922AD0020EDB50E8B016
:1013B0009384E8A0939423D0020EDB50E8B0938688
:1013C000E8A093961CD0020EDB50E8B09388E8A00A
:1013D000939815D0020EDB50E8B0938AE8A0939A58
:1013E0000ED0020EDB50E8B0938CE8A0939C07D09F
:1013F000020EDB50E8B0938EE8A0939E00D0040E5E
:10140000E15C02E2E16AE552E16EE552E7CFD9FF25
:101410001200D9CFE6FFE1CFD9FF020EE12692A05C
:1014200010D0000EE66EE66AA7EC05F0E552E55234
:10143000F3CFDEFFF4CFDDFFDFCF43F5010EDBCFCF
:1014400044F592A210D0010EE66EE66AA7EC05F014
:10145000E552E552F3CFDEFFF4CFDDFFDFCF45F5F8
:10146000010EDBCF46F592A410D0020EE66EE66ABE
:10147000A7EC05F0E552E552F3CFDEFFF4CFDDFF38
:10148000DFCF47F5010EDBCF48F592A610D0030E53
:10149000E66EE66AA7EC05F0E552E552F3CFDEFF13
:1014A000F4CFDDFFDFCF49F5010EDBCF4AF592AA7D
:1014B00010D0040EE66EE66AA7EC05F0E552E552A0
:1014C000F3CFDEFFF4CFDDFFDFCF4BF5010EDBCF37
:1014D0004CF596A010D0050EE66EE66AA7EC05F076
:1014E000E552E552F3CFDEFFF4CFDDFFDFCF4DF560
:1014F000010EDBCF4EF596A210D0060EE66EE66A20
:10150000A7EC05F0E552E552F3CFDEFFF4CFDDFFA7
:10151000DFCF4FF5010EDBCF50F596A410D0070EAC
:10152000E66EE66AA7EC05F0E552E552F3CFDEFF82
:10153000F4CFDDFFDFCF51F5010EDBCF52F593A4E1
:1015400010D0080EE66EE66AA7EC05F0E552E5520B
:10155000F3CFDEFFF4CFDDFFDFCF53F5010EDBCF9E
:1015600054F593A610D0090EE66EE66AA7EC05F0D6
:10157000E552E552F3CFDEFFF4CFDDFFDFCF55F5C7
:10158000010EDBCF56F593A210D00A0EE66EE66A86
:10159000A7EC05F0E552E552F3CFDEFFF4CFDDFF17
:1015A000DFCF57F5010EDBCF58F593A810D00B0E07
:1015B000E66EE66AA7EC05F0E552E552F3CFDEFFF2
:1015C000F4CFDDFFDFCF59F5010EDBCF5AF593A045
:1015D00010D00C0EE66EE66AA7EC05F0E552E55277
:1015E000F3CFDEFFF4CFDDFFDFCF5BF5010EDBCF06
:1015F0005CF5020EE15C02E2E16AE552E16EE55261
:10160000E7CFD9FF1200D9CFE6FFE1CFD9FF080E0F
:10161000E12605010151DE6EDD6A0251E66ED95008
:10162000020FE96EDACFEAFFE552E750EE6EED6A9F
:101630000351E66ED950040FE96EDACFEAFFE552A6
:10164000E750EE6EED6A040EDBCF16F0050EDBCF31
:1016500017F016C017F0166A020EDB501610146E43
:10166000030EDB501710156E060E14C0DBFF070EBD
:1016700015C0DBFF000EDFCF08F0010EDBCF09F055
:10168000220E081801E109500DE0210E081801E1B1
:10169000095001E00ED0060EDBCF87F5070EDBCF39
:1016A00088F507D0060EDBCF89F5070EDBCF8AF56C
:1016B00000D0080EE15C02E2E16AE552E16EE5521B
:1016C000E7CFD9FF1200D9CFE6FFE1CFD9FF040E53
:1016D000E12605010151DE6EDD6A0251E66ED95048
:1016E000020FE96EDACFEAFFE552E750EE6EED6ADF
:1016F000000EDFCF08F0010EDBCF09F0220E081834
:1017000001E109500AE0210E081801E1095001E049
:1017100008D0020EDBCF8FF504D0020EDBCF90F5A0
:1017200000D0040EE15C02E2E16AE552E16EE552AE
:10173000E7CFD9FF1200D9CFE6FFE1CFD9FFFD0EE9
:10174000DBCFE9FFFE0EDBCFEAFFD890E936EA36C1
:10175000960EE926050EEA22EE50ED1001E05FD16B
:10176000D950FB0FE96EFF0EDA20EA6EEE50ED1055
:1017700020E1FD0EDBCFE9FFFE0EDBCFEAFFD890C4
:10178000E936EA36920EE926050EEA22EE6AED6A9D
:10179000FD0EDBCFE9FFFE0EDBCFEAFFD890E93686
:1017A000EA36960EE926050EEA220F0EEE6EED6A77
:1017B000B2D0FB0EDBCF14F0FC0EDBCF15F01534EE
:1017C00004E214500008000E155415E2FD0EDBCFA4
:1017D000E9FFFE0EDBCFEAFFD890E936EA36920E3B
:1017E000E926050EEA22EECF16F0EFCF17F0000142
:1017F000800E171422E1FB0EDBCF18F0FC0EDBCFBE
:1018000019F00001800E191428E0FD0EDBCFE9FF6E
:10181000FE0EDBCFEAFFD890E936EA36920EE926D3
:10182000050EEA22EECF1AF0EFCF1BF01B3404E2D4
:101830001A500008000E1B5410E2FD0EDBCFE9FF2A
:10184000FE0EDBCFEAFFD890E936EA36960EE9269F
:10185000050EEA220F0EEE6EED6AFB0EDBCF18F0DE
:10186000FC0EDBCF19F0193404E218500008000E0A
:10187000195402E2010E01D0FF0E166E176A16BE51
:101880001768F90EDBCF08F0FA0EDBCF09F016C0AF
:101890000DF017C00EF068EC17F006C014F007C08A
:1018A00015F0FD0EDBCFE9FFFE0EDBCFEAFFD8908F
:1018B000E936EA36920EE926050EEA2214C0EEFF5A
:1018C00015C0EDFFF90EDBCF14F0FA0EDBCF15F0EB
:1018D000FF0ED8801456000E1556140E0D6E0E6AAB
:1018E00014C008F015C009F042EC17F008C014F05D
:1018F00009C015F0FD0EDBCFE9FFFE0EDBCFEAFFDE
:10190000D890E936EA369A0EE926050EEA2214C086
:10191000EEFF15C0EDFFFD0EDBCFE9FFFE0EDBCFC6
:10192000EAFFD890E936EA36920EE926050EEA2259
:10193000EE50ED100CE1FD0EDBCFE9FFFE0EDBCF2C
:10194000EAFF8F0EE926050EEA22EF6A68D0FD0E47
:10195000DBCFE9FFFE0EDBCFEAFFD890E936EA36AF
:10196000920EE926050EEA22EECF14F0EFCF15F025
:101970000001800E15141EE0FD0EDBCFE9FFFE0E08
:10198000DBCFEAFFD890E936EA36870EE926050E66
:10199000EA22F40EEE6E010EED6EFD0EDBCFE9FFD6
:1019A000FE0EDBCFEAFF8F0EE926050EEA22010EBE
:1019B000EF6E35D0FD0EDBCFE9FFFE0EDBCFEAFF89
:1019C000D890E936EA36920EE926050EEA22EECFE5
:1019D00014F0EFCF15F0153404E214500008000E97
:1019E00015541DE2FD0EDBCFE9FFFE0EDBCFEAFF53
:1019F000D890E936EA36870EE926050EEA22C40EAB
:101A0000EE6E090EED6EFD0EDBCFE9FFFE0EDBCFB5
:101A1000EAFF8F0EE926050EEA22010EEF6EE5526F
:101A2000E7CFD9FF1200D9CFE6FFE1CFD9FF060EED
:101A3000E12605010151DE6EDD6A0251E66ED950E4
:101A4000020FE96EDACFEAFFE552E750EE6EED6A7B
:101A50000351E66ED950040FE96EDACFEAFFE55282
:101A6000E750EE6EED6A020EDB06030E01E2DB06C6
:101A7000000EDFCF08F0010EDBCF09F0220E0818B0
:101A800001E109501BE0210E081801E1095001E0B5
:101A90002AD0040EDBCFE6FF050EDBCFE6FF020EF9
:101AA000DBCFE6FF030EDBCFE6FF000EE66EE66A55
:101AB00042DE146E060EE15E145015D0040EDBCF2C
:101AC000E6FF050EDBCFE6FF020EDBCFE6FF030EDF
:101AD000DBCFE6FF010EE66EE66A2DDE146E060E23
:101AE000E15E145000D0060EE15C02E2E16AE552CC
:101AF000E16EE552E7CFD9FF1200D9CFE6FFE1CF83
:101B0000D9FF080EE12605010151DE6EDD6A0251A2
:101B1000E66ED950020FE96EDACFEAFFE552E750E0
:101B2000EE6EED6A0351E66ED950040FE96EDACF1E
:101B3000EAFFE552E750EE6EED6A040EDBCF16F0D9
:101B4000050EDBCF17F016C017F0166A020EDB5039
:101B50001610146E030EDB501710156E060E14C00F
:101B6000DBFF070E15C0DBFF000EDFCF08F0010E14
:101B7000DBCF09F0220E081801E109502EE0210EFA
:101B8000081801E1095001E050D0060EDBCF14F037
:101B9000070EDBCF15F0050E145C000E155804E29D
:101BA0000501B06B8A9012D0D950060FE96EDACFDA
:101BB000EAFFB30ED880EE540B0EED5404E205019B
:101BC000B06B8A8003D00501010EB06F060EDBCF2B
:101BD000A8F5070EDBCFA9F528D0060EDBCF14F051
:101BE000070EDBCF15F0050E145C000E155804E24D
:101BF0000501B16B8A9212D0D950060FE96EDACF87
:101C0000EAFFB30ED880EE540B0EED5404E205014A
:101C1000B16B8A8203D00501010EB16F060EDBCFD6
:101C2000AAF5070EDBCFABF500D0080EE15C02E2AF
:0E1C3000E16AE552E16EE552E7CFD9FF1200FE
:021C3E00D9CFFC
:101C4000E6FFE1CFD9FFE6526A6A686A9F0E6B6EC3
:101C5000FB0E696E6D8C6D9C6E6A000EE66EE66A18
:101C6000E66A710EE66E0F0EE66EE4EC17F0146E87
:101C7000050EE15E1450DF6ADF50146E156A080E1F
:101C8000145C000E155810E2DF50040DF3CFE9FF8D
:101C9000F4CFEAFF000EE926040EEA22EE6AEE6AAD
:101CA000EE6AEE6ADF2AE8D7160E706E68A60CD0D0
:101CB000030EE66E680EE66E0F0EE66E4DEC16F045
:101CC000E552E552E552F2D70501CA6BCF6BD06BF6
:101CD000D16B6D98080EC26F040EC36FB86BB76BF3
:101CE000E552E552E7CFD9FF1200D9CFE6FFE1CFA9
:101CF000D9FFE652A19A0501B75111E105D06D6AED
:101D0000696A0501B76BC9D06D6A696A6DB602D0A0
:101D10006D86FCD70501010EB76F160E6F6EB70505
:101D200008E16DBA06D0686A696A69806988020E3E
:101D3000B76F6850040B0FE06950040B0CE0020E03
:101D4000E66E680EE66E0F0EE66E4DEC16F0E5528E
:101D5000E552E552E6D86DB2A0D06850010B1BE009
:101D60006950010B18E06BDF0501040EB76F040129
:101D7000200E026F040E036F080E016F006B8C0EB5
:101D80000013E66A680EE66E0F0EE66E4DEC16F076
:101D9000E552E552E5526850100B0FE06950100B08
:101DA0000CE0A3D8040EE66E680EE66E0F0EE66E2B
:101DB0004DEC16F0E552E552E5526850400B1DE03F
:101DC0006950400B1AE0010EE66EE66A000EE66E00
:101DD000E66A020EE66EE66A83EC01F0146E060E09
:101DE000E15E1450060EE66E680EE66E0F0EE66EAD
:101DF0004DEC16F0E552E552E5526850200B04E038
:101E00006950200B01E04ED86850020B12E0695077
:101E1000020B0FE0010EE66EE66A000EE66EE66A61
:101E2000E668E66883EC01F0146E060EE15E14507D
:101E30006A6A040E0501B75D01E22FD069A62DD0B4
:101E4000DF6A040EDF5C29E268A624D06CCFD7F5E8
:101E5000030EE66E680EE66E0F0EE66E4DEC16F0A3
:101E6000E552E552E552780E0501D71502E178D822
:101E700010D0000EE66EE66AD70EE66E050EE66E30
:101E8000010EE66EE66A83EC01F0146E060EE15E6A
:101E9000145001D002D0DF2AD4D7E552E552E7CF63
:101EA000D9FF120070A015D0BAC5E9FFBBC5EAFF83
:101EB000EF5080080DE1C2C5E9FFC3C5EAFFEF504E
:101EC000840806E1BAC5E9FFBBC5EAFF8C0EEF6ED8
:101ED0007090050EE66E680EE66E0F0EE66E4DEC27
:101EE00016F0E552E552E55212006984040EE66EE2
:101EF000680EE66E0F0EE66E4DEC16F0E552E552FA
:101F0000E5526D82000EE66EE66AE66EE66A040E43
:101F1000E66EE66A83EC01F0146E060EE15E145084
:101F200012006D92000EE66EE66AE66EE66A030E39
:101F3000E66EE66A83EC01F0146E060EE15E145064
:101F4000699468A40CD0020EE66E680EE66E0F0E61
:101F5000E66E4DEC16F0E552E552E552F2D712006E
:101F6000FD0E0501D71520E17E0ED715E8407F0B49
:101F7000040DF3CFBAF5F4CFBBF5000EBA27040E6B
:101F8000BB23BAC5BCF5BBC5BDF5BC75BAC5E9FF79
:101F9000BBC5EAFFEF503C0BE842E8420D0802E106
:101FA00009D801D02AD805D0FD0ED715040801E1C3
:101FB0002DD81200C2C5E9FFC3C5EAFFEF50800B60
:101FC00005E0C2C5E9FFC3C5EAFFEF6A0501C66BBC
:101FD000C76BCB6BCC6BCA6B04D9000EE66EE66A9E
:101FE000E66EE66A170EE66EE66A83EC01F0146EA2
:101FF000060EE15E14509DEF12F0020E0501C75D62
:1020000003E1FAEC13F001D04ED81200D9CFE6FF6D
:10201000E1CFD9FFE652C2C5E9FFC3C5EAFFEF50E1
:10202000400B01E0010EDF6E0501C275080EB75DC1
:102030000AE122C46EFF6E50000803E2100EB76F73
:1020400002D0040EB76FC70528E1C2C5E9FFC3C5BA
:10205000EAFF020EE926000EEA22280EEE6E040EBA
:10206000ED6E3DDB020E0501C65D07E1C2C5E9FF6D
:10207000C3C5EAFF840EEF6E0FD0DF5007E1C2C583
:10208000E9FFC3C5EAFFC80EEF6E06D0C2C5E9FF7F
:10209000C3C5EAFF880EEF6E01D005D8E552E552C0
:1020A000E7CFD9FF1200D9CFE6FFE1CFD9FF030E6A
:1020B000E126020E0501C75D4AE16D50100B47E0B5
:1020C000BAC5E9FFBBC5EAFFEE52EF50146E156AC0
:1020D000080E141801E115503AE1BAC5E9FFBBC575
:1020E000EAFFEF503C0BE842E8420D0830E1BCC586
:1020F000E9FFBDC5EAFFEF50800B29E1BCC5E9FF50
:10210000BDC5EAFF020EE926000EEA22200EEE6EA1
:10211000040EED6EDF6ADF50146E156A080E145C53
:10212000000E155813E2DF50EA6A280FE96E040E1C
:10213000EA22EF50E66EDF50EA6A200FE96E040EE5
:10214000EA22E552E750EF6EDF2AE5D731D0C76BC0
:10215000BCC5E9FFBDC5EAFFEE52080EEF6EBCC577
:10216000E9FFBDC5EAFF020EE926000EEA22200EB5
:10217000EE6E040EED6EBCC5E9FFBDC5EAFF8C0E28
:10218000EF6EC2C5E9FFC3C5EAFFEF6A040EC219CC
:10219000146EC3C515F0010E14C0DBFF020E15C08E
:1021A000DBFF010EDBCFE9FF020EDBCFEAFFEF6AB8
:1021B0000501CFAF0CD0D251D31107E005D0D3C564
:1021C000FAFF0501D251F96EFADF0501CF9F030E28
:1021D000E15C02E2E16AE552E16EE552E7CFD9FF48
:1021E000120004012051600BE842E842E842E84254
:1021F000E842000901E058D021510C0A54E00B0AD2
:1022000043E00C0A35E0010A26E00B0A22E0020A4C
:1022100020E0030A1CE0080A10E0010A0CE00F0AA3
:1022200008E0030A01E03FD00501CA8F080EB76F2E
:102230003BD0C8D839D06FDB37D00501B80EC86F96
:10224000050EC96FCA81010ECB6FCA8F2DD014D96C
:102250002BD02BD829D024510501C86FC96BB90EDA
:10226000C827050EC923CA81010ECB6FCA8F1CD0A7
:102270000501CA8F04012451EA6AB90FE96E050EFF
:10228000EA2222C4EFFF10D0000EE66EE66AE66E88
:10229000E66A160EE66EE66A83EC01F0146E060E30
:1022A000E15E145001D000D01200D9CFE6FFE1CF9B
:1022B000D9FF040EE1260401220510E120511F0B75
:1022C00000090CE10501CA8F030E0401215D04E140
:1022D0000501010ED66F02D00501D66B0401225113
:1022E00067E120511F0B020863E124510F0B000925
:1022F0005FE00501CA8F040124BF10D024510F0BE9
:10230000E96EEA6AD890E936EA36BE0EE926050E8D
:10231000EA22EECFDEFFEDCFDDFF0FD024510F0B11
:10232000E96EEA6AD890E936EA36C20EE926050E69
:10233000EA22EECFDEFFEDCFDDFF030E215D07E1E8
:10234000DECFE9FFDDCFEAFF840EEF6E31D02451FE
:102350000F0B156A700F146E0F0E1522020E14C0AB
:10236000DBFF030E15C0DBFF020EDBCFE9FF030E20
:10237000DBCFEAFFEE90ED5224AF0DD0DECFE9FFC8
:10238000DDCFEAFFEF6ADF74DECFE9FFDDCFEAFFE2
:10239000400EEF6E0DD0DECFE9FFDDCFEAFF880EF5
:1023A000EF6EDF74DECFE9FFDDCFEAFFC80EEF6E20
:1023B000040EE15C02E2E16AE552E16EE552E7CF2C
:1023C000D9FF1200800E0401205D55E10501C00E09
:1023D000CA6F04012351030A2EE0010A0EE0030A2A
:1023E00003E00501CA6B47D00501BE0EC86F2D0E74
:1023F000C96F120ECB6FCC6B3ED02251F66EF76ACE
:10240000D890F636F7367C0EF6262E0EF722090007
:10241000F5CFC8F50A00F5CFC9F5020E0501F76A38
:10242000C825F66EC951F7220900F5CFCBF50A0091
:10243000F5CFCCF520D0030E225D1AE22251F66EC4
:10244000F76AD890F636F7367E0EF6262E0EF7226D
:102450000900F5CFC8F50A00F5CFC9F5C8C5F6FFE4
:10246000C9C5F7FF0800F5500501CB6FCC6B02D052
:102470000501CA6B00D01200D9CFE6FFE1CFD9FF2A
:10248000020EE1260401286B296B20511F0B020A62
:1024900012E0030A0DE0010A01E03BD00501CA8FFA
:1024A000040128810501D60502E10401288331D009
:1024B0000501CA8F2ED00501CA8F040124BF10D098
:1024C00024510F0BE96EEA6AD890E936EA36BE0E5F
:1024D000E926050EEA22EECFDEFFEDCFDDFF0FD0BD
:1024E00024510F0BE96EEA6AD890E936EA36C20E3B
:1024F000E926050EEA22EECFDEFFEDCFDDFFDECFCF
:10250000E9FFDDCFEAFFEF50040B02E0010E286F78
:1025100000D00501CAAF07D0280EC86F040EC96FDE
:10252000CA81020ECB6F020EE15C02E2E16AE55263
:10253000E16EE552E7CFD9FF12006D980501CABFE1
:102540004AD0CFAF28D0020EC76FC2C5E9FFC3C5BE
:10255000EAFFEE52EF6AC2C5E9FFC3C5EAFFC80E43
:10256000EF6EBCC5E9FFBDC5EAFFEE52080EEF6E87
:10257000BCC5E9FFBDC5EAFF020EE926000EEA224E
:10258000280EEE6E040EED6EBCC5E9FFBDC5EAFF78
:10259000C80EEF6E1FD0BCC5E9FFBDC5EAFFEE5205
:1025A000080EEF6EBCC5E9FFBDC5EAFF020EE926C5
:1025B000000EEA22200EEE6E040EED6EBCC5E9FFA1
:1025C000BDC5EAFF8C0EEF6EC2C5E9FFC3C5EAFFC9
:1025D000840EEF6E83D0CFBF81D0040120AF56D0E0
:1025E0000501CB510401265D0501CC510401275999
:1025F00004E226C4CBF527C4CCF571D80501010E41
:10260000C76FBCC5E9FFBDC5EAFFEE52080EEF6E0D
:10261000BCC5E9FFBDC5EAFF020EE926000EEA22AD
:10262000200EEE6E040EED6EBCC5E9FFBDC5EAFFDF
:10263000800EEF6EBAC5E9FFBBC5EAFFEE52080E89
:10264000EF6EBAC5E9FFBBC5EAFF020EE926000E30
:10265000EA22200EEE6E040EED6EBAC5E9FFBBC590
:10266000EAFF800EEF6EC2C5E9FFC3C5EAFF020EA6
:10267000E926000EEA22280EEE6E040EED6EC2C5AB
:10268000E9FFC3C5EAFFC80EEF6E28D00501020EB0
:10269000C76FC2C5E9FFC3C5EAFFEE52EF6AC2C504
:1026A000E9FFC3C5EAFFC80EEF6EBCC5E9FFBDC5B3
:1026B000EAFFEE52080EEF6EBCC5E9FFBDC5EAFFAA
:1026C000020EE926000EEA22280EEE6E040EED6ED2
:1026D000BCC5E9FFBDC5EAFFC80EEF6E1200D9CF39
:1026E000E6FFE1CFD9FF020EE1260501080ECB5D22
:1026F000000ECC590EE2CBC5DEFFCCC5DDFFC651C6
:1027000003E1010EC66F04D0C60502E1020EC66FDA
:1027100003D0080EDE6EDD6AC2C5E9FFC3C5EAFF5D
:10272000EF92C2C5E9FFC3C5EAFFEF90C2C5E9FF5A
:10273000C3C5EAFF010EDB50EF12C2C5E9FFC3C5F6
:10274000EAFFEE52DFCFEFFF000EDB50CB5F010E52
:10275000DB50CC5B280ED46F040ED56FCAB121D0EC
:10276000D9CFE9FFDACFEAFFEE50ED1019E0C8C586
:10277000F6FFC9C5F7FFC82B000EC9230800F550A6
:10278000E66ED4C5E9FFD5C5EAFFD42B000ED523EC
:10279000E552E750EF6EDF06010E01E2DB06E0D7FF
:1027A0001FD0D9CFE9FFDACFEAFFEE50ED1018E0E5
:1027B000C8C5E9FFC9C5EAFFC82B000EC923EF5001
:1027C000E66ED4C5E9FFD5C5EAFFD42B000ED523AC
:1027D000E552E750EF6EDF06010E01E2DB06E1D7BE
:1027E000020EE15C02E2E16AE552E16EE552E7CFFA
:1027F000D9FF1200D9CFE6FFE1CFD9FF020EE126C3
:10280000BAC5E9FFBBC5EAFFEE52EFCFDFFFDFCF6E
:1028100014F014500501D05D000ED15903E2D0C56B
:10282000DFFF09D0DF50146E156A1450D05DD06FF1
:102830001550D159D16F010EDB6ADF50F36E010ED6
:10284000DBCFF4FFF350F45C16E2010EDB50EA6AD2
:10285000280FE96E040EEA22EF50E66ECDC5E9FFBF
:10286000CEC5EAFFCD2B000ECE23E552E750EF6E2A
:10287000010EDB2AE2D7000ED880D055000ED155CC
:1028800028E2BCC5E9FFBDC5EAFFEE52080EEF6EB7
:10289000BCC5E9FFBDC5EAFF020EE926000EEA222B
:1028A000280EEE6E040EED6EBAC5E9FFBBC5EAFF59
:1028B000EF50400B07E1BCC5E9FFBDC5EAFFC80EFC
:1028C000EF6E06D0BCC5E9FFBDC5EAFF880EEF6E0E
:1028D00018D0BCC5E9FFBDC5EAFF020EE926000E0F
:1028E000EA22200EEE6E040EED6ED251D31107E0F7
:1028F00005D0D3C5FAFF0501D251F96EFADF050103
:10290000CF9F020EE15C02E2E16AE552E16EE55220
:10291000E7CFD9FF12000501CA8F000EE66EE66A06
:10292000E66A710EE66E0F0EE66EE4EC17F0146EBA
:10293000050EE15E1450010EE66EE66AE66AB90E17
:10294000E66E050EE66EE4EC17F0146E050EE15E21
:10295000145022C4B8F50401225104E10501100EFF
:10296000B76F11D00501200EB76F000EE66EE66A54
:10297000E66EE66A150EE66EE66A83EC01F0146E0A
:10298000060EE15E14501200D9CFE6FFE1CFD9FF69
:10299000020EE126000EDE6E040EDD6EFD0EDB5033
:1029A000E824166EFE0EDB50040DF3501624040DC1
:1029B000F350146E156A020E0F0B05E0D890153215
:1029C0001432E806FBE1D89014361536D890143648
:1029D0001536D9CFE9FFDACFEAFF1450EE261550AD
:1029E000ED22DECFE9FFDDCFEAFFEF9EFD0EDB50EB
:1029F0000FE1FE0EEA6ADB34FE0BEA36E96EBE0E2C
:102A0000E926050EEA22DECFEEFFDDCFEDFF0ED088
:102A1000FE0EEA6ADB34FE0BEA36E96EC20EE926E8
:102A2000050EEA22DECFEEFFDDCFEDFFDECFE9FFC0
:102A3000DDCFEAFFEF9CDECFE9FFDDCFEAFF040E3A
:102A4000E926000EEA22EF8C020EE15C02E2E16A66
:102A5000E552E16EE552E7CFD9FF1200D9CFE6FF8C
:102A6000E1CFD9FF020EE126FE0EDB50156A700F92
:102A7000146E0F0E152214C0DEFF15C0DDFFDECF71
:102A8000E9FFDDCFEAFFFD0EDBCFEFFFDBA407D0D0
:102A9000E66AFE0EDBCFE6FF77DFE552E552FD0E7C
:102AA000DBA208D0010EE66EFE0EDBCFE6FF6CDF88
:102AB000E552E552020EE15C02E2E16AE552E16EA6
:102AC000E552E7CFD9FF1200D9CFE6FFE1CFD9FF1A
:102AD000020EE126FE0EDB5020E1BCC5E9FFBDC5BC
:102AE000EAFFEE52080EEF6EBCC5E9FFBDC5EAFF76
:102AF000020EE926000EEA22200EEE6E040EED6EA6
:102B0000BCC5E9FFBDC5EAFF8C0EEF6EC2C5E9FF8B
:102B1000C3C5EAFF840EEF6E3DD0FD0EDB50E82406
:102B2000166EFE0EDB50040DF3501624040DF3CF89
:102B300014F0F4CF15F0000E1426040E152214C064
:102B4000DEFF15C0DDFF840E146EDECFE9FFDDCFA2
:102B5000EAFF1450EF12FD0EDB50E824166EFE0E55
:102B6000DB50040DF3501624010F040DF3CF14F0C5
:102B7000F4CF15F0000E1426040E152214C0DEFF4B
:102B800015C0DDFF840E146EDECFE9FFDDCFEAFF56
:102B90001450EF12020EE15C02E2E16AE552E16ECE
:102BA000E552E7CFD9FF1200D9CFE6FFE1CFD9FF39
:102BB000020EE126FD0EDB500FE0FE0EEA6ADB346A
:102BC000FE0BEA36E96EC20EE926050EEA22EECFCA
:102BD000DEFFEDCFDDFF0ED0FE0EEA6ADB34FE0B2A
:102BE000EA36E96EBE0EE926050EEA22EECFDEFFDA
:102BF000EDCFDDFFDECFE9FFDDCFEAFF020EE926F4
:102C0000000EEA22FB0EDBCFEEFFFC0EDBCFEDFF6A
:102C1000DECFE9FFDDCFEAFFEE52FA0EDBCFEFFFAA
:102C2000400E146EDECFE9FFDDCFEAFF1450EF1641
:102C3000880E146EDECFE9FFDDCFEAFF1450EF12ED
:102C4000FD0EDB500CE0FE0EEA6ADB34FE0BEA36CA
:102C5000E96EC20EE926050EEA22EF740BD0FE0ED5
:102C6000EA6ADB34FE0BEA36E96EBE0EE926050E93
:102C7000EA22EF74DECF14F0DDCF15F014C0F3FFBD
:102C800015C0F4FF020EE15C03E200D0E16AE552F8
:102C9000E16EE552E7CFD9FF1200D9CFE6FFE1CFD1
:102CA000D9FF010EF36EFC0EDB5004E0D890F33632
:102CB000E806FCE1F350E81C146EFD0EDBCFE9FFE3
:102CC000FE0EDBCFEAFF1450EF16E552E7CFD9FF37
:022CD0001200F0
:0E2CD200040120511F0B010801E06DD02451B8
:102CE00001E06AD0060E215D28E12351230A21E08C
:102CF000010A11E0030A01E020D00501B8050AE14C
:102D00000501E20EC86F2D0EC96F090ECB6FCC6B9B
:102D1000C00ECA6F12D00501B8050AE105015F0EA9
:102D2000C86F2E0EC96F1D0ECB6FCC6BC00ECA6F55
:102D300004D00501800ECA6F00D004012051600B41
:102D4000E842E842E842E842E842010801E034D0C3
:102D500021510B0A2BE0080A1EE0090A16E0080AB6
:102D600009E00B0A05E0080A01E026D026D824D0A5
:102D700025D822D00501E60EC86F050EC96F010ED9
:102D8000CB6FCC6BC10ECA6F17D00501800ECA6F16
:102D900023C4E6F511D00501E70EC86F050EC96F13
:102DA000010ECB6FCC6B810ECA6F06D00501800E71
:0E2DB000CA6F22C4E7F500D012001200120014
:022DBE00120100
:102DC000100100000008D8043F00020001020001C9
:102DD00009022900010100C03209040000020300B9
:102DE0000000092100010001221D000705810340A8
:102DF0000001070501034000010403090434034DE9
:102E0000006900630072006F006300680069007071
:102E100000200054006500630068006E006F006CC5
:102E2000006F0067007900200049006E0063002EEB
:102E3000002E034D0065006E00640069006500749B
:102E40000061002000760065007200730069006F69
:102E5000006E00200031002E0030002E00300006F1
:102E600000FF0901A10119012940150026FF007585
:102E70000895408102190129409102C0D02DF92DF9
:042E8000FD2D312EC5
:0C2E8400006A0EAE4BEF17F00D6C0E1E36
:102E9000E86A0E22001E09AE53EF17F0086C091EF7
:102EA000E86A0922001E15EC18F009BE63EF17F05E
:102EB00000AE000C086C091EE86A0922046C051EAD
:102EC000E86A0522000C00BE5AEF17F00188FF0CDB
:102ED00009C013F008C012F008500D02F4CF07F03B
:102EE000F3CF06F009500E02F4CF09F0F3CF08F04B
:102EF0000D02F3500726F4500822E86A0922125006
:102F00000E02F3500726F4500822E86A09220EAE9A
:102F10008EEF17F01250085E1350095A13AE000CD2
:0A2F20000D50085E0E50095A000C17
:062F2A001E0EF66E000E03
:102F3000F76E000EF86E05010900F550E16F09000B
:102F4000F550E26F03E1E16701D03DD00900F55093
:102F5000DC6F0900F550DD6F0900F550DE6F0900E8
:102F60000900F550E96E0900F550EA6E0900090004
:102F70000900F550DF6F0900F550E06F0900090006
:102F8000F6CFE3F5F7CFE4F5F8CFE5F5DCC5F6FFCE
:102F9000DDC5F7FFDEC5F8FF0501DF5302E1E053B1
:102FA00007E00900F550EE6EDF07F8E2E007F9D719
:102FB000E3C5F6FFE4C5F7FFE5C5F8FF0501E10746
:082FC000000EE25BBFD7120016
:082FC800FE0EE3CFE9FFFF0E4E
:102FD000E3CFEAFFE9CFF3FFEACFF4FFFB0EE350C4
:102FE00003E1FC0EE35009E0FB0EE30602E2FC0EF7
:0C2FF000E306FD0EE350EE6EF1D7120078
:042FFC00FF0EE35091
:10300000246EEF0E01D0F30EE76EE72E05EF18F0F9
:103010000C0E236EE76AE72E0BEF18F0232E0AEF53
:0A30200018F0242E03EF18F0120040
:06302A00056A046A100EA5
:10303000E76ED89008360936043605360D50045C24
:103040000E50055805E30D50045E0E50055A082A2F
:06305000E72EF0D712008C
:0A305600000EF36E00EE00F0080E0D
:1030600001D81200EA6002D0EE6AFCD7F350E960A2
:063070001200EE6AFCD71D
:0A30760013EE00F023EE00F0F86AFC
:10308000019C95EC17F003EC00F0DAEC05F0FBD7AF
:0230900012002C
:0E30920000000000010000000000000000002F
:1030A0000000000000000000000000000000000020
:1030B000000000000000000002000000000000000E
:0930C00000000000000000000007
:020000040030CA
:0100000024DB
:010001000EF0
:010002003FBE
:010003001EDE
:010005008179
:010006008178
:010008000FE8
:01000900C036
:01000A000FE6
:01000B00E014
:01000C000FE4
:01000D0040B2
:00000001FF
