:020000040000FA
:06000000B4EF0DF0120048
:020006001200E6
:0600080060EF08F0120099
:02000E000000F0
:050010000000010000EA
:0600180069EF08F0120080
:02001E000100DF
:0C0020000E000000AF050000070000000B
:04002C00D9CFE6FF43
:10003000E1CFD9FFE6526A6A686A9F0E6B6EFB0ECB
:10004000696E6D8C6D9C6E6A000EE66EE66AE66AFD
:10005000710EE66E0F0EE66E73EC0DF00B6E050E74
:10006000E15E0B50DF6ADF500B6E0C6A080E0B5C12
:10007000000E0C5810E2DF50040DF3CFE9FFF4CF6F
:10008000EAFF000EE926040EEA22EE6AEE6AEE6A44
:10009000EE6ADF2AE8D7160E706E68A60CD0030E43
:1000A000E66E680EE66E0F0EE66E44EC08F0E55262
:1000B000E552E552F2D70501936B986B996B9A6BF9
:1000C0006D98080E8B6F040E8C6F816B806BE55200
:1000D000E552E7CFD9FF1200D9CFE6FFE1CFD9FF34
:1000E000E652A19A0501805111E105D06D6A696A55
:1000F0000501806BC9D06D6A696A6DB602D06D86E4
:10010000FCD70501010E806F160E6F6E800508E1A9
:100110006DBA06D0686A696A69806988020E806F64
:100120006850040B0FE06950040B0CE0020EE66E01
:10013000680EE66E0F0EE66E44EC08F0E552E552EE
:10014000E552E6D86DB2A0D06850010B1BE06950B3
:10015000010B18E06BDF0501040E806F0401200E17
:10016000026F040E036F080E016F006B8C0E0013FC
:10017000E66A680EE66E0F0EE66E44EC08F0E55295
:10018000E552E5526850100B0FE06950100B0CE07F
:10019000A3D8040EE66E680EE66E0F0EE66E44EC13
:1001A00008F0E552E552E5526850400B1DE06950F9
:1001B000400B1AE0010EE66EE66A000EE66EE66A95
:1001C000020EE66EE66AEBEC09F00B6E060EE15EDF
:1001D0000B50060EE66E680EE66E0F0EE66E44ECF1
:1001E00008F0E552E552E5526850200B04E06950F2
:1001F000200B01E04ED86850020B12E06950020B50
:100200000FE0010EE66EE66A000EE66EE66AE6684C
:10021000E668EBEC09F00B6E060EE15E0B506A6AC5
:10022000040E0501805D01E22FD069A62DD0DF6AA2
:10023000040EDF5C29E268A624D06CCFA0F5030E83
:10024000E66E680EE66E0F0EE66E44EC08F0E552C0
:10025000E552E552780E0501A01502E178D810D0DC
:10026000000EE66EE66AA00EE66E050EE66E010E64
:10027000E66EE66AEBEC09F00B6E060EE15E0B50E3
:1002800001D002D0DF2AD4D7E552E552E7CFD9FF1B
:10029000120070A015D083C5E9FF84C5EAFFEF50B6
:1002A00080080DE18BC5E9FF8CC5EAFFEF5084089B
:1002B00006E183C5E9FF84C5EAFF8C0EEF6E7090FE
:1002C000050EE66E680EE66E0F0EE66E44EC08F064
:1002D000E552E552E55212006984040EE66E680E9E
:1002E000E66E0F0EE66E44EC08F0E552E552E5527C
:1002F0006D82000EE66EE66AE66EE66A040EE66E53
:10030000E66AEBEC09F00B6E060EE15E0B50120094
:100310006D92000EE66EE66AE66EE66A030EE66E23
:10032000E66AEBEC09F00B6E060EE15E0B50699489
:1003300068A40CD0020EE66E680EE66E0F0EE66E36
:1003400044EC08F0E552E552E552F2D71200FD0EFA
:100350000501A01520E17E0EA015E8407F0B040DDD
:10036000F3CF83F5F4CF84F5000E8327040E8423A6
:1003700083C585F584C586F5857583C5E9FF84C584
:10038000EAFFEF503C0BE842E8420D0802E109D8D1
:1003900001D02AD805D0FD0EA015040801E12DD802
:1003A00012008BC5E9FF8CC5EAFFEF50800B05E01A
:1003B0008BC5E9FF8CC5EAFFEF6A05018F6B906B77
:1003C000946B956B936B04D9000EE66EE66AE66E4D
:1003D000E66A170EE66EE66AEBEC09F00B6E060EA7
:1003E000E15E0B5094EF04F0020E0501905D03E115
:1003F000F1EC05F001D04ED81200D9CFE6FFE1CFE5
:10040000D9FFE6528BC5E9FF8CC5EAFFEF50400BE0
:1004100001E0010EDF6E05018B75080E805D0AE1BB
:1004200022C46EFF6E50000803E2100E806F02D0EF
:10043000040E806F900528E18BC5E9FF8CC5EAFFAB
:10044000020EE926000EEA22280EEE6E040EED6E74
:100450003DDB020E05018F5D07E18BC5E9FF8CC511
:10046000EAFF840EEF6E0FD0DF5007E18BC5E9FF86
:100470008CC5EAFFC80EEF6E06D08BC5E9FF8CC5B0
:10048000EAFF880EEF6E01D005D8E552E552E7CFBE
:10049000D9FF1200D9CFE6FFE1CFD9FF030EE12645
:1004A000020E0501905D4AE16D50100B47E083C5D7
:1004B000E9FF84C5EAFFEE52EF500B6E0C6A080E9E
:1004C0000B1801E10C503AE183C5E9FF84C5EAFF4E
:1004D000EF503C0BE842E8420D0830E185C5E9FFEA
:1004E00086C5EAFFEF50800B29E185C5E9FF86C587
:1004F000EAFF020EE926000EEA22200EEE6E040E3E
:10050000ED6EDF6ADF500B6E0C6A080E0B5C000E9E
:100510000C5813E2DF50EA6A280FE96E040EEA2253
:10052000EF50E66EDF50EA6A200FE96E040EEA2211
:10053000E552E750EF6EDF2AE5D731D0906B85C5E5
:10054000E9FF86C5EAFFEE52080EEF6E85C5E9FFAA
:1005500086C5EAFF020EE926000EEA22200EEE6EA4
:10056000040EED6E85C5E9FF86C5EAFF8C0EEF6EC1
:100570008BC5E9FF8CC5EAFFEF6A040E8B190B6E81
:100580008CC50CF0010E0BC0DBFF020E0CC0DBFFB4
:10059000010EDBCFE9FF020EDBCFEAFFEF6A0501B8
:1005A00098AF0CD09B519C1107E005D09CC5FAFF79
:1005B00005019B51F96EFADF0501989F030EE15C7E
:1005C00002E2E16AE552E16EE552E7CFD9FF12009F
:1005D00004012051600BE842E842E842E842E84268
:1005E000000901E058D021510C0A54E00B0A43E005
:1005F0000C0A35E0010A26E00B0A22E0020A20E09C
:10060000030A1CE0080A10E0010A0CE00F0A08E0E7
:10061000030A01E03FD00501938F080E806F3BD0A5
:10062000C8D839D06FDB37D00501810E916F050E28
:10063000926F9381010E946F938F2DD014D92BD08C
:100640002BD829D024510501916F926B820E9127EE
:10065000050E92239381010E946F938F1CD0050198
:10066000938F04012451EA6A820FE96E050EEA2293
:1006700022C4EFFF10D0000EE66EE66AE66EE66A70
:10068000160EE66EE66AEBEC09F00B6E060EE15E06
:100690000B5001D000D01200D9CFE6FFE1CFD9FF37
:1006A000040EE1260401220510E120511F0B000970
:1006B0000CE10501938F030E0401215D04E10501A6
:1006C000010E9F6F02D005019F6B0401225167E16B
:1006D00020511F0B020863E124510F0B00095FE05A
:1006E0000501938F040124BF10D024510F0BE96E34
:1006F000EA6AD890E936EA36870EE926050EEA223C
:10070000EECFDEFFEDCFDDFF0FD024510F0BE96EF2
:10071000EA6AD890E936EA368B0EE926050EEA2217
:10072000EECFDEFFEDCFDDFF030E215D07E1DECF73
:10073000E9FFDDCFEAFF840EEF6E31D024510F0BBD
:100740000C6A700F0B6E0F0E0C22020E0BC0DBFF3B
:10075000030E0CC0DBFF020EDBCFE9FF030EDBCF85
:10076000EAFFEE90ED5224AF0DD0DECFE9FFDDCFF2
:10077000EAFFEF6ADF74DECFE9FFDDCFEAFF400E6C
:10078000EF6E0DD0DECFE9FFDDCFEAFF880EEF6E12
:10079000DF74DECFE9FFDDCFEAFFC80EEF6E040E97
:1007A000E15C02E2E16AE552E16EE552E7CFD9FF92
:1007B0001200800E0401205D55E10501C00E936F0B
:1007C00004012351030A2EE0010A0EE0030A03E0AC
:1007D0000501936B47D00501820E916F190E926F40
:1007E000120E946F956B3ED02251F66EF76AD89038
:1007F000F636F736400EF6261A0EF7220900F5CF28
:1008000091F50A00F5CF92F5020E0501F76A9125E0
:10081000F66E9251F7220900F5CF94F50A00F5CF54
:1008200095F520D0030E225D1AE22251F66EF76A8A
:10083000D890F636F736420EF6261A0EF722090041
:10084000F5CF91F50A00F5CF92F591C5F6FF92C567
:10085000F7FF0800F5500501946F956B02D0050174
:10086000936B00D01200D9CFE6FFE1CFD9FF020E83
:10087000E1260401286B296B20511F0B020A12E0AC
:10088000030A0DE0010A01E03BD00501938F04014A
:10089000288105019F0502E10401288331D005016B
:1008A000938F2ED00501938F040124BF10D02451C3
:1008B0000F0BE96EEA6AD890E936EA36870EE92628
:1008C000050EEA22EECFDEFFEDCFDDFF0FD0245183
:1008D0000F0BE96EEA6AD890E936EA368B0EE92604
:1008E000050EEA22EECFDEFFEDCFDDFFDECFE9FF22
:1008F000DDCFEAFFEF50040B02E0010E286F00D0BD
:10090000050193AF07D0280E916F040E926F93816B
:10091000020E946F020EE15C02E2E16AE552E16EC2
:10092000E552E7CFD9FF12006D98050193BF4AD079
:1009300098AF28D0020E906F8BC5E9FF8CC5EAFFF7
:10094000EE52EF6A8BC5E9FF8CC5EAFFC80EEF6E69
:1009500085C5E9FF86C5EAFFEE52080EEF6E85C534
:10096000E9FF86C5EAFF020EE926000EEA22280EFC
:10097000EE6E040EED6E85C5E9FF86C5EAFFC80E72
:10098000EF6E1FD085C5E9FF86C5EAFFEE52080E5F
:10099000EF6E85C5E9FF86C5EAFF020EE926000E67
:1009A000EA22200EEE6E040EED6E85C5E9FF86C5C7
:1009B000EAFF8C0EEF6E8BC5E9FF8CC5EAFF840E53
:1009C000EF6E83D098BF81D0040120AF56D00501CF
:1009D00094510401265D050195510401275904E253
:1009E00026C494F527C495F571D80501010E906FC2
:1009F00085C5E9FF86C5EAFFEE52080EEF6E85C594
:100A0000E9FF86C5EAFF020EE926000EEA22200E63
:100A1000EE6E040EED6E85C5E9FF86C5EAFF800E19
:100A2000EF6E83C5E9FF84C5EAFFEE52080EEF6E54
:100A300083C5E9FF84C5EAFF020EE926000EEA221B
:100A4000200EEE6E040EED6E83C5E9FF84C5EAFF4D
:100A5000800EEF6E8BC5E9FF8CC5EAFF020EE9261A
:100A6000000EEA22280EEE6E040EED6E8BC5E9FF35
:100A70008CC5EAFFC80EEF6E28D00501020E906FFC
:100A80008BC5E9FF8CC5EAFFEE52EF6A8BC5E9FF23
:100A90008CC5EAFFC80EEF6E85C5E9FF86C5EAFF83
:100AA000EE52080EEF6E85C5E9FF86C5EAFF020E1D
:100AB000E926000EEA22280EEE6E040EED6E85C5C4
:100AC000E9FF86C5EAFFC80EEF6E1200D9CFE6FF38
:100AD000E1CFD9FF020EE1260501080E945D000E5C
:100AE00095590EE294C5DEFF95C5DDFF8F5103E1F8
:100AF000010E8F6F04D08F0502E1020E8F6F03D0BD
:100B0000080EDE6EDD6A8BC5E9FF8CC5EAFFEF9249
:100B10008BC5E9FF8CC5EAFFEF908BC5E9FF8CC55B
:100B2000EAFF010EDB50EF128BC5E9FF8CC5EAFF2F
:100B3000EE52DFCFEFFF000EDB50945F010EDB5073
:100B4000955B280E9D6F040E9E6F93B121D0D9CF77
:100B5000E9FFDACFEAFFEE50ED1019E091C5F6FF9C
:100B600092C5F7FF912B000E92230800F550E66E18
:100B70009DC5E9FF9EC5EAFF9D2B000E9E23E55211
:100B8000E750EF6EDF06010E01E2DB06E0D71FD073
:100B9000D9CFE9FFDACFEAFFEE50ED1018E091C5AA
:100BA000E9FF92C5EAFF912B000E9223EF50E66E0B
:100BB0009DC5E9FF9EC5EAFF9D2B000E9E23E552D1
:100BC000E750EF6EDF06010E01E2DB06E1D7020E11
:100BD000E15C02E2E16AE552E16EE552E7CFD9FF5E
:100BE0001200D9CFE6FFE1CFD9FF020EE12683C57F
:100BF000E9FF84C5EAFFEE52EFCFDFFFDFCF0BF056
:100C00000B500501995D000E9A5903E299C5DFFF6B
:100C100009D0DF500B6E0C6A0B50995D996F0C5028
:100C20009A599A6F010EDB6ADF50F36E010EDBCF2B
:100C3000F4FFF350F45C16E2010EDB50EA6A280F71
:100C4000E96E040EEA22EF50E66E96C5E9FF97C5FD
:100C5000EAFF962B000E9723E552E750EF6E010E48
:100C6000DB2AE2D7000ED8809955000E9A5528E26B
:100C700085C5E9FF86C5EAFFEE52080EEF6E85C511
:100C8000E9FF86C5EAFF020EE926000EEA22280ED9
:100C9000EE6E040EED6E83C5E9FF84C5EAFFEF50EA
:100CA000400B07E185C5E9FF86C5EAFFC80EEF6E78
:100CB00006D085C5E9FF86C5EAFF880EEF6E18D01D
:100CC00085C5E9FF86C5EAFF020EE926000EEA2285
:100CD000200EEE6E040EED6E9B519C1107E005D0C8
:100CE0009CC5FAFF05019B51F96EFADF0501989F3B
:100CF000020EE15C02E2E16AE552E16EE552E7CF05
:100D0000D9FF12000501938F000EE66EE66AE66ACF
:100D1000710EE66E0F0EE66E73EC0DF00B6E050EA7
:100D2000E15E0B50010EE66EE66AE66A820EE66E42
:100D3000050EE66E73EC0DF00B6E050EE15E0B50CA
:100D400022C481F50401225104E10501100E806FD7
:100D500011D00501200E806F000EE66EE66AE66E89
:100D6000E66A150EE66EE66AEBEC09F00B6E060E0F
:100D7000E15E0B501200D9CFE6FFE1CFD9FF020EA2
:100D8000E126000EDE6E040EDD6EFD0EDB50E82463
:100D90000D6EFE0EDB50040DF3500D24040DF350C8
:100DA0000B6E0C6A020E0F0B05E0D8900C320B3262
:100DB000E806FBE1D8900B360C36D8900B360C3693
:100DC000D9CFE9FFDACFEAFF0B50EE260C50ED2227
:100DD000DECFE9FFDDCFEAFFEF9EFD0EDB500FE136
:100DE000FE0EEA6ADB34FE0BEA36E96E870EE92670
:100DF000050EEA22DECFEEFFDDCFEDFF0ED0FE0EB8
:100E0000EA6ADB34FE0BEA36E96E8B0EE926050E44
:100E1000EA22DECFEEFFDDCFEDFFDECFE9FFDDCF53
:100E2000EAFFEF9CDECFE9FFDDCFEAFF040EE92603
:100E3000000EEA22EF8C020EE15C02E2E16AE5526A
:100E4000E16EE552E7CFD9FF1200D9CFE6FFE1CF3F
:100E5000D9FF020EE126FE0EDB500C6A700F0B6EFE
:100E60000F0E0C220BC0DEFF0CC0DDFFDECFE9FF52
:100E7000DDCFEAFFFD0EDBCFEFFFDBA407D0E66A94
:100E8000FE0EDBCFE6FF77DFE552E552FD0EDBA27B
:100E900008D0010EE66EFE0EDBCFE6FF6CDFE552FA
:100EA000E552020EE15C02E2E16AE552E16EE552D2
:100EB000E7CFD9FF1200D9CFE6FFE1CFD9FF020E6D
:100EC000E126FE0EDB5020E185C5E9FF86C5EAFF7D
:100ED000EE52080EEF6E85C5E9FF86C5EAFF020EE9
:100EE000E926000EEA22200EEE6E040EED6E85C598
:100EF000E9FF86C5EAFF8C0EEF6E8BC5E9FF8CC556
:100F0000EAFF840EEF6E3DD0FD0EDB50E8240D6E3F
:100F1000FE0EDB50040DF3500D24040DF3CF0BF047
:100F2000F4CF0CF0000E0B26040E0C220BC0DEFFDB
:100F30000CC0DDFF840E0B6EDECFE9FFDDCFEAFFD4
:100F40000B50EF12FD0EDB50E8240D6EFE0EDB5051
:100F5000040DF3500D24010F040DF3CF0BF0F4CF6B
:100F60000CF0000E0B26040E0C220BC0DEFF0CC092
:100F7000DDFF840E0B6EDECFE9FFDDCFEAFF0B5005
:100F8000EF12020EE15C02E2E16AE552E16EE55227
:100F9000E7CFD9FF1200D9CFE6FFE1CFD9FF020E8C
:100FA000E126FD0EDB500FE0FE0EEA6ADB34FE0B9D
:100FB000EA36E96E8B0EE926050EEA22EECFDEFF59
:100FC000EDCFDDFF0ED0FE0EEA6ADB34FE0BEA3613
:100FD000E96E870EE926050EEA22EECFDEFFEDCFA1
:100FE000DDFFDECFE9FFDDCFEAFF020EE926000ECE
:100FF000EA22FB0EDBCFEEFFFC0EDBCFEDFFDECFF8
:10100000E9FFDDCFEAFFEE52FA0EDBCFEFFF400E35
:101010000B6EDECFE9FFDDCFEAFF0B50EF16880E37
:101020000B6EDECFE9FFDDCFEAFF0B50EF12FD0EB6
:10103000DB500CE0FE0EEA6ADB34FE0BEA36E96EAA
:101040008B0EE926050EEA22EF740BD0FE0EEA6A3B
:10105000DB34FE0BEA36E96E870EE926050EEA223E
:10106000EF74DECF0BF0DDCF0CF00BC0F3FF0CC044
:10107000F4FF020EE15C03E200D0E16AE552E16EAA
:10108000E552E7CFD9FF1200D9CFE6FFE1CFD9FF74
:10109000010EF36EFC0EDB5004E0D890F336E80648
:1010A000FCE1F350E81C0B6EFD0EDBCFE9FFFE0EFA
:1010B000DBCFEAFF0B50EF16E552E7CFD9FF120066
:1010C000DACFE4FFE2CFDAFFE652E552E5CFDAFF0E
:1010D0001100D8CFE4FFE0CFE4FFE46EDACFE4FF05
:1010E000E2CFDAFFE652E552E5CFDAFFE550E5CF91
:1010F000E0FFE5CFD8FF10000F0EC11216EF00F091
:10110000F00E8C1695169388938A0501AF6BB06B21
:10111000B16BB26B010EB36F1200D9CFE6FFE1CF16
:10112000D9FF020EE1260501B35101E0DDD8200E02
:101130000501805D03E36D50020B01E0A4D00501C1
:10114000AF51B01102E1000E08D0AFC5E9FFB0C544
:10115000EAFFEF50800B01E0010E000901E093D09F
:1011600005010051370A45E0B60A17E0010A01E01F
:1011700077D00501B36B8C50010B0B6E8C50020BBA
:1011800001E0010E0B5C03E18C708C7205D08CA029
:1011900002D08C8201D08C9263D0810E406F81A8E6
:1011A00003D0010E416F01D0416B0501B151B21165
:1011B00002E1000E08D0B1C5E9FFB2C5EAFFEF5069
:1011C000800B01E0010E000913E1400EE66E400EB7
:1011D000E66E050EE66E010EE66EE66ECBEC07F0EF
:1011E0000B6E050EE15E0B50F3CFB1F5F4CFB2F507
:1011F00037D00501B151B21102E1000E08D0B1C5DE
:10120000E9FFB2C5EAFFEF50800B01E0010E0009D3
:1012100026E19280010EC26E3C0EC06EC08E3DD89B
:10122000F3CFDEFFF4CFDDFF0501370E406FDFCFD8
:1012300041F5010EDBCF42F5400EE66E400EE66E44
:10124000050EE66E010EE66EE66ECBEC07F00B6E59
:10125000050EE15E0B50F3CFB1F5F4CFB2F500D03F
:10126000400EE66E000EE66E050EE66EE66A010EB4
:10127000E66ECBEC07F00B6E050EE15E0B50F3CF84
:10128000AFF5F4CFB0F5020EE15C02E2E16AE5529F
:10129000E16EE552E7CFD9FF1200D9CFE6FFE1CFEB
:1012A000D9FF020EE1269280010EC26E3C0EC06E86
:1012B000C08EC282C2B2FED7C350DF6E010EC4CF51
:1012C000DBFFDECF0BF0DDCF0CF00BC0F3FF0CC06B
:1012D000F4FF020EE15C03E200D0E16AE552E16E48
:1012E000E552E7CFD9FF12000501B451B51104E171
:1012F000100EB46F270EB56FB407000EB55B6DA26C
:101300000AD0B451B51106E18C708CA002D08C8249
:1013100001D08C922ED00501805103E18C908C92EB
:1013200028D0800503E18C808C8223D0020E805D62
:1013300003E18C808C921DD0040E805D03E18C90C3
:101340008C8217D0100E805D07E10501B451B511F4
:1013500002E18C708C920DD0200E805D0AE10501B7
:10136000B451B51106E18C708CA002D08C9201D0E2
:101370008C82120012001200120012004BEF0CF0CF
:1013800012001E0EE66E010EE66E25EC07F0E55229
:10139000E552400EE66E000EE66E050EE66EE66A5B
:1013A000010EE66ECBEC07F00B6E050EE15E0B5006
:1013B000F3CFAFF5F4CFB0F512006D840501080E40
:1013C000B96F070EBA6FB907000EBA5BB951BA11FF
:1013D000FAE16D941200D9CFE6FFE1CFD9FFFD0EFF
:1013E000DBCF06F0FE0EDBCF07F0010E061801E1A1
:1013F000075033E0E868061802E1E86807182BE0B8
:10140000030E061801E1075024E0040E061801E15E
:1014100007501DE0020E061801E1075016E0170EF6
:10142000061801E107500FE0160E061801E10750FB
:1014300008E0150E061801E1075001E010D0A1DF09
:101440000FD09EDF0DD09ADF0BD096DF09D092DF50
:1014500007D091DF05D091DF03D0000001D000D08C
:10146000010E00D0E552E7CFD9FF1200D9CFE6FF39
:10147000E1CFD9FF020EE126DE6ADD6ADECF0BF096
:10148000DDCF0CF00C3404E20B500108000E0C54BC
:101490000AE3FA0EE66E8DEC0DF0E552DF2A010E3E
:1014A00001E3DB2AEBD7020EE15C02E2E16AE552DE
:1014B000E16EE552E7CFD9FF12001EDE05D86CECD5
:1014C00000F006D8FCD71200926A936A956A12005F
:1014D0006AEF0AF0200E0501805D03E36D50020BF8
:1014E00001E05ED00501AF51B01102E1000E08D05D
:1014F000AFC5E9FFB0C5EAFFEF50800B01E0010E78
:1015000000094EE105010051020A09E0030A05E065
:10151000010A01E032D07FD930D043D82ED080CF1D
:1015200040F581CF41F582CF42F583CF43F584CF9B
:1015300044F50501B151B21102E1000E08D0B1C568
:10154000E9FFB2C5EAFFEF50800B01E0010E000990
:1015500013E1400EE66E400EE66E050EE66E010EDD
:10156000E66EE66ECBEC07F00B6E050EE15E0B50FF
:10157000F3CFB1F5F4CFB2F500D0400EE66E000E19
:10158000E66E050EE66EE66A010EE66ECBEC07F03F
:101590000B6E050EE15E0B50F3CFAFF5F4CFB0F557
:1015A0001200D9CFE6FFE1CFD9FF040EE1260501F5
:1015B0000151DE6EDD6A0251E66ED950020FE96E0E
:1015C000DACFEAFFE552E750EE6EED6A000EDFCFAC
:1015D00006F0010EDBCF07F0280E061801E10750D8
:1015E00001E108D1270E061801E1075001E1FBD007
:1015F000260E061801E1075001E1EED0250E06186F
:1016000001E1075001E1E1D0240E061801E1075085
:1016100001E1D4D0230E061801E1075001E1C7D043
:10162000220E061801E1075001E1BAD0210E06187A
:1016300001E1075001E1ADD01E0E061801E107508F
:1016400001E1A0D01D0E061801E1075001E193D081
:101650001C0E061801E1075001E186D01B0E06188A
:1016600001E1075001E179D0160E061801E107509B
:101670006DE0150E061801E1075061E0140E061822
:1016800001E1075055E0130E061801E1075049E04B
:10169000070E061801E107503DE0060E061801E1AD
:1016A000075031E0050E061801E1075025E0040E51
:1016B000061801E1075019E0030E061801E1075072
:1016C0000DE0020E061801E1075001E09AD0020E6B
:1016D000DB50E8B08080E8A0809093D0020EDB5011
:1016E000E8B08082E8A080928CD0020EDB50E8B097
:1016F0008084E8A0809485D0020EDB50E8B080861C
:10170000E8A080967ED0020EDB50E8B08088E8A08A
:10171000809877D0020EDB50E8B0808AE8A0809AEB
:1017200070D0020EDB50E8B08380E8A0839069D0CF
:10173000020EDB50E8B08382E8A0839262D0020EF2
:10174000DB50E8B08384E8A083945BD0020EDB50CA
:10175000E8B08386E8A0839654D0020EDB50E8B050
:101760008388E8A083984DD0020EDB50E8B0838ACE
:10177000E8A0839A46D0020EDB50E8B0838CE8A044
:10178000839C3FD0020EDB50E8B0838EE8A0839E9E
:1017900038D0020EDB50E8B08180E8A0819031D0D3
:1017A000020EDB50E8B08182E8A081922AD0020EBE
:1017B000DB50E8B08184E8A0819423D0020EDB5096
:1017C000E8B08186E8A081961CD0020EDB50E8B01C
:1017D0008188E8A0819815D0020EDB50E8B0818A9C
:1017E000E8A0819A0ED0020EDB50E8B0818CE8A010
:1017F000819C07D0020EDB50E8B0818EE8A0819E6C
:1018000000D0040EE15C02E2E16AE552E16EE552CD
:10181000E7CFD9FF1200D9CFE6FFE1CFD9FF040E01
:10182000E12605010151DE6EDD6A0251E66ED950F6
:10183000020FE96EDACFEAFFE552E750EE6EED6A8D
:10184000000EDFCF06F0010EDBCF07F0020E061808
:1018500001E1075012E0010E061801E1075009E00E
:10186000065001E1075001E00CD0020EDB50926EF1
:1018700008D0020EDB50936E04D0020EDB50956E42
:1018800000D0040EE15C02E2E16AE552E16EE5524D
:06189000E7CFD9FF1200B2
:0A189600040120511F0B010801E0BE
:1018A0006DD0245101E06AD0060E215D28E123515C
:1018B000230A21E0010A11E0030A01E020D005011A
:1018C00081050AE10501A60E916F190E926F090EAE
:1018D000946F956BC00E936F12D0050181050AE1DC
:1018E0000501230E916F1A0E926F1D0E946F956B6A
:1018F000C00E936F04D00501800E936F00D00401D9
:101900002051600BE842E842E842E842E842010820
:1019100001E034D021510B0A2BE0080A1EE0090A2D
:1019200016E0080A09E00B0A05E0080A01E026D0E3
:1019300026D824D025D822D00501B60E916F050EE9
:10194000926F010E946F956BC10E936F17D00501C6
:10195000800E936F23C4B6F511D00501B70E916FB9
:10196000050E926F010E946F956B810E936F06D0EA
:101970000501800E936F22C4B7F500D0120012004B
:02198000120053
:0E1982001201100100000008D8043F0002000E
:101990000102000109022900010100C0320904000E
:1019A000000203000000092100010001221D0007C0
:1019B00005810340000107050103400001040309FC
:1019C0000434034D006900630072006F0063006817
:1019D0000069007000200054006500630068006E1C
:1019E000006F006C006F0067007900200049006EF6
:1019F0000063002E002E034D0065006E0064006938
:101A000000650074006100200076006500720073BC
:101A10000069006F006E00200031002E0030002EA3
:101A20000030000600FF0901A1011901294015003D
:101A300026FF00750895408102190129409102C0D6
:081A40009419BD19C119F51933
:081A48001E0EF66E000EF76E93
:101A5000000EF86E05010900F550AA6F0900F55057
:101A6000AB6F03E1AA6701D03DD00900F550A56F27
:101A70000900F550A66F0900F550A76F090009008D
:101A8000F550E96E0900F550EA6E090009000900F9
:101A9000F550A86F0900F550A96F09000900F6CFAD
:101AA000ACF5F7CFADF5F8CFAEF5A5C5F6FFA6C5F9
:101AB000F7FFA7C5F8FF0501A85302E1A95307E006
:101AC0000900F550EE6EA807F8E2A907F9D7ACC5F2
:101AD000F6FFADC5F7FFAEC5F8FF0501AA07000E7A
:061AE000AB5BBFD7120052
:0A1AE600FE0EE3CFE9FFFF0EE3CF91
:101AF000EAFFE9CFF3FFEACFF4FFFB0EE35003E187
:101B0000FC0EE35009E0FB0EE30602E2FC0EE306E6
:0A1B1000FD0EE350EE6EF1D7120057
:061B1A00FF0EE3500F6E08
:101B2000EF0E01D0F30EE76EE72E94EF0DF00C0EE2
:101B30000E6EE76AE72E9AEF0DF00E2E99EF0DF07C
:081B40000F2E92EF0DF01200D0
:081B4800000EF36E00EE00F048
:101B5000080E01D81200EA6002D0EE6AFCD7F350FA
:081B6000E9601200EE6AFCD7F7
:081B680013EE00F023EE00F083
:101B7000F86A0A9C24EC0DF003EC00F05DEC0AF02E
:041B8000FBD712007D
:020000040030CA
:0100000024DB
:010001000EF0
:010002003FBE
:010003001EDE
:010005008179
:010006008178
:010008000FE8
:01000900C036
:01000A000FE6
:01000B00E014
:01000C000FE4
:01000D0040B2
:00000001FF
