:020000040000FA
:06000000F4EF0EF0120007
:020006001200E6
:0600080060EF08F0120099
:0600180069EF08F0120080
:02001E000100DF
:0C002000041E0000A50500000B000000FD
:04002C00D9CFE6FF43
:10003000E1CFD9FFE6526A6A686A9F0E6B6EFB0ECB
:10004000696E6D8C6D9C6E6A000EE66EE66AE66AFD
:10005000710EE66E0F0EE66EB3EC0EF00B6E050E33
:10006000E15E0B50DF6ADF500B6E0C6A080E0B5C12
:10007000000E0C5810E2DF50040DF3CFE9FFF4CF6F
:10008000EAFF000EE926040EEA22EE6AEE6AEE6A44
:10009000EE6ADF2AE8D7160E706E68A60CD0030E43
:1000A000E66E680EE66E0F0EE66E44EC08F0E55262
:1000B000E552E552F2D70501936B986B996B9A6BF9
:1000C0006D98080E8B6F040E8C6F816B806BE55200
:1000D000E552E7CFD9FF1200D9CFE6FFE1CFD9FF34
:1000E000E652A19A0501805111E105D06D6A696A55
:1000F0000501806BC9D06D6A696A6DB602D06D86E4
:10010000FCD70501010E806F160E6F6E800508E1A9
:100110006DBA06D0686A696A69806988020E806F64
:100120006850040B0FE06950040B0CE0020EE66E01
:10013000680EE66E0F0EE66E44EC08F0E552E552EE
:10014000E552E6D86DB2A0D06850010B1BE06950B3
:10015000010B18E06BDF0501040E806F0401200E17
:10016000026F040E036F080E016F006B8C0E0013FC
:10017000E66A680EE66E0F0EE66E44EC08F0E55295
:10018000E552E5526850100B0FE06950100B0CE07F
:10019000A3D8040EE66E680EE66E0F0EE66E44EC13
:1001A00008F0E552E552E5526850400B1DE06950F9
:1001B000400B1AE0010EE66EE66A000EE66EE66A95
:1001C000020EE66EE66AEBEC09F00B6E060EE15EDF
:1001D0000B50060EE66E680EE66E0F0EE66E44ECF1
:1001E00008F0E552E552E5526850200B04E06950F2
:1001F000200B01E04ED86850020B12E06950020B50
:100200000FE0010EE66EE66A000EE66EE66AE6684C
:10021000E668EBEC09F00B6E060EE15E0B506A6AC5
:10022000040E0501805D01E22FD069A62DD0DF6AA2
:10023000040EDF5C29E268A624D06CCFA0F5030E83
:10024000E66E680EE66E0F0EE66E44EC08F0E552C0
:10025000E552E552780E0501A01502E178D810D0DC
:10026000000EE66EE66AA00EE66E050EE66E010E64
:10027000E66EE66AEBEC09F00B6E060EE15E0B50E3
:1002800001D002D0DF2AD4D7E552E552E7CFD9FF1B
:10029000120070A015D083C5E9FF84C5EAFFEF50B6
:1002A00080080DE18BC5E9FF8CC5EAFFEF5084089B
:1002B00006E183C5E9FF84C5EAFF8C0EEF6E7090FE
:1002C000050EE66E680EE66E0F0EE66E44EC08F064
:1002D000E552E552E55212006984040EE66E680E9E
:1002E000E66E0F0EE66E44EC08F0E552E552E5527C
:1002F0006D82000EE66EE66AE66EE66A040EE66E53
:10030000E66AEBEC09F00B6E060EE15E0B50120094
:100310006D92000EE66EE66AE66EE66A030EE66E23
:10032000E66AEBEC09F00B6E060EE15E0B50699489
:1003300068A40CD0020EE66E680EE66E0F0EE66E36
:1003400044EC08F0E552E552E552F2D71200FD0EFA
:100350000501A01520E17E0EA015E8407F0B040DDD
:10036000F3CF83F5F4CF84F5000E8327040E8423A6
:1003700083C585F584C586F5857583C5E9FF84C584
:10038000EAFFEF503C0BE842E8420D0802E109D8D1
:1003900001D02AD805D0FD0EA015040801E12DD802
:1003A00012008BC5E9FF8CC5EAFFEF50800B05E01A
:1003B0008BC5E9FF8CC5EAFFEF6A05018F6B906B77
:1003C000946B956B936B04D9000EE66EE66AE66E4D
:1003D000E66A170EE66EE66AEBEC09F00B6E060EA7
:1003E000E15E0B5094EF04F0020E0501905D03E115
:1003F000F1EC05F001D04ED81200D9CFE6FFE1CFE5
:10040000D9FFE6528BC5E9FF8CC5EAFFEF50400BE0
:1004100001E0010EDF6E05018B75080E805D0AE1BB
:1004200022C46EFF6E50000803E2100E806F02D0EF
:10043000040E806F900528E18BC5E9FF8CC5EAFFAB
:10044000020EE926000EEA22280EEE6E040EED6E74
:100450003DDB020E05018F5D07E18BC5E9FF8CC511
:10046000EAFF840EEF6E0FD0DF5007E18BC5E9FF86
:100470008CC5EAFFC80EEF6E06D08BC5E9FF8CC5B0
:10048000EAFF880EEF6E01D005D8E552E552E7CFBE
:10049000D9FF1200D9CFE6FFE1CFD9FF030EE12645
:1004A000020E0501905D4AE16D50100B47E083C5D7
:1004B000E9FF84C5EAFFEE52EF500B6E0C6A080E9E
:1004C0000B1801E10C503AE183C5E9FF84C5EAFF4E
:1004D000EF503C0BE842E8420D0830E185C5E9FFEA
:1004E00086C5EAFFEF50800B29E185C5E9FF86C587
:1004F000EAFF020EE926000EEA22200EEE6E040E3E
:10050000ED6EDF6ADF500B6E0C6A080E0B5C000E9E
:100510000C5813E2DF50EA6A280FE96E040EEA2253
:10052000EF50E66EDF50EA6A200FE96E040EEA2211
:10053000E552E750EF6EDF2AE5D731D0906B85C5E5
:10054000E9FF86C5EAFFEE52080EEF6E85C5E9FFAA
:1005500086C5EAFF020EE926000EEA22200EEE6EA4
:10056000040EED6E85C5E9FF86C5EAFF8C0EEF6EC1
:100570008BC5E9FF8CC5EAFFEF6A040E8B190B6E81
:100580008CC50CF0010E0BC0DBFF020E0CC0DBFFB4
:10059000010EDBCFE9FF020EDBCFEAFFEF6A0501B8
:1005A00098AF0CD09B519C1107E005D09CC5FAFF79
:1005B00005019B51F96EFADF0501989F030EE15C7E
:1005C00002E2E16AE552E16EE552E7CFD9FF12009F
:1005D00004012051600BE842E842E842E842E84268
:1005E000000901E058D021510C0A54E00B0A43E005
:1005F0000C0A35E0010A26E00B0A22E0020A20E09C
:10060000030A1CE0080A10E0010A0CE00F0A08E0E7
:10061000030A01E03FD00501938F080E806F3BD0A5
:10062000C8D839D06FDB37D00501810E916F050E28
:10063000926F9381010E946F938F2DD014D92BD08C
:100640002BD829D024510501916F926B820E9127EE
:10065000050E92239381010E946F938F1CD0050198
:10066000938F04012451EA6A820FE96E050EEA2293
:1006700022C4EFFF10D0000EE66EE66AE66EE66A70
:10068000160EE66EE66AEBEC09F00B6E060EE15E06
:100690000B5001D000D01200D9CFE6FFE1CFD9FF37
:1006A000040EE1260401220510E120511F0B000970
:1006B0000CE10501938F030E0401215D04E10501A6
:1006C000010E9F6F02D005019F6B0401225167E16B
:1006D00020511F0B020863E124510F0B00095FE05A
:1006E0000501938F040124BF10D024510F0BE96E34
:1006F000EA6AD890E936EA36870EE926050EEA223C
:10070000EECFDEFFEDCFDDFF0FD024510F0BE96EF2
:10071000EA6AD890E936EA368B0EE926050EEA2217
:10072000EECFDEFFEDCFDDFF030E215D07E1DECF73
:10073000E9FFDDCFEAFF840EEF6E31D024510F0BBD
:100740000C6A700F0B6E0F0E0C22020E0BC0DBFF3B
:10075000030E0CC0DBFF020EDBCFE9FF030EDBCF85
:10076000EAFFEE90ED5224AF0DD0DECFE9FFDDCFF2
:10077000EAFFEF6ADF74DECFE9FFDDCFEAFF400E6C
:10078000EF6E0DD0DECFE9FFDDCFEAFF880EEF6E12
:10079000DF74DECFE9FFDDCFEAFFC80EEF6E040E97
:1007A000E15C02E2E16AE552E16EE552E7CFD9FF92
:1007B0001200800E0401205D55E10501C00E936F0B
:1007C00004012351030A2EE0010A0EE0030A03E0AC
:1007D0000501936B47D00501020E916F1C0E926FBD
:1007E000120E946F956B3ED02251F66EF76AD89038
:1007F000F636F736C00EF6261C0EF7220900F5CFA6
:1008000091F50A00F5CF92F5020E0501F76A9125E0
:10081000F66E9251F7220900F5CF94F50A00F5CF54
:1008200095F520D0030E225D1AE22251F66EF76A8A
:10083000D890F636F736C20EF6261C0EF7220900BF
:10084000F5CF91F50A00F5CF92F591C5F6FF92C567
:10085000F7FF0800F5500501946F956B02D0050174
:10086000936B00D01200D9CFE6FFE1CFD9FF020E83
:10087000E1260401286B296B20511F0B020A12E0AC
:10088000030A0DE0010A01E03BD00501938F04014A
:10089000288105019F0502E10401288331D005016B
:1008A000938F2ED00501938F040124BF10D02451C3
:1008B0000F0BE96EEA6AD890E936EA36870EE92628
:1008C000050EEA22EECFDEFFEDCFDDFF0FD0245183
:1008D0000F0BE96EEA6AD890E936EA368B0EE92604
:1008E000050EEA22EECFDEFFEDCFDDFFDECFE9FF22
:1008F000DDCFEAFFEF50040B02E0010E286F00D0BD
:10090000050193AF07D0280E916F040E926F93816B
:10091000020E946F020EE15C02E2E16AE552E16EC2
:10092000E552E7CFD9FF12006D98050193BF4AD079
:1009300098AF28D0020E906F8BC5E9FF8CC5EAFFF7
:10094000EE52EF6A8BC5E9FF8CC5EAFFC80EEF6E69
:1009500085C5E9FF86C5EAFFEE52080EEF6E85C534
:10096000E9FF86C5EAFF020EE926000EEA22280EFC
:10097000EE6E040EED6E85C5E9FF86C5EAFFC80E72
:10098000EF6E1FD085C5E9FF86C5EAFFEE52080E5F
:10099000EF6E85C5E9FF86C5EAFF020EE926000E67
:1009A000EA22200EEE6E040EED6E85C5E9FF86C5C7
:1009B000EAFF8C0EEF6E8BC5E9FF8CC5EAFF840E53
:1009C000EF6E83D098BF81D0040120AF56D00501CF
:1009D00094510401265D050195510401275904E253
:1009E00026C494F527C495F571D80501010E906FC2
:1009F00085C5E9FF86C5EAFFEE52080EEF6E85C594
:100A0000E9FF86C5EAFF020EE926000EEA22200E63
:100A1000EE6E040EED6E85C5E9FF86C5EAFF800E19
:100A2000EF6E83C5E9FF84C5EAFFEE52080EEF6E54
:100A300083C5E9FF84C5EAFF020EE926000EEA221B
:100A4000200EEE6E040EED6E83C5E9FF84C5EAFF4D
:100A5000800EEF6E8BC5E9FF8CC5EAFF020EE9261A
:100A6000000EEA22280EEE6E040EED6E8BC5E9FF35
:100A70008CC5EAFFC80EEF6E28D00501020E906FFC
:100A80008BC5E9FF8CC5EAFFEE52EF6A8BC5E9FF23
:100A90008CC5EAFFC80EEF6E85C5E9FF86C5EAFF83
:100AA000EE52080EEF6E85C5E9FF86C5EAFF020E1D
:100AB000E926000EEA22280EEE6E040EED6E85C5C4
:100AC000E9FF86C5EAFFC80EEF6E1200D9CFE6FF38
:100AD000E1CFD9FF020EE1260501080E945D000E5C
:100AE00095590EE294C5DEFF95C5DDFF8F5103E1F8
:100AF000010E8F6F04D08F0502E1020E8F6F03D0BD
:100B0000080EDE6EDD6A8BC5E9FF8CC5EAFFEF9249
:100B10008BC5E9FF8CC5EAFFEF908BC5E9FF8CC55B
:100B2000EAFF010EDB50EF128BC5E9FF8CC5EAFF2F
:100B3000EE52DFCFEFFF000EDB50945F010EDB5073
:100B4000955B280E9D6F040E9E6F93B121D0D9CF77
:100B5000E9FFDACFEAFFEE50ED1019E091C5F6FF9C
:100B600092C5F7FF912B000E92230800F550E66E18
:100B70009DC5E9FF9EC5EAFF9D2B000E9E23E55211
:100B8000E750EF6EDF06010E01E2DB06E0D71FD073
:100B9000D9CFE9FFDACFEAFFEE50ED1018E091C5AA
:100BA000E9FF92C5EAFF912B000E9223EF50E66E0B
:100BB0009DC5E9FF9EC5EAFF9D2B000E9E23E552D1
:100BC000E750EF6EDF06010E01E2DB06E1D7020E11
:100BD000E15C02E2E16AE552E16EE552E7CFD9FF5E
:100BE0001200D9CFE6FFE1CFD9FF020EE12683C57F
:100BF000E9FF84C5EAFFEE52EFCFDFFFDFCF0BF056
:100C00000B500501995D000E9A5903E299C5DFFF6B
:100C100009D0DF500B6E0C6A0B50995D996F0C5028
:100C20009A599A6F010EDB6ADF50F36E010EDBCF2B
:100C3000F4FFF350F45C16E2010EDB50EA6A280F71
:100C4000E96E040EEA22EF50E66E96C5E9FF97C5FD
:100C5000EAFF962B000E9723E552E750EF6E010E48
:100C6000DB2AE2D7000ED8809955000E9A5528E26B
:100C700085C5E9FF86C5EAFFEE52080EEF6E85C511
:100C8000E9FF86C5EAFF020EE926000EEA22280ED9
:100C9000EE6E040EED6E83C5E9FF84C5EAFFEF50EA
:100CA000400B07E185C5E9FF86C5EAFFC80EEF6E78
:100CB00006D085C5E9FF86C5EAFF880EEF6E18D01D
:100CC00085C5E9FF86C5EAFF020EE926000EEA2285
:100CD000200EEE6E040EED6E9B519C1107E005D0C8
:100CE0009CC5FAFF05019B51F96EFADF0501989F3B
:100CF000020EE15C02E2E16AE552E16EE552E7CF05
:100D0000D9FF12000501938F000EE66EE66AE66ACF
:100D1000710EE66E0F0EE66EB3EC0EF00B6E050E66
:100D2000E15E0B50010EE66EE66AE66A820EE66E42
:100D3000050EE66EB3EC0EF00B6E050EE15E0B5089
:100D400022C481F50401225104E10501100E806FD7
:100D500011D00501200E806F000EE66EE66AE66E89
:100D6000E66A150EE66EE66AEBEC09F00B6E060E0F
:100D7000E15E0B501200D9CFE6FFE1CFD9FF020EA2
:100D8000E126000EDE6E040EDD6EFD0EDB50E82463
:100D90000D6EFE0EDB50040DF3500D24040DF350C8
:100DA0000B6E0C6A020E0F0B05E0D8900C320B3262
:100DB000E806FBE1D8900B360C36D8900B360C3693
:100DC000D9CFE9FFDACFEAFF0B50EE260C50ED2227
:100DD000DECFE9FFDDCFEAFFEF9EFD0EDB500FE136
:100DE000FE0EEA6ADB34FE0BEA36E96E870EE92670
:100DF000050EEA22DECFEEFFDDCFEDFF0ED0FE0EB8
:100E0000EA6ADB34FE0BEA36E96E8B0EE926050E44
:100E1000EA22DECFEEFFDDCFEDFFDECFE9FFDDCF53
:100E2000EAFFEF9CDECFE9FFDDCFEAFF040EE92603
:100E3000000EEA22EF8C020EE15C02E2E16AE5526A
:100E4000E16EE552E7CFD9FF1200D9CFE6FFE1CF3F
:100E5000D9FF020EE126FE0EDB500C6A700F0B6EFE
:100E60000F0E0C220BC0DEFF0CC0DDFFDECFE9FF52
:100E7000DDCFEAFFFD0EDBCFEFFFDBA407D0E66A94
:100E8000FE0EDBCFE6FF77DFE552E552FD0EDBA27B
:100E900008D0010EE66EFE0EDBCFE6FF6CDFE552FA
:100EA000E552020EE15C02E2E16AE552E16EE552D2
:100EB000E7CFD9FF1200D9CFE6FFE1CFD9FF020E6D
:100EC000E126FE0EDB5020E185C5E9FF86C5EAFF7D
:100ED000EE52080EEF6E85C5E9FF86C5EAFF020EE9
:100EE000E926000EEA22200EEE6E040EED6E85C598
:100EF000E9FF86C5EAFF8C0EEF6E8BC5E9FF8CC556
:100F0000EAFF840EEF6E3DD0FD0EDB50E8240D6E3F
:100F1000FE0EDB50040DF3500D24040DF3CF0BF047
:100F2000F4CF0CF0000E0B26040E0C220BC0DEFFDB
:100F30000CC0DDFF840E0B6EDECFE9FFDDCFEAFFD4
:100F40000B50EF12FD0EDB50E8240D6EFE0EDB5051
:100F5000040DF3500D24010F040DF3CF0BF0F4CF6B
:100F60000CF0000E0B26040E0C220BC0DEFF0CC092
:100F7000DDFF840E0B6EDECFE9FFDDCFEAFF0B5005
:100F8000EF12020EE15C02E2E16AE552E16EE55227
:100F9000E7CFD9FF1200D9CFE6FFE1CFD9FF020E8C
:100FA000E126FD0EDB500FE0FE0EEA6ADB34FE0B9D
:100FB000EA36E96E8B0EE926050EEA22EECFDEFF59
:100FC000EDCFDDFF0ED0FE0EEA6ADB34FE0BEA3613
:100FD000E96E870EE926050EEA22EECFDEFFEDCFA1
:100FE000DDFFDECFE9FFDDCFEAFF020EE926000ECE
:100FF000EA22FB0EDBCFEEFFFC0EDBCFEDFFDECFF8
:10100000E9FFDDCFEAFFEE52FA0EDBCFEFFF400E35
:101010000B6EDECFE9FFDDCFEAFF0B50EF16880E37
:101020000B6EDECFE9FFDDCFEAFF0B50EF12FD0EB6
:10103000DB500CE0FE0EEA6ADB34FE0BEA36E96EAA
:101040008B0EE926050EEA22EF740BD0FE0EEA6A3B
:10105000DB34FE0BEA36E96E870EE926050EEA223E
:10106000EF74DECF0BF0DDCF0CF00BC0F3FF0CC044
:10107000F4FF020EE15C03E200D0E16AE552E16EAA
:10108000E552E7CFD9FF1200D9CFE6FFE1CFD9FF74
:10109000010EF36EFC0EDB5004E0D890F336E80648
:1010A000FCE1F350E81C0B6EFD0EDBCFE9FFFE0EFA
:1010B000DBCFEAFF0B50EF16E552E7CFD9FF120066
:1010C000DACFE4FFE2CFDAFFE652E552E5CFDAFF0E
:1010D0001100D8CFE4FFE0CFE4FFE46EDACFE4FF05
:1010E000E2CFDAFFE652E552E5CFDAFFE550E5CF91
:1010F000E0FFE5CFD8FF10000F0EC11216EF00F091
:10110000F00E8C1695169388938A0501A56BA66B35
:10111000A76BA86B010EA96F1200D9CFE6FFE1CF34
:10112000D9FF020EE1260501A95101E0DDD8200E0C
:101130000501805D03E36D50020B01E0A4D00501C1
:10114000A551A61102E1000E08D0A5C5E9FFA6C56C
:10115000EAFFEF50800B01E0010E000901E093D09F
:1011600005010051370A45E0B60A17E0010A01E01F
:1011700077D00501A96B8C50010B0B6E8C50020BC4
:1011800001E0010E0B5C03E18C708C7205D08CA029
:1011900002D08C8201D08C9263D0810E406F81A8E6
:1011A00003D0010E416F01D0416B0501A751A81179
:1011B00002E1000E08D0A7C5E9FFA8C5EAFFEF507D
:1011C000800B01E0010E000913E1400EE66E400EB7
:1011D000E66E050EE66E010EE66EE66ECBEC07F0EF
:1011E0000B6E050EE15E0B50F3CFA7F5F4CFA8F51B
:1011F00037D00501A751A81102E1000E08D0A7C5FC
:10120000E9FFA8C5EAFFEF50800B01E0010E0009DD
:1012100026E19280010EC26E3C0EC06EC08E3DD89B
:10122000F3CFDEFFF4CFDDFF0501370E406FDFCFD8
:1012300041F5010EDBCF42F5400EE66E400EE66E44
:10124000050EE66E010EE66EE66ECBEC07F00B6E59
:10125000050EE15E0B50F3CFA7F5F4CFA8F500D053
:10126000400EE66E000EE66E050EE66EE66A010EB4
:10127000E66ECBEC07F00B6E050EE15E0B50F3CF84
:10128000A5F5F4CFA6F5020EE15C02E2E16AE552B3
:10129000E16EE552E7CFD9FF1200D9CFE6FFE1CFEB
:1012A000D9FF020EE1269280010EC26E3C0EC06E86
:1012B000C08EC282C2B2FED7C350DF6E010EC4CF51
:1012C000DBFFDECF0BF0DDCF0CF00BC0F3FF0CC06B
:1012D000F4FF020EE15C03E200D0E16AE552E16E48
:1012E000E552E7CFD9FF12000501AA51AB1104E185
:1012F000100EAA6F270EAB6FAA07000EAB5B6DA294
:101300000AD0AA51AB1106E18C708CA002D08C825D
:1013100001D08C922ED00501805103E18C908C92EB
:1013200028D0800503E18C808C8223D0020E805D62
:1013300003E18C808C921DD0040E805D03E18C90C3
:101340008C8217D0100E805D07E10501AA51AB1108
:1013500002E18C708C920DD0200E805D0AE10501B7
:10136000AA51AB1106E18C708CA002D08C9201D0F6
:101370008C82120012001200120012008BEF0DF08E
:1013800012001E0EE66E010EE66E25EC07F0E55229
:10139000E552400EE66E000EE66E050EE66EE66A5B
:1013A000010EE66ECBEC07F00B6E050EE15E0B5006
:1013B000F3CFA5F5F4CFA6F512006D840501080E54
:1013C000BD6F070EBE6FBD07000EBE5BBD51BE11E7
:1013D000FAE16D941200D9CFE6FFE1CFD9FFFD0EFF
:1013E000DBCF06F0FE0EDBCF07F0010E061801E1A1
:1013F000075033E0E868061802E1E86807182BE0B8
:10140000030E061801E1075024E0040E061801E15E
:1014100007501DE0020E061801E1075016E0170EF6
:10142000061801E107500FE0160E061801E10750FB
:1014300008E0150E061801E1075001E010D0A1DF09
:101440000FD09EDF0DD09ADF0BD096DF09D092DF50
:1014500007D091DF05D091DF03D0000001D000D08C
:10146000010E00D0E552E7CFD9FF1200D9CFE6FF39
:10147000E1CFD9FF020EE126DE6ADD6ADECF0BF096
:10148000DDCF0CF00C3404E20B500108000E0C54BC
:101490000AE3FA0EE66ECDEC0EF0E552DF2A010EFD
:1014A00001E3DB2AEBD7020EE15C02E2E16AE552DE
:1014B000E16EE552E7CFD9FF1200D9CFE6FFE1CFC9
:1014C000D9FF020EE126928A110EC26E3C0EC06E4A
:1014D000C08EC282C2B2FED7C350DF6E010EC4CF2F
:1014E000DBFFDECF0BF0DDCF0CF00BC0F3FF0CC049
:1014F000F4FF020EE15C03E200D0E16AE552E16E26
:10150000E552E7CFD9FF1200F7DD09D86CEC00F007
:101510000501AC2B000EAD2306D8F8D71200926857
:10152000936A956A1200ECEF0AF0D9CFE6FFE1CF9B
:10153000D9FF020EE1260501AE51AC5D0B6EAD5137
:10154000AF550C6ED8900C5004E6640E0B5C000E88
:101550000C5801E237D0ACC5AEF5ADC5AFF580CFC4
:1015600040F583CF41F581CF42F5A7DFF3CFDEFF12
:10157000F4CFDDFFDFCF43F5010EDBCF44F50501EE
:10158000A751A81102E1000E08D0A7C5E9FFA8C520
:10159000EAFFEF50800B01E0010E000913E1400E5D
:1015A000E66E400EE66E050EE66E010EE66EE66E27
:1015B000CBEC07F00B6E050EE15E0B50F3CFA7F5F9
:1015C000F4CFA8F5020EE15C02E2E16AE552E16EB9
:1015D000E552E7CFD9FF1200200E0501805D03E33D
:1015E0006D50020B01E02FD00501A551A61102E1BB
:1015F000000E08D0A5C5E9FFA6C5EAFFEF50800B95
:1016000001E0010E00091EE105010051010A05E09B
:10161000010A01E004D052D902D016D800D0400E01
:10162000E66E000EE66E050EE66EE66A010EE66EEA
:10163000CBEC07F00B6E050EE15E0B50F3CFA5F57A
:10164000F4CFA6F572DF1200D9CFE6FFE1CFD9FFC4
:10165000040EE12605010151DE6EDD6A0251E66EDF
:10166000D950020FE96EDACFEAFFE552E750EE6E8D
:10167000ED6A000EDFCF06F0010EDBCF07F0280E7B
:10168000061801E1075001E108D1270E061801E113
:10169000075001E1FBD0260E061801E1075001E1D9
:1016A000EED0250E061801E1075001E1E1D0240E2D
:1016B000061801E1075001E1D4D0230E061801E11C
:1016C000075001E1C7D0220E061801E1075001E1E1
:1016D000BAD0210E061801E1075001E1ADD01E0E6F
:1016E000061801E1075001E1A0D01D0E061801E126
:1016F000075001E193D01C0E061801E1075001E1EB
:1017000086D01B0E061801E1075001E179D0160EB4
:10171000061801E107506DE0150E061801E10750AB
:1017200061E0140E061801E1075055E0130E06188B
:1017300001E1075049E0070E061801E107503DE0BE
:10174000060E061801E1075031E0050E061801E10A
:10175000075025E0040E061801E1075019E0030EBA
:10176000061801E107500DE0020E061801E10750CE
:1017700001E09AD0020EDB50E8B08080E8A08090B3
:1017800093D0020EDB50E8B08082E8A080928CD02B
:10179000020EDB50E8B08084E8A0809485D0020E71
:1017A000DB50E8B08086E8A080967ED0020EDB5049
:1017B000E8B08088E8A0809877D0020EDB50E8B0CF
:1017C000808AE8A0809A70D0020EDB50E8B0838057
:1017D000E8A0839069D0020EDB50E8B08382E8A0D5
:1017E000839262D0020EDB50E8B08384E8A0839439
:1017F0005BD0020EDB50E8B08386E8A0839654D01D
:10180000020EDB50E8B08388E8A083984DD0020E2A
:10181000DB50E8B0838AE8A0839A46D0020EDB5002
:10182000E8B0838CE8A0839C3FD0020EDB50E8B088
:10183000838EE8A0839E38D0020EDB50E8B0818012
:10184000E8A0819031D0020EDB50E8B08182E8A0A0
:1018500081922AD0020EDB50E8B08184E8A0819406
:1018600023D0020EDB50E8B08186E8A081961CD020
:10187000020EDB50E8B08188E8A0819815D0020EF6
:10188000DB50E8B0818AE8A0819A0ED0020EDB50CE
:10189000E8B0818CE8A0819C07D0020EDB50E8B054
:1018A000818EE8A0819E00D0040EE15C02E2E16A34
:1018B000E552E16EE552E7CFD9FF1200D9CFE6FF3E
:1018C000E1CFD9FF040EE12605010151DE6EDD6A8C
:1018D0000251E66ED950020FE96EDACFEAFFE55207
:1018E000E750EE6EED6A000EDFCF06F0010EDBCFA3
:1018F00007F0280E061801E1075001E1FBD0270E82
:10190000061801E1075001E1EED0260E061801E1AC
:10191000075001E1E1D0250E061801E1075001E171
:10192000D4D0240E061801E1075001E1C7D0230EE0
:10193000061801E1075001E1BAD0220E061801E1B4
:10194000075001E1ADD0210E061801E1075001E179
:10195000A0D01E0E061801E1075001E193D01D0E24
:10196000061801E1075001E186D01C0E061801E1BE
:10197000075001E179D01B0E061801E107506DE018
:10198000160E061801E1075061E0150E061801E178
:10199000075055E0140E061801E1075049E0130EF8
:1019A000061801E107503DE0060E061801E1075058
:1019B00031E0050E061801E1075025E0040E061877
:1019C00001E1075019E0030E061801E107500DE090
:1019D000020E061801E1075001E093D0020EDB5021
:1019E000E8B09280E8A092908CD0020EDB50E8B074
:1019F0009282E8A0929285D0020EDB50E8B09284E9
:101A0000E8A092947ED0020EDB50E8B09286E8A067
:101A1000929677D0020EDB50E8B09288E8A09298B8
:101A200070D0020EDB50E8B09580E8A0959069D0A8
:101A3000020EDB50E8B09582E8A0959262D0020ECB
:101A4000DB50E8B09584E8A095945BD0020EDB50A3
:101A5000E8B09586E8A0959654D0020EDB50E8B029
:101A60009588E8A095984DD0020EDB50E8B0958A95
:101A7000E8A0959A46D0020EDB50E8B0958CE8A01D
:101A8000959C3FD0020EDB50E8B0958EE8A0959E65
:101A900038D0020EDB50E8B09380E8A0939031D0AC
:101AA000020EDB50E8B09382E8A093922AD0020E97
:101AB000DB50E8B09384E8A0939423D0020EDB506F
:101AC000E8B09386E8A093961CD0020EDB50E8B0F5
:101AD0009388E8A0939815D0020EDB50E8B0938A63
:101AE000E8A0939A0ED0020EDB50E8B0938CE8A0E9
:101AF000939C07D0020EDB50E8B0938EE8A0939E33
:101B000000D0040EE15C02E2E16AE552E16EE552CA
:061B1000E7CFD9FF12002F
:0A1B1600040120511F0B010801E03B
:101B20006DD0245101E06AD0060E215D28E12351D9
:101B3000230A21E0010A11E0030A01E020D0050197
:101B400081050AE10501260E916F1C0E926F090EA8
:101B5000946F956BC00E936F12D0050181050AE159
:101B60000501A30E916F1C0E926F1D0E946F956B65
:101B7000C00E936F04D00501800E936F00D0040156
:101B80002051600BE842E842E842E842E84201089E
:101B900001E034D021510B0A2BE0080A1EE0090AAB
:101BA00016E0080A09E00B0A05E0080A01E026D061
:101BB00026D824D025D822D00501BA0E916F050E63
:101BC000926F010E946F956BC10E936F17D0050144
:101BD000800E936F23C4BAF511D00501BB0E916F2F
:101BE000050E926F010E946F956B810E936F06D068
:101BF0000501800E936F22C4BBF500D012001200C5
:021C00001200D0
:0E1C02001201100100000008D8043F0002008B
:101C10000102000109022900010100C0320904008B
:101C2000000203000000092100010001221D00073D
:101C30000581034000010705010340000104030979
:101C40000434034D006900630072006F0063006894
:101C50000069007000200054006500630068006E99
:101C6000006F006C006F0067007900200049006E73
:101C70000063002E002E034D0065006E00640069B5
:101C8000006500740061002000760065007200733A
:101C90000069006F006E00200031002E0030002E21
:101CA0000030000600FF0901A101190129401500BB
:101CB00026FF00750895408102190129409102C054
:081CC000141C3D1C411C751CA5
:081CC8001E0EF66E000EF76E11
:101CD000000EF86E05010900F550B56F0900F550CA
:101CE000B66F03E1B56701D03DD00900F550B06F84
:101CF0000900F550B16F0900F550B26F09000900F5
:101D0000F550E96E0900F550EA6E09000900090076
:101D1000F550B36F0900F550B46F09000900F6CF14
:101D2000B7F5F7CFB8F5F8CFB9F5B0C5F6FFB1C53F
:101D3000F7FFB2C5F8FF0501B35302E1B45307E062
:101D40000900F550EE6EB307F8E2B407F9D7B7C54E
:101D5000F6FFB8C5F7FFB9C5F8FF0501B507000ED6
:061D6000B65BBFD71200C4
:0A1D6600FE0EE3CFE9FFFF0EE3CF0E
:101D7000EAFFE9CFF3FFEACFF4FFFB0EE35003E104
:101D8000FC0EE35009E0FB0EE30602E2FC0EE30664
:0A1D9000FD0EE350EE6EF1D71200D5
:061D9A00FF0EE3500F6E86
:101DA000EF0E01D0F30EE76EE72ED4EF0EF00C0E1F
:101DB0000E6EE76AE72EDAEF0EF00E2ED9EF0EF078
:081DC0000F2ED2EF0EF012000D
:081DC800000EF36E00EE00F0C6
:101DD000080E01D81200EA6002D0EE6AFCD7F35078
:081DE000E9601200EE6AFCD775
:081DE80013EE00F023EE00F001
:101DF000F86A0A9C64EC0EF003EC00F084EC0AF044
:041E0000FBD71200FA
:0B1E04000000000001000000000000D2
:020000040030CA
:0100000024DB
:010001000EF0
:010002003FBE
:010003001EDE
:010005008179
:010006008178
:010008000FE8
:01000900C036
:01000A000FE6
:01000B00E014
:01000C000FE4
:01000D0040B2
:00000001FF
