:020000040000FA
:0600000045EF19F01200AB
:020006001200E6
:060008001AEF09F01200DE
:02000E000000F0
:050010000000010000EA
:060018006BEF09F012007D
:02001E000200DE
:100020000E000000DF05000007000000A6320000FF
:08003000800500003000000013
:080038000501802B000E81235D
:100040001200D9CFE6FFE1CFD9FF020EE126FD0E67
:10005000DBCF14F0FE0EDBCF15F0D890143615363A
:10006000D89014361536010E1410C26E3C0EC06EB8
:10007000C08EC282C2B2FED7C350DF6E010EC4CFA3
:10008000DBFFDECF14F0DDCF15F014C0F3FF15C099
:10009000F4FF020EE15C03E200D0E16AE552E16E9A
:1000A000E552E7CFD9FF1200D9CFE6FFE1CFD9FF64
:1000B000020EE12605018251805D146E8151835547
:1000C000156ED890155004E6640E145C000E155899
:1000D00001E226D080C582F581C583F58050E66EA9
:1000E000000EE66EE66A16EC15F0E552E552E552B2
:1000F0008350E66E010EE66EE66A16EC15F0E552E8
:10010000E552E5528150E66E020EE66EE66A16ECA6
:1001100015F0E552E552E5525EEC04F02BEC15F0DB
:10012000020EE15C02E2E16AE552E16EE552E7CFE0
:10013000D9FF1200200E0501B05D03E36D50020BE4
:1001400001E02BD04FEC15F0000926E0000EE66E22
:10015000E66A64EC15F0E552E552050A18E0010A7A
:1001600013E0070A0EE0010A09E0030A05E0010AAC
:1001700001E010D0DBD90ED011D80CD0C0EC05F0C6
:1001800009D031EC06F006D0ECEC07F003D067ECB8
:1001900008F000D078EC15F087DF1200D9CFE6FF29
:1001A000E1CFD9FF040EE126010EE66EE66A64ECAB
:1001B00015F0E552E552DE6EDD6A020EE66EE66A85
:1001C00064EC15F0E552E552E66ED950020FE96E87
:1001D000DACFEAFFE552E750EE6EED6A000EDFCFB0
:1001E00008F0010EDBCF09F0280E081801E10950D4
:1001F00001E18BD1270E081801E1095001E17ED100
:10020000260E081801E1095001E171D1250E0818E8
:1002100001E1095001E164D1240E081801E10950FF
:1002200001E157D1230E081801E1095001E14AD13B
:10023000220E081801E1095001E13DD1210E0818F4
:1002400001E1095001E130D11E0E081801E1095009
:1002500001E123D11D0E081801E1095001E116D179
:100260001C0E081801E1095001E109D11B0E081804
:1002700001E1095001E1FCD01A0E081801E1095012
:1002800001E1EFD0190E081801E1095001E1E2D0B7
:10029000180E081801E1095001E1DBD0170E08180B
:1002A00001E1095001E1D4D0160E081801E109500E
:1002B00001E1C7D0150E081801E1095001E1BAD0DB
:1002C000140E081801E1095001E1ADD0130E081811
:1002D00001E1095001E1A0D0110E081801E1095017
:1002E00001E193D0100E081801E1095001E186D018
:1002F0000F0E081801E1095001E179D00E0E08181F
:1003000001E109506DE00A0E081801E1095061E0B1
:10031000090E081801E1095055E0080E081801E11E
:10032000095049E0070E081801E109503DE0060EAA
:10033000081801E1095031E0050E081801E10950E3
:1003400025E0040E081801E1095019E0030E081811
:1003500001E109500DE0020E081801E1095001E029
:10036000DBD0020EDB50E8B08980E8A08990D4D0C1
:10037000020EDB50E8B08982E8A08992CDD0020E4F
:10038000DB50E8B08984E8A08994C6D0020EDB5027
:10039000E8B08986E8A08996BFD0020EDB50E8B0AD
:1003A0008988E8A08998B8D0020EDB50E8B0898A25
:1003B000E8A0899AB1D0020EDB50E8B08D80E8A0A9
:1003C0008D90AAD0020EDB50E8B08D82E8A08D920D
:1003D000A3D0020EDB50E8B08D84E8A08D949CD0B1
:1003E000020EDB50E8B0898CE8A0899C95D0020E03
:1003F000DB50E8B08B80E8A08B908ED0020EDB50F3
:10040000E8B08B82E8A08B9287D0020EDB50E8B078
:100410008B84E8A08B9480D0020EDB50E8B08C80F7
:10042000E8A08C9079D0020EDB50E8B08C82E8A076
:100430008C9272D0020EDB50E8B08C84E8A08C94D1
:100440006BD0020EDB50E8B08C86E8A08C9664D0AE
:1004500063D062D0020EDB50E8B08B8CE8A08B9C9E
:100460005BD0020EDB50E8B08B8EE8A08B9E54D0A0
:10047000020EDB50E8B08C88E8A08C984DD0020EBC
:10048000DB50E8B08C8AE8A08C9A46D0020EDB5094
:10049000E8B08C8CE8A08C9C3FD0020EDB50E8B01A
:1004A0008C8EE8A08C9E38D0020EDB50E8B08A809B
:1004B000E8A08A9031D0020EDB50E8B08A82E8A032
:1004C0008A922AD0020EDB50E8B08A84E8A08A948F
:1004D00023D0020EDB50E8B08A86E8A08A961CD0B2
:1004E000020EDB50E8B08A88E8A08A9815D0020E88
:1004F000DB50E8B08A8AE8A08A9A0ED0020EDB5060
:10050000E8B08A8CE8A08A9C07D0020EDB50E8B0E5
:100510008A8EE8A08A9E00D0040EE15C02E2E16AC5
:10052000E552E16EE552E7CFD9FF1200D9CFE6FFE1
:10053000E1CFD9FF040EE126010EE66EE66A64EC17
:1005400015F0E552E552DE6EDD6A020EE66EE66AF1
:1005500064EC15F0E552E552E66ED950020FE96EF3
:10056000DACFEAFFE552E750EE6EED6A000EDFCF1C
:1005700008F0010EDBCF09F0280E081801E1095040
:1005800001E18BD1270E081801E1095001E17ED16C
:10059000260E081801E1095001E171D1250E081855
:1005A00001E1095001E164D1240E081801E109506C
:1005B00001E157D1230E081801E1095001E14AD1A8
:1005C000220E081801E1095001E13DD1210E081861
:1005D00001E1095001E130D11E0E081801E1095076
:1005E00001E123D11D0E081801E1095001E116D1E6
:1005F0001C0E081801E1095001E109D11B0E081871
:1006000001E1095001E1FCD01A0E081801E109507E
:1006100001E1EFD0190E081801E1095001E1E2D023
:10062000180E081801E1095001E1DBD0170E081877
:1006300001E1095001E1D4D0160E081801E109507A
:1006400001E1C7D0150E081801E1095001E1BAD047
:10065000140E081801E1095001E1ADD0130E08187D
:1006600001E1095001E1A0D0110E081801E1095083
:1006700001E193D0100E081801E1095001E186D084
:100680000F0E081801E1095001E179D00E0E08188B
:1006900001E109506DE00A0E081801E1095061E01E
:1006A000090E081801E1095055E0080E081801E18B
:1006B000095049E0070E081801E109503DE0060E17
:1006C000081801E1095031E0050E081801E1095050
:1006D00025E0040E081801E1095019E0030E08187E
:1006E00001E109500DE0020E081801E1095001E096
:1006F000DBD0020EDB50E8B09280E8A09290D4D01C
:10070000020EDB50E8B09282E8A09292CDD0020EA9
:10071000DB50E8B09284E8A09294C6D0020EDB5081
:10072000E8B09286E8A09296BFD0020EDB50E8B007
:100730009288E8A09298B8D0020EDB50E8B0928A76
:10074000E8A0929AB1D0020EDB50E8B09680E8A003
:100750009690AAD0020EDB50E8B09682E8A096925E
:10076000A3D0020EDB50E8B09684E8A096949CD00B
:10077000020EDB50E8B0928CE8A0929C95D0020E5D
:10078000DB50E8B09480E8A094908ED0020EDB504D
:10079000E8B09482E8A0949287D0020EDB50E8B0D3
:1007A0009484E8A0949480D0020EDB50E8B0958049
:1007B000E8A0959079D0020EDB50E8B09582E8A0D1
:1007C000959272D0020EDB50E8B09584E8A0959423
:1007D0006BD0020EDB50E8B09586E8A0959664D009
:1007E00063D062D0020EDB50E8B0948CE8A0949CF9
:1007F0005BD0020EDB50E8B0948EE8A0949E54D0FB
:10080000020EDB50E8B09588E8A095984DD0020E16
:10081000DB50E8B0958AE8A0959A46D0020EDB50EE
:10082000E8B0958CE8A0959C3FD0020EDB50E8B074
:10083000958EE8A0959E38D0020EDB50E8B09380EC
:10084000E8A0939031D0020EDB50E8B09382E8A08C
:1008500093922AD0020EDB50E8B09384E8A09394E0
:1008600023D0020EDB50E8B09386E8A093961CD00C
:10087000020EDB50E8B09388E8A0939815D0020EE2
:10088000DB50E8B0938AE8A0939A0ED0020EDB50BA
:10089000E8B0938CE8A0939C07D0020EDB50E8B040
:1008A000938EE8A0939E00D0040EE15C02E2E16A20
:1008B000E552E16EE552E7CFD9FF1200D9CFE6FF4E
:1008C000E1CFD9FF020EE12692A018D0000EE66E0D
:1008D000E66A21EC00F0E552E552F3CFDEFFF4CFFB
:1008E000DDFFDECFE6FFDDCFE6FF030EE66EE66A54
:1008F0008CEC15F0E552E552E552E55292A218D083
:10090000010EE66EE66A21EC00F0E552E552F3CF07
:10091000DEFFF4CFDDFFDECFE6FFDDCFE6FF050E25
:10092000E66EE66A8CEC15F0E552E552E552E552CA
:1009300092A418D0020EE66EE66A21EC00F0E552B1
:10094000E552F3CFDEFFF4CFDDFFDECFE6FFDDCFF4
:10095000E6FF070EE66EE66A8CEC15F0E552E5520E
:10096000E552E55292A618D0030EE66EE66A21EC37
:1009700000F0E552E552F3CFDEFFF4CFDDFFDECF2E
:10098000E6FFDDCFE6FF090EE66EE66A8CEC15F0B9
:10099000E552E552E552E55292AA18D0040EE66EF1
:1009A000E66A21EC00F0E552E552F3CFDEFFF4CF2A
:1009B000DDFFDECFE6FFDDCFE6FF0B0EE66EE66A7B
:1009C0008CEC15F0E552E552E552E55296A018D0B0
:1009D000050EE66EE66A21EC00F0E552E552F3CF33
:1009E000DEFFF4CFDDFFDECFE6FFDDCFE6FF0D0E4D
:1009F000E66EE66A8CEC15F0E552E552E552E552FA
:100A000096A218D0060EE66EE66A21EC00F0E552DA
:100A1000E552F3CFDEFFF4CFDDFFDECFE6FFDDCF23
:100A2000E6FF0F0EE66EE66A8CEC15F0E552E55235
:100A3000E552E55296A418D0070EE66EE66A21EC60
:100A400000F0E552E552F3CFDEFFF4CFDDFFDECF5D
:100A5000E6FFDDCFE6FF110EE66EE66A8CEC15F0E0
:100A6000E552E552E552E55293A418D0080EE66E21
:100A7000E66A21EC00F0E552E552F3CFDEFFF4CF59
:100A8000DDFFDECFE6FFDDCFE6FF130EE66EE66AA2
:100A90008CEC15F0E552E552E552E55293A618D0DC
:100AA000090EE66EE66A21EC00F0E552E552F3CF5E
:100AB000DEFFF4CFDDFFDECFE6FFDDCFE6FF150E74
:100AC000E66EE66A8CEC15F0E552E552E552E55229
:100AD00093A218D00A0EE66EE66A21EC00F0E55209
:100AE000E552F3CFDEFFF4CFDDFFDECFE6FFDDCF53
:100AF000E6FF170EE66EE66A8CEC15F0E552E5525D
:100B0000E552E55293A818D00B0EE66EE66A21EC8A
:100B100000F0E552E552F3CFDEFFF4CFDDFFDECF8C
:100B2000E6FFDDCFE6FF190EE66EE66A8CEC15F007
:100B3000E552E552E552E55293A018D00C0EE66E50
:100B4000E66A21EC00F0E552E552F3CFDEFFF4CF88
:100B5000DDFFDECFE6FFDDCFE6FF1B0EE66EE66AC9
:100B60008CEC15F0E552E552E552E552020EE15CDF
:100B700002E2E16AE552E16EE552E7CFD9FF1200E9
:100B8000D9CFE6FFE1CFD9FF080EE126010EE66ED0
:100B9000E66A64EC15F0E552E552DE6EDD6A020E9F
:100BA000E66EE66A64EC15F0E552E552E66ED95061
:100BB000020FE96EDACFEAFFE552E750EE6EED6A1A
:100BC000030EE66EE66A64EC15F0E552E552E66E59
:100BD000D950040FE96EDACFEAFFE552E750EE6E26
:100BE000ED6A040EDBCF16F0050EDBCF17F016C052
:100BF00017F0166A020EDB501610146E030EDB504F
:100C00001710156E060E14C0DBFF070E15C0DBFFB4
:100C1000000EDFCF08F0010EDBCF09F0220E08181E
:100C200001E109500DE0210E081801E1095001E031
:100C30000ED0060EDBCF84F5070EDBCF85F507D08F
:100C4000060EDBCF86F5070EDBCF87F500D0080E4A
:100C5000E15C02E2E16AE552E16EE552E7CFD9FFDD
:100C60001200D9CFE6FFE1CFD9FF040EE126010E35
:100C7000E66EE66A64EC15F0E552E552DE6EDD6A7A
:100C8000020EE66EE66A64EC15F0E552E552E66E99
:100C9000D950020FE96EDACFEAFFE552E750EE6E67
:100CA000ED6A000EDFCF08F0010EDBCF09F0220E57
:100CB000081801E109500AE0210E081801E1095065
:100CC00001E008D0020EDBCF8CF504D0020EDBCFA2
:100CD0008DF500D0040EE15C02E2E16AE552E16EBE
:100CE000E552E7CFD9FF1200D9CFE6FFE1CFD9FF18
:100CF000FD0EDBCFE9FFFE0EDBCFEAFFD890E93631
:100D0000EA36930EE926050EEA22EE50ED1001E0D8
:100D10005FD1D950FB0FE96EFF0EDA20EA6EEE507C
:100D2000ED1020E1FD0EDBCFE9FFFE0EDBCFEAFF89
:100D3000D890E936EA368F0EE926050EEA22EE6AE9
:100D4000ED6AFD0EDBCFE9FFFE0EDBCFEAFFD890A8
:100D5000E936EA36930EE926050EEA220F0EEE6E0C
:100D6000ED6AB2D0FB0EDBCF14F0FC0EDBCF15F03A
:100D7000153404E214500008000E155415E2FD0E5F
:100D8000DBCFE9FFFE0EDBCFEAFFD890E936EA368B
:100D90008F0EE926050EEA22EECF16F0EFCF17F000
:100DA0000001800E171422E1FB0EDBCF18F0FC0EC1
:100DB000DBCF19F00001800E191428E0FD0EDBCF07
:100DC000E9FFFE0EDBCFEAFFD890E936EA368F0E58
:100DD000E926050EEA22EECF1AF0EFCF1BF01B3406
:100DE00004E21A500008000E1B5410E2FD0EDBCF87
:100DF000E9FFFE0EDBCFEAFFD890E936EA36930E24
:100E0000E926050EEA220F0EEE6EED6AFB0EDBCF31
:100E100018F0FC0EDBCF19F0193404E2185000086A
:100E2000000E195402E2010E01D0FF0E166E176A71
:100E300016BE1768F90EDBCF08F0FA0EDBCF09F00B
:100E400016C00DF017C00EF06FEC18F006C014F0CD
:100E500007C015F0FD0EDBCFE9FFFE0EDBCFEAFF8A
:100E6000D890E936EA368F0EE926050EEA2214C03C
:100E7000EEFF15C0EDFFF90EDBCF14F0FA0EDBCF5D
:100E800015F0FF0ED8801456000E1556140E0D6E78
:100E90000E6A14C008F015C009F049EC18F008C03B
:100EA00014F009C015F0FD0EDBCFE9FFFE0EDBCF1D
:100EB000EAFFD890E936EA36970EE926050EEA22CF
:100EC00014C0EEFF15C0EDFFFD0EDBCFE9FFFE0EF7
:100ED000DBCFEAFFD890E936EA368F0EE926050E19
:100EE000EA22EE50ED100CE1FD0EDBCFE9FFFE0E25
:100EF000DBCFEAFF8C0EE926050EEA22EF6A68D006
:100F0000FD0EDBCFE9FFFE0EDBCFEAFFD890E9361E
:100F1000EA368F0EE926050EEA22EECF14F0EFCF67
:100F200015F00001800E15141EE0FD0EDBCFE9FF69
:100F3000FE0EDBCFEAFFD890E936EA36840EE926CA
:100F4000050EEA22F40EEE6E010EED6EFD0EDBCF05
:100F5000E9FFFE0EDBCFEAFF8C0EE926050EEA2242
:100F6000010EEF6E35D0FD0EDBCFE9FFFE0EDBCFBD
:100F7000EAFFD890E936EA368F0EE926050EEA2216
:100F8000EECF14F0EFCF15F0153404E21450000842
:100F9000000E15541DE2FD0EDBCFE9FFFE0EDBCF88
:100FA000EAFFD890E936EA36840EE926050EEA22F1
:100FB000C40EEE6E090EED6EFD0EDBCFE9FFFE0EE8
:100FC000DBCFEAFF8C0EE926050EEA22010EEF6E5A
:100FD000E552E7CFD9FF1200D9CFE6FFE1CFD9FF25
:100FE000060EE126010EE66EE66A64EC15F0E552A7
:100FF000E552DE6EDD6A020EE66EE66A64EC15F01E
:10100000E552E552E66ED950020FE96EDACFEAFFFB
:10101000E552E750EE6EED6A030EE66EE66A64ECAA
:1010200015F0E552E552E66ED950040FE96EDACFBD
:10103000EAFFE552E750EE6EED6A020EDB06030EA4
:1010400001E2DB06000EDFCF08F0010EDBCF09F076
:10105000220E081801E109501BE0210E081801E1D9
:10106000095001E02AD0040EDBCFE6FF050EDBCFEE
:10107000E6FF020EDBCFE6FF030EDBCFE6FF000E3E
:10108000E66EE66A31DE146E060EE15E145015D08F
:10109000040EDBCFE6FF050EDBCFE6FF020EDBCF53
:1010A000E6FF030EDBCFE6FF010EE66EE66A1CDE0E
:1010B000146E060EE15E145000D0060EE15C02E2F2
:1010C000E16AE552E16EE552E7CFD9FF1200D9CFD0
:1010D000E6FFE1CFD9FF080EE126010EE66EE66AD3
:1010E00064EC15F0E552E552DE6EDD6A020EE66E46
:1010F000E66A64EC15F0E552E552E66ED950020F4F
:10110000E96EDACFEAFFE552E750EE6EED6A030EC4
:10111000E66EE66A64EC15F0E552E552E66ED950EB
:10112000040FE96EDACFEAFFE552E750EE6EED6AA2
:10113000040EDBCF16F0050EDBCF17F016C017F04C
:10114000166A020EDB501610146E030EDB501710D9
:10115000156E060E14C0DBFF070E15C0DBFF000E78
:10116000DFCF08F0010EDBCF09F0250E081801E1F2
:1011700009502EE0280E081801E1095001E050D076
:10118000060EDBCF14F0070EDBCF15F0050E145C56
:10119000000E155804E20501AD6B8A9E12D0D9509D
:1011A000060FE96EDACFEAFFB30ED880EE540B0ECD
:1011B000ED5404E20501AD6B8A8E03D00501010EEA
:1011C000AD6F060EDBCFA5F5070EDBCFA6F528D059
:1011D000060EDBCF14F0070EDBCF15F0050E145C06
:1011E000000E155804E20501AE6B8A9812D0D95052
:1011F000060FE96EDACFEAFFB30ED880EE540B0E7D
:10120000ED5404E20501AE6B8A8803D00501010E9E
:10121000AE6F060EDBCFA7F5070EDBCFA8F500D02B
:10122000080EE15C02E2E16AE552E16EE552E7CFC9
:10123000D9FF1200DACFE4FFE2CFDAFFE9CFE4FF13
:10124000EACFE4FFF6CFE4FFF7CFE4FFF5CFE4FF0A
:10125000F3CFE4FFF4CFE4FFFACFE4FF00EE00F0B9
:10126000140EE80403E3EECFE4FFFBD700EE14F026
:101270000F0EE80403E3EECFE4FFFBD7E652F2A43F
:1012800002D03ADBF2949EA002D038D89E90E5526C
:1012900000EE22F00F0EE80403E3E5CFEDFFFBD7ED
:1012A00000EE13F0140EE80403E3E5CFEDFFFBD7E7
:1012B000E5CFFAFFE5CFF4FFE5CFF3FFE5CFF5FF8C
:1012C000E5CFF7FFE5CFF6FFE5CFEAFFE5CFE9FF92
:1012D000E5CFDAFF1100D8CFE4FFE0CFE4FFE46E02
:1012E000DACFE4FFE2CFDAFFE652E552E5CFDAFFEC
:1012F000E550E5CFE0FFE5CFD8FF1000D9CFE6FFFE
:10130000E1CFD9FF020EE1260501AF51020A01E14A
:10131000A1D0030A3BE0010A01E0D2D0AD5101E0C7
:101320008A8EAE5101E08A88A5C5A9F5A6C5AAF5A1
:10133000A7C5ABF5A8C5ACF5176A186A010E196EFA
:10134000A651A819E8AE02D0A83504D0A751A55DD2
:10135000A851A65905E2A5C51AF0A6C51BF004D0F0
:10136000A7C51AF0A8C51BF01C6A1BBE1C681A5042
:10137000175C146E1B501858156E1C501958166EB9
:1013800014C0DEFF15C0DDFFAF2B9AD0AA51AC19F7
:10139000E8AE02D0AC3504D0AB51A95DAC51AA592E
:1013A0002CE2AD5101E08A9E1A6A1B6A010E1C6E86
:1013B000ABC51DF0ACC51EF01F6A1EBE1F681D50D8
:1013C0001A5C176E1E501B58186E1F501C58196E51
:1013D000A9C520F0AAC521F0226A21BE22681750B3
:1013E0002024146E18502120156E19502220166EDC
:1013F00014C0DEFF15C0DDFF2BD0AE5101E08A988E
:101400001A6A1B6A010E1C6EA9C51DF0AAC51EF042
:101410001F6A1EBE1F681D501A5C176E1E501B5897
:10142000186E1F501C58196EABC520F0ACC521F0CA
:10143000226A21BE226817502024146E18502120E1
:10144000156E19502220166E14C0DEFF15C0DDFF88
:10145000AF2B36D0AA51AC19E8AE02D0AC3504D0CF
:10146000AB51A95DAC51AA5915E3AD5101E08A9E7B
:10147000A9C514F0AAC515F0166A15BE1668480E5F
:101480001426F40E1522000E162214C0DEFF15C01D
:10149000DDFF14D0AE5101E08A98ABC514F0ACC5A5
:1014A00015F0166A15BE1668480E1426F40E15229D
:1014B000000E162214C0DEFF15C0DDFFAF6B00D09A
:1014C000DECF14F0DDCF15F015C014F0156A1450FE
:1014D000CF6EDECF14F0DDCF15F01450CE6E020EBD
:1014E000E15C02E2E16AE552E16EE552E7CFD9FF45
:1014F0001200D9CFE6FFE1CFD9FFE652DF6AFD0E39
:10150000DBCFE9FFFE0EDBCFEAFF8C0EE926050EEE
:10151000EA22EF0401E033D1FD0EDBCFE9FFFE0E3E
:10152000DBCFEAFFD890E936EA36930EE926050EBE
:10153000EA22EE50ED1001E022D1FD0EDBCFE9FFF3
:10154000FE0EDBCFEAFFD890E936EA36970EE926A1
:10155000050EEA22EE50ED102FE0FD0EDBCFE9FF85
:10156000FE0EDBCFEAFFD890E936EA369F0EE92679
:10157000050EEA22EE50ED1001E001D1FD0EDBCFA9
:10158000E9FFFE0EDBCFEAFFD890E936EA369B0E84
:10159000E926050EEA22EECF14F0EFCF15F0050193
:1015A0001550A419E8AE02D0A43504D0A351145CA0
:1015B000A451155801E3E3D0FD0EDBCFE9FFFE0E89
:1015C000DBCFEAFFD890E936EA369B0EE926050E16
:1015D000EA22EECF14F0EFCF15F0010E1426000E24
:1015E0001522FD0EDBCFE9FFFE0EDBCFEAFFD89020
:1015F000E936EA369B0EE926050EEA2214C0EEFF14
:1016000015C0EDFFFD0EDBCFE9FFFE0EDBCFEAFFDD
:10161000D890E936EA369F0EE926050EEA22EE6AF0
:10162000ED6AFD0EDBCF08F0FE0EDBCF09F0010EF8
:10163000081801E1095016E0085001E1095005E0E1
:10164000B40EF36EE20EF46E52D1010E146E8A5097
:10165000010B145CE8B08A80E8A08A908A50010BE4
:10166000DF6E11D0010E146E8A50020B01E0010EE4
:10167000145CE8B08A82E8A08A928A50020B01E0EA
:10168000010EDF6E00D0DF5050E0FD0EDBCFE9FF32
:10169000FE0EDBCFEAFFD890E936EA36840EE92663
:1016A000050EEA22EECF14F0EFCF15F0FD0EDBCFE2
:1016B000E9FFFE0EDBCFEAFFD890E936EA36880E66
:1016C000E926050EEA2214C0EEFF15C0EDFF176AE9
:1016D000186A010E196EFD0EDBCFE9FFFE0EDBCF9F
:1016E000EAFFD890E936EA36840EE926050EEA22AA
:1016F000EECF1AF0EFCF1BF0030E1B02F3CF1BF05F
:101700001A02F3CF1AF0F4501B261C6A1A50175C09
:10171000146E1B501858156E1C501958166E14C0B4
:10172000F3FF15C0F4FFE3D0E2D005018E29070BCB
:101730008E6FFD0EDBCFE9FFFE0EDBCFEAFFD89008
:10174000E936EA36880EE926050EEA22EECF14F0D5
:10175000EFCF15F0030E1502F3CF15F01402F3CFFF
:1017600014F0F4501526166AB40E1426E20E152253
:10177000000E162214C0F3FF15C0F4FFB8D0FD0E02
:10178000DBCFE9FFFE0EDBCFEAFFD890E936EA3681
:10179000930EE926050EEA22EECF14F0EFCF15F0F6
:1017A000153404E214500008000E155425E2FD0E15
:1017B000DBCFE9FFFE0EDBCFEAFFD890E936EA3651
:1017C000930EE926050EEA22EECF14F0EFCF15F0C6
:1017D0001406000E155AFD0EDBCFE9FFFE0EDBCF1F
:1017E000EAFFD890E936EA36930EE926050EEA229A
:1017F00014C0EEFF15C0EDFFFD0EDBCFE9FFFE0EBE
:10180000DBCFEAFFD890E936EA369F0EE926050ECF
:10181000EA22EECF14F0EFCF15F0FD0EDBCFE9FF9B
:10182000FE0EDBCFEAFFD890E936EA36970EE926BE
:10183000050EEA22EECF16F0EFCF17F0155017186D
:10184000E8AE02D0173404D01650145C1750155867
:1018500036E2FD0EDBCFE9FFFE0EDBCFEAFFD890CC
:10186000E936EA369F0EE926050EEA22EECF14F09D
:10187000EFCF15F0010E1426000E1522FD0EDBCF62
:10188000E9FFFE0EDBCFEAFFD890E936EA369F0E7D
:10189000E926050EEA2214C0EEFF15C0EDFFFD0E8D
:1018A000DBCFE9FFFE0EDBCFEAFFD890E936EA3660
:1018B0009B0EE926050EEA22EE6AED6A0FD0FD0EB8
:1018C000DBCFE9FFFE0EDBCFEAFFD890E936EA3640
:1018D0009F0EE926050EEA22EE6AED6A05018E29C1
:1018E000070B8E6FB40EF36EE20EF46E00D0E5526D
:1018F000E552E7CFD9FF1200D9CFE6FFE1CFD9FFFC
:10190000020EE12605018E51020A25E0010A23E0BC
:10191000070A21E0010A1FE0030A1DE0010A1BE09B
:10192000060A0EE0010A01E01ED0000EE66EE66A2D
:10193000E0DDE552E552F3CFDEFFF4CFDDFF13D05B
:10194000010EE66EE66AD5DDE552E552F3CFDEFF25
:10195000F4CFDDFF08D0B40EDE6EE20EDD6E8E2910
:10196000070B8E6F00D0DECF14F0DDCF15F015C061
:1019700014F0156A1450D76EDECF14F0DDCF15F0D9
:101980001450D66E020EE15C02E2E16AE552E16EAD
:08199000E552E7CFD9FF120078
:08199800D9CFE6FFE1CFD9FF32
:1019A000E6526A6A686A9F0E6B6EFB0E696E6D8CFA
:1019B0006D9C6E6A000EE66EE66AE66A710EE66E71
:1019C0000F0EE66EEBEC18F0146E050EE15E14508F
:1019D000DF6ADF50146E156A080E145C000E15588D
:1019E00010E2DF50040DF3CFE9FFF4CFEAFF000E61
:1019F000E926040EEA22EE6AEE6AEE6AEE6ADF2A51
:101A0000E8D7160E706E68A60CD0030EE66E680E50
:101A1000E66E0F0EE66EFAEC14F0E552E552E55272
:101A2000F2D70501C36BC86BC96BCA6B6D98080E02
:101A3000BB6F040EBC6FB16BB06BE552E552E7CFE4
:101A4000D9FF1200D9CFE6FFE1CFD9FFE652A19A24
:101A50000501B05111E105D06D6A696A0501B06BED
:101A6000C9D06D6A696A6DB602D06D86FCD7050172
:101A7000010EB06F160E6F6EB00508E16DBA06D09C
:101A8000686A696A69806988020EB06F6850040BE1
:101A90000FE06950040B0CE0020EE66E680EE66E75
:101AA0000F0EE66EFAEC14F0E552E552E552E6D878
:101AB0006DB2A0D06850010B1BE06950010B18E01B
:101AC0006BDF0501040EB06F0401200E026F040EDF
:101AD000036F080E016F006B8C0E0013E66A680E30
:101AE000E66E0F0EE66EFAEC14F0E552E552E552A2
:101AF0006850100B0FE06950100B0CE0A3D8040ED7
:101B0000E66E680EE66E0F0EE66EFAEC14F0E55225
:101B1000E552E5526850400B1DE06950400B1AE059
:101B2000010EE66EE66A000EE66EE66A020EE66EEC
:101B3000E66A25EC17F0146E060EE15E1450060EF0
:101B4000E66E680EE66E0F0EE66EFAEC14F0E552E5
:101B5000E552E5526850200B04E06950200B01E08B
:101B60004ED86850020B12E06950020B0FE0010ED4
:101B7000E66EE66A000EE66EE66AE668E66825EC62
:101B800017F0146E060EE15E14506A6A040E050129
:101B9000B05D01E22FD069A62DD0DF6A040EDF5CB4
:101BA00029E268A624D06CCFD0F5030EE66E680E4D
:101BB000E66E0F0EE66EFAEC14F0E552E552E552D1
:101BC000780E0501D01502E178D810D0000EE66E2F
:101BD000E66AD00EE66E050EE66E010EE66EE66A69
:101BE00025EC17F0146E060EE15E145001D002D001
:101BF000DF2AD4D7E552E552E7CFD9FF120070A013
:101C000015D0B3C5E9FFB4C5EAFFEF5080080DE178
:101C1000BBC5E9FFBCC5EAFFEF50840806E1B3C5C8
:101C2000E9FFB4C5EAFF8C0EEF6E7090050EE66E0C
:101C3000680EE66E0F0EE66EFAEC14F0E552E55211
:101C4000E55212006984040EE66E680EE66E0F0E11
:101C5000E66EFAEC14F0E552E552E5526D82000EA4
:101C6000E66EE66AE66EE66A040EE66EE66A25EC65
:101C700017F0146E060EE15E145012006D92000E05
:101C8000E66EE66AE66EE66A030EE66EE66A25EC46
:101C900017F0146E060EE15E1450699468A40CD01F
:101CA000020EE66E680EE66E0F0EE66EFAEC14F0AB
:101CB000E552E552E552F2D71200FD0E0501D015AE
:101CC00020E17E0ED015E8407F0B040DF3CFB3F575
:101CD000F4CFB4F5000EB327040EB423B3C5B5F5A5
:101CE000B4C5B6F5B575B3C5E9FFB4C5EAFFEF50A5
:101CF0003C0BE842E8420D0802E109D801D02AD89D
:101D000005D0FD0ED015040801E12DD81200BBC589
:101D1000E9FFBCC5EAFFEF50800B05E0BBC5E9FF5A
:101D2000BCC5EAFFEF6A0501BF6BC06BC46BC56B36
:101D3000C36B04D9000EE66EE66AE66EE66A170E1D
:101D4000E66EE66A25EC17F0146E060EE15E14509E
:101D50004AEF11F0020E0501C05D03E1A7EC12F09D
:101D600001D04ED81200D9CFE6FFE1CFD9FFE6521D
:101D7000BBC5E9FFBCC5EAFFEF50400B01E0010E17
:101D8000DF6E0501BB75080EB05D0AE122C46EFF6F
:101D90006E50000803E2100EB06F02D0040EB06F58
:101DA000C00528E1BBC5E9FFBCC5EAFF020EE92674
:101DB000000EEA22280EEE6E040EED6E3DDB020EE2
:101DC0000501BF5D07E1BBC5E9FFBCC5EAFF840EA5
:101DD000EF6E0FD0DF5007E1BBC5E9FFBCC5EAFFDE
:101DE000C80EEF6E06D0BBC5E9FFBCC5EAFF880E82
:101DF000EF6E01D005D8E552E552E7CFD9FF1200CA
:101E0000D9CFE6FFE1CFD9FF030EE126020E05018F
:101E1000C05D4AE16D50100B47E0B3C5E9FFB4C5A2
:101E2000EAFFEE52EF50146E156A080E141801E125
:101E300015503AE1B3C5E9FFB4C5EAFFEF503C0BDA
:101E4000E842E8420D0830E1B5C5E9FFB6C5EAFF52
:101E5000EF50800B29E1B5C5E9FFB6C5EAFF020ED8
:101E6000E926000EEA22200EEE6E040EED6EDF6A09
:101E7000DF50146E156A080E145C000E155813E23C
:101E8000DF50EA6A280FE96E040EEA22EF50E66E90
:101E9000DF50EA6A200FE96E040EEA22E552E750AD
:101EA000EF6EDF2AE5D731D0C06BB5C5E9FFB6C507
:101EB000EAFFEE52080EEF6EB5C5E9FFB6C5EAFFC0
:101EC000020EE926000EEA22200EEE6E040EED6EE2
:101ED000B5C5E9FFB6C5EAFF8C0EEF6EBBC5E9FFDD
:101EE000BCC5EAFFEF6A040EBB19146EBCC515F041
:101EF000010E14C0DBFF020E15C0DBFF010EDBCFAD
:101F0000E9FF020EDBCFEAFFEF6A0501C8AF0CD094
:101F1000CB51CC1107E005D0CCC5FAFF0501CB5160
:101F2000F96EFADF0501C89F030EE15C02E2E16A87
:101F3000E552E16EE552E7CFD9FF120004012051CE
:101F4000600BE842E842E842E842E842000901E06A
:101F500058D021510C0A54E00B0A43E00C0A35E03A
:101F6000010A26E00B0A22E0020A20E0030A1CE034
:101F7000080A10E0010A0CE00F0A08E0030A01E079
:101F80003FD00501C38F080EB06F3BD0C8D839D001
:101F90006FDB37D00501B10EC16F050EC26FC38173
:101FA000010EC46FC38F2DD014D92BD02BD829D0BC
:101FB00024510501C16FC26BB20EC127050EC223A9
:101FC000C381010EC46FC38F1CD00501C38F0401F0
:101FD0002451EA6AB20FE96E050EEA2222C4EFFF2D
:101FE00010D0000EE66EE66AE66EE66A160EE66E43
:101FF000E66A25EC17F0146E060EE15E145001D06F
:1020000000D01200D9CFE6FFE1CFD9FF040EE126C0
:102010000401220510E120511F0B00090CE105010C
:10202000C38F030E0401215D04E10501010ECF6F92
:1020300002D00501CF6B0401225167E120511F0B33
:10204000020863E124510F0B00095FE00501C38F13
:10205000040124BF10D024510F0BE96EEA6AD89016
:10206000E936EA36B70EE926050EEA22EECFDEFFA4
:10207000EDCFDDFF0FD024510F0BE96EEA6AD89047
:10208000E936EA36BB0EE926050EEA22EECFDEFF80
:10209000EDCFDDFF030E215D07E1DECFE9FFDDCFF0
:1020A000EAFF840EEF6E31D024510F0B156A700FCA
:1020B000146E0F0E1522020E14C0DBFF030E15C0A6
:1020C000DBFF020EDBCFE9FF030EDBCFEAFFEE9072
:1020D000ED5224AF0DD0DECFE9FFDDCFEAFFEF6A8E
:1020E000DF74DECFE9FFDDCFEAFF400EEF6E0DD0EB
:1020F000DECFE9FFDDCFEAFF880EEF6EDF74DECFC3
:10210000E9FFDDCFEAFFC80EEF6E040EE15C02E2EC
:10211000E16AE552E16EE552E7CFD9FF1200800E89
:102120000401205D55E10501C00EC36F0401235178
:10213000030A2EE0010A0EE0030A03E00501C36B67
:1021400047D00501CC0EC16F2F0EC26F120EC46FA7
:10215000C56B3ED02251F66EF76AD890F636F73648
:102160008A0EF626300EF7220900F5CFC1F50A00D7
:10217000F5CFC2F5020E0501F76AC125F66EC25110
:10218000F7220900F5CFC4F50A00F5CFC5F520D038
:10219000030E225D1AE22251F66EF76AD890F636E7
:1021A000F7368C0EF626300EF7220900F5CFC1F572
:1021B0000A00F5CFC2F5C1C5F6FFC2C5F7FF08009A
:1021C000F5500501C46FC56B02D00501C36B00D08B
:1021D0001200D9CFE6FFE1CFD9FF020EE1260401BC
:1021E000286B296B20511F0B020A12E0030A0DE035
:1021F000010A01E03BD00501C38F040128810501DC
:10220000CF0502E10401288331D00501C38F2ED010
:102210000501C38F040124BF10D024510F0BE96EB8
:10222000EA6AD890E936EA36B70EE926050EEA22C0
:10223000EECFDEFFEDCFDDFF0FD024510F0BE96EA7
:10224000EA6AD890E936EA36BB0EE926050EEA229C
:10225000EECFDEFFEDCFDDFFDECFE9FFDDCFEAFF22
:10226000EF50040B02E0010E286F00D00501C3AF50
:1022700007D0280EC16F040EC26FC381020EC46F57
:10228000020EE15C02E2E16AE552E16EE552E7CF5F
:10229000D9FF12006D980501C3BF4AD0C8AF28D03E
:1022A000020EC06FBBC5E9FFBCC5EAFFEE52EF6A84
:1022B000BBC5E9FFBCC5EAFFC80EEF6EB5C5E9FFB7
:1022C000B6C5EAFFEE52080EEF6EB5C5E9FFB6C51A
:1022D000EAFF020EE926000EEA22280EEE6E040E38
:1022E000ED6EB5C5E9FFB6C5EAFFC80EEF6E1FD0AB
:1022F000B5C5E9FFB6C5EAFFEE52080EEF6EB5C5EB
:10230000E9FFB6C5EAFF020EE926000EEA22200E1A
:10231000EE6E040EED6EB5C5E9FFB6C5EAFF8C0E94
:10232000EF6EBBC5E9FFBCC5EAFF840EEF6E83D03C
:10233000C8BF81D0040120AF56D00501C4510401AB
:10234000265D0501C5510401275904E226C4C4F5E0
:1023500027C4C5F571D80501010EC06FB5C5E9FFE9
:10236000B6C5EAFFEE52080EEF6EB5C5E9FFB6C579
:10237000EAFF020EE926000EEA22200EEE6E040E9F
:10238000ED6EB5C5E9FFB6C5EAFF800EEF6EB3C5C9
:10239000E9FFB4C5EAFFEE52080EEF6EB3C5E9FFE0
:1023A000B4C5EAFF020EE926000EEA22200EEE6E08
:1023B000040EED6EB3C5E9FFB4C5EAFF800EEF6E03
:1023C000BBC5E9FFBCC5EAFF020EE926000EEA2202
:1023D000280EEE6E040EED6EBBC5E9FFBCC5EAFF2C
:1023E000C80EEF6E28D00501020EC06FBBC5E9FF15
:1023F000BCC5EAFFEE52EF6ABBC5E9FFBCC5EAFF08
:10240000C80EEF6EB5C5E9FFB6C5EAFFEE52080E7D
:10241000EF6EB5C5E9FFB6C5EAFF020EE926000E6C
:10242000EA22280EEE6E040EED6EB5C5E9FFB6C5C4
:10243000EAFFC80EEF6E1200D9CFE6FFE1CFD9FF59
:10244000020EE1260501080EC45D000EC5590EE21C
:10245000C4C5DEFFC5C5DDFFBF5103E1010EBF6F7F
:1024600004D0BF0502E1020EBF6F03D0080EDE6E7E
:10247000DD6ABBC5E9FFBCC5EAFFEF92BBC5E9FF5A
:10248000BCC5EAFFEF90BBC5E9FFBCC5EAFF010E82
:10249000DB50EF12BBC5E9FFBCC5EAFFEE52DFCF50
:1024A000EFFF000EDB50C45F010EDB50C55B280E52
:1024B000CD6F040ECE6FC3B121D0D9CFE9FFDACFF3
:1024C000EAFFEE50ED1019E0C1C5F6FFC2C5F7FFF7
:1024D000C12B000EC2230800F550E66ECDC5E9FF02
:1024E000CEC5EAFFCD2B000ECE23E552E750EF6EAE
:1024F000DF06010E01E2DB06E0D71FD0D9CFE9FFEE
:10250000DACFEAFFEE50ED1018E0C1C5E9FFC2C511
:10251000EAFFC12B000EC223EF50E66ECDC5E9FFE6
:10252000CEC5EAFFCD2B000ECE23E552E750EF6E6D
:10253000DF06010E01E2DB06E1D7020EE15C02E2FA
:10254000E16AE552E16EE552E7CFD9FF1200D9CF3B
:10255000E6FFE1CFD9FF020EE126B3C5E9FFB4C51E
:10256000EAFFEE52EFCFDFFFDFCF14F0145005018A
:10257000C95D000ECA5903E2C9C5DFFF09D0DF50AB
:10258000146E156A1450C95DC96F1550CA59CA6FC7
:10259000010EDB6ADF50F36E010EDBCFF4FFF35068
:1025A000F45C16E2010EDB50EA6A280FE96E040EB5
:1025B000EA22EF50E66EC6C5E9FFC7C5EAFFC62BA3
:1025C000000EC723E552E750EF6E010EDB2AE2D77B
:1025D000000ED880C955000ECA5528E2B5C5E9FFDE
:1025E000B6C5EAFFEE52080EEF6EB5C5E9FFB6C5F7
:1025F000EAFF020EE926000EEA22280EEE6E040E15
:10260000ED6EB3C5E9FFB4C5EAFFEF50400B07E13B
:10261000B5C5E9FFB6C5EAFFC80EEF6E06D0B5C571
:10262000E9FFB6C5EAFF880EEF6E18D0B5C5E9FF21
:10263000B6C5EAFF020EE926000EEA22200EEE6E73
:10264000040EED6ECB51CC1107E005D0CCC5FAFFDE
:102650000501CB51F96EFADF0501C89F020EE15C5E
:1026600002E2E16AE552E16EE552E7CFD9FF1200DE
:102670000501C38F000EE66EE66AE66A710EE66E2D
:102680000F0EE66EEBEC18F0146E050EE15E1450C2
:10269000010EE66EE66AE66AB20EE66E050EE66EBC
:1026A000EBEC18F0146E050EE15E145022C4B1F587
:1026B0000401225104E10501100EB06F11D0050193
:1026C000200EB06F000EE66EE66AE66EE66A150E44
:1026D000E66EE66A25EC17F0146E060EE15E145005
:1026E0001200D9CFE6FFE1CFD9FF020EE126000E9E
:1026F000DE6E040EDD6EFD0EDB50E824166EFE0E5F
:10270000DB50040DF3501624040DF350146E156ABB
:10271000020E0F0B05E0D89015321432E806FBE1EB
:10272000D89014361536D89014361536D9CFE9FF1F
:10273000DACFEAFF1450EE261550ED22DECFE9FF86
:10274000DDCFEAFFEF9EFD0EDB500FE1FE0EEA6AE1
:10275000DB34FE0BEA36E96EB70EE926050EEA22F7
:10276000DECFEEFFDDCFEDFF0ED0FE0EEA6ADB34EA
:10277000FE0BEA36E96EBB0EE926050EEA22DECF35
:10278000EEFFDDCFEDFFDECFE9FFDDCFEAFFEF9C0F
:10279000DECFE9FFDDCFEAFF040EE926000EEA22D4
:1027A000EF8C020EE15C02E2E16AE552E16EE55275
:1027B000E7CFD9FF1200D9CFE6FFE1CFD9FF020E54
:1027C000E126FE0EDB50156A700F146E0F0E1522F7
:1027D00014C0DEFF15C0DDFFDECFE9FFDDCFEAFF6D
:1027E000FD0EDBCFEFFFDBA407D0E66AFE0EDBCFEA
:1027F000E6FF77DFE552E552FD0EDBA208D0010EC1
:10280000E66EFE0EDBCFE6FF6CDFE552E552020E10
:10281000E15C02E2E16AE552E16EE552E7CFD9FF01
:102820001200D9CFE6FFE1CFD9FF020EE126FE0E5E
:10283000DB5020E1B5C5E9FFB6C5EAFFEE52080E50
:10284000EF6EB5C5E9FFB6C5EAFF020EE926000E38
:10285000EA22200EEE6E040EED6EB5C5E9FFB6C598
:10286000EAFF8C0EEF6EBBC5E9FFBCC5EAFF840E24
:10287000EF6E3DD0FD0EDB50E824166EFE0EDB50F1
:10288000040DF3501624040DF3CF14F0F4CF15F01B
:10289000000E1426040E152214C0DEFF15C0DDFF45
:1028A000840E146EDECFE9FFDDCFEAFF1450EF1285
:1028B000FD0EDB50E824166EFE0EDB50040DF350C7
:1028C0001624010F040DF3CF14F0F4CF15F0000E11
:1028D0001426040E152214C0DEFF15C0DDFF840E81
:1028E000146EDECFE9FFDDCFEAFF1450EF12020EC7
:1028F000E15C02E2E16AE552E16EE552E7CFD9FF21
:102900001200D9CFE6FFE1CFD9FF020EE126FD0E7E
:10291000DB500FE0FE0EEA6ADB34FE0BEA36E96EAE
:10292000BB0EE926050EEA22EECFDEFFEDCFDDFF7E
:102930000ED0FE0EEA6ADB34FE0BEA36E96EB70E05
:10294000E926050EEA22EECFDEFFEDCFDDFFDECF7A
:10295000E9FFDDCFEAFF020EE926000EEA22FB0EB8
:10296000DBCFEEFFFC0EDBCFEDFFDECFE9FFDDCFEF
:10297000EAFFEE52FA0EDBCFEFFF400E146EDECF11
:10298000E9FFDDCFEAFF1450EF16880E146EDECF9C
:10299000E9FFDDCFEAFF1450EF12FD0EDB500CE033
:1029A000FE0EEA6ADB34FE0BEA36E96EBB0EE92660
:1029B000050EEA22EF740BD0FE0EEA6ADB34FE0B42
:1029C000EA36E96EB70EE926050EEA22EF74DECF8D
:1029D00014F0DDCF15F014C0F3FF15C0F4FF020EA4
:1029E000E15C03E200D0E16AE552E16EE552E7CF37
:1029F000D9FF1200D9CFE6FFE1CFD9FF010EF36E68
:102A0000FC0EDB5004E0D890F336E806FCE1F3500E
:102A1000E81C146EFD0EDBCFE9FFFE0EDBCFEAFFF4
:0C2A20001450EF16E552E7CFD9FF12006A
:042A2C00D9CFE6FF19
:102A3000E1CFD9FFFD0EDBCFE9FFFE0EDBCFEAFFD2
:102A4000400EE926050EEA22FC0EDBCFEFFFE55231
:102A5000E7CFD9FF12000501E151E21102E1000EBA
:102A600008D0E1C5E9FFE2C5EAFFEF50800B01E0C5
:102A7000010E000913E1400EE66E400EE66E050EF3
:102A8000E66E010EE66EE66E81EC14F0146E050E35
:102A9000E15E1450F3CFE1F5F4CFE2F51200050149
:102AA000DF51E01102E1000E08D0DFC5E9FFE0C50B
:102AB000EAFFEF50800B01E0010E000902E0000E7A
:102AC00001D0010E00D01200D9CFE6FFE1CFD9FF2F
:102AD000FD0EDBCFE9FFFE0EDBCFEAFF000EE9269D
:102AE000050EEA22EF5000D0E552E7CFD9FF1200E1
:102AF000400EE66E000EE66E050EE66EE66A010E0C
:102B0000E66E81EC14F0146E050EE15E1450F3CF06
:102B1000DFF5F4CFE0F51200D9CFE6FFE1CFD9FF22
:102B2000FB0EDBCFE6FFFD0EDBCFE6FFFE0EDBCFBD
:102B3000E6FF7CDFE552E552E552FC0EDBCFE6FF17
:102B4000010EE76EFD0EDBCF14F0FE0EDBCF15F0AD
:102B5000E7501426000E152214C0E6FF15C0E6FF4C
:102B600065DFE552E552E552E552E7CFD9FF1200A5
:102B7000CCEF0CF0F00E8C1695169388938A050115
:102B8000DF6BE06BE16BE26B010EE36F1200D9CFFC
:102B9000E6FFE1CFD9FF020EE1260501E35101E096
:102BA000DDD8200E0501B05D03E36D50020B01E09E
:102BB000A4D00501DF51E01102E1000E08D0DFC50D
:102BC000E9FFE0C5EAFFEF50800B01E0010E0009CC
:102BD00001E093D005010051370A45E0B60A17E03D
:102BE000010A01E077D00501E36B8C50010B146EF4
:102BF0008C50020B01E0010E145C03E18C708C72AE
:102C000005D08CA002D08C8201D08C9263D0810E32
:102C1000406F81A803D0010E416F01D0416B0501C7
:102C2000E151E21102E1000E08D0E1C5E9FFE2C581
:102C3000EAFFEF50800B01E0010E000913E1400EA6
:102C4000E66E400EE66E050EE66E010EE66EE66E70
:102C500081EC14F0146E050EE15E1450F3CFE1F533
:102C6000F4CFE2F537D00501E151E21102E1000EA7
:102C700008D0E1C5E9FFE2C5EAFFEF50800B01E0B3
:102C8000010E000926E19280010EC26E3C0EC06E5C
:102C9000C08E3DD8F3CFDEFFF4CFDDFF0501370E48
:102CA000406FDFCF41F5010EDBCF42F5400EE66EFF
:102CB000400EE66E050EE66E010EE66EE66E81ECE7
:102CC00014F0146E050EE15E1450F3CFE1F5F4CF6D
:102CD000E2F500D0400EE66E000EE66E050EE66EE2
:102CE000E66A010EE66E81EC14F0146E050EE15EEC
:102CF0001450F3CFDFF5F4CFE0F5020EE15C02E211
:102D0000E16AE552E16EE552E7CFD9FF1200D9CF73
:102D1000E6FFE1CFD9FF020EE1269280010EC26EDE
:102D20003C0EC06EC08EC282C2B2FED7C350DF6EF0
:102D3000010EC4CFDBFFDECF14F0DDCF15F014C0E1
:102D4000F3FF15C0F4FF020EE15C03E200D0E16A7C
:102D5000E552E16EE552E7CFD9FF12000501E451DB
:102D6000E51104E1100EE46F270EE56FE407000E95
:102D7000E55B6DA20AD0E451E51106E18C708CA0F0
:102D800002D08C8201D08C922ED00501B05103E18B
:102D90008C908C9228D0B00503E18C808C8223D05B
:102DA000020EB05D03E18C808C921DD0040EB05DEC
:102DB00003E18C908C8217D0100EB05D07E1050105
:102DC000E451E51102E18C708C920DD0200EB05DC3
:102DD0000AE10501E451E51106E18C708CA002D0F6
:102DE0008C9201D08C82120012001200120012008C
:102DF00070EF17F012001E0EE66E010EE66EDBECB1
:102E000013F0E552E552400EE66E000EE66E050E3A
:102E1000E66EE66A010EE66E81EC14F0146E050EA5
:102E2000E15E1450F3CFDFF5F4CFE0F512006D84CE
:102E30000501080EE96F070EEA6FE907000EEA5B6D
:102E4000E951EA11FAE16D941200D9CFE6FFE1CF22
:102E5000D9FFFD0EDBCF08F0FE0EDBCF09F0010E2F
:102E6000081801E1095033E0E868081802E1E86851
:102E700009182BE0030E081801E1095024E0040EA4
:102E8000081801E109501DE0020E081801E109507F
:102E900016E0170E081801E109500FE0160E081889
:102EA00001E1095008E0150E081801E1095001E0A0
:102EB00010D0A1DF0FD09EDF0DD09ADF0BD096DFB0
:102EC00009D092DF07D091DF05D091DF03D0000059
:102ED00001D000D0010E00D0E552E7CFD9FF12009B
:102EE000040120511F0B010801E06DD0245101E0C5
:102EF0006AD0060E215D28E12351230A21E0010A50
:102F000011E0030A01E020D00501B1050AE1050145
:102F1000F00EC16F2F0EC26F090EC46FC56BC00ECD
:102F2000C36F12D00501B1050AE105016D0EC16F35
:102F3000300EC26F1D0EC46FC56BC00EC36F04D0C0
:102F40000501800EC36F00D004012051600BE842E0
:102F5000E842E842E842E842010801E034D0215169
:102F60000B0A2BE0080A1EE0090A16E0080A09E02D
:102F70000B0A05E0080A01E026D026D824D025D87F
:102F800022D00501E60EC16F050EC26F010EC46F9F
:102F9000C56BC10EC36F17D00501800EC36F23C46C
:102FA000E6F511D00501E70EC16F050EC26F010EE7
:102FB000C46FC56B810EC36F06D00501800EC36F51
:0C2FC00022C4E7F500D01200120012003D
:042FCC0012011001DD
:102FD00000000008D8043F000200010200010902BD
:102FE0002900010100C032090400000203000000B2
:102FF000092100010001221D000705810340000195
:10300000070501034000010403090434034D00696E
:1030100000630072006F00630068006900700020A8
:103020000054006500630068006E006F006C006F64
:103030000067007900200049006E0063002E002E1A
:10304000034D0065006E0064006900650074006156
:10305000002000760065007200730069006F006E4A
:1030600000200031002E0030002E0030000600FF4E
:103070000901A10119012940150026FF00750895D5
:10308000408102190129409102C0DE2F07300B3028
:023090003F30CF
:0E309200006A0EAE52EF18F00D6C0E1EE86ACA
:1030A0000E22001E09AE5AEF18F0086C091EE86ADD
:1030B0000922001E1FEC19F009BE6AEF18F000AEDD
:1030C000000C086C091EE86A0922046C051EE86AF7
:1030D0000522000C00BE61EF18F00188FF0C09C04A
:1030E00013F008C012F008500D02F4CF07F0F3CF30
:1030F00006F009500E02F4CF09F0F3CF08F00D02EC
:10310000F3500726F4500822E86A092212500E02F2
:10311000F3500726F4500822E86A09220EAE95EF14
:1031200018F01250085E1350095A13AE000C0D50DF
:08313000085E0E50095A000C64
:083138001E0EF66E000EF76E8C
:10314000000EF86E05010900F550DA6F0900F55020
:10315000DB6F03E1DA6701D03DD00900F550D56F90
:103160000900F550D66F0900F550D76F0900090026
:10317000F550E96E0900F550EA6E090009000900F2
:10318000F550D86F0900F550D96F09000900F6CF46
:10319000DCF5F7CFDDF5F8CFDEF5D5C5F6FFD6C502
:1031A000F7FFD7C5F8FF0501D85302E1D95307E06F
:1031B0000900F550EE6ED807F8E2D907F9D7DCC55B
:1031C000F6FFDDC5F7FFDEC5F8FF0501DA07000EE3
:0631D000DB5BBFD712001B
:0A31D600FE0EE3CFE9FFFF0EE3CF8A
:1031E000EAFFE9CFF3FFEACFF4FFFB0EE35003E180
:1031F000FC0EE35009E0FB0EE30602E2FC0EE306E0
:0A320000FD0EE350EE6EF1D7120050
:06320A00B8EC15F007D836
:1032100022EC0DF01CEC00F010D8FAD71200926AE4
:10322000936A956A010ED56E200ECD6EF28EF28CE9
:0E323000F28A9D80D58ECD8012009AEF00F0BC
:02323E00056A1F
:10324000046A100EE76ED890083609360436053643
:103250000D50045C0E50055805E30D50045E0E50F1
:0A326000055A082AE72EF0D71200E5
:06326A00000EF36E00EE01
:1032700000F0080E01D81200EA6002D0EE6AFCD716
:0A328000F350E9601200EE6AFCD77B
:06328A0013EE00F023EE3C
:1032900000F0F86A019C9CEC18F003EC00F005ECDF
:0632A00019F0FBD712003B
:0A32A600000000000000000000001E
:1032B000000000000000000000000000000000000E
:1032C00000000000000000000002000000000000FC
:0632D000000000000000F8
:020000040030CA
:0100000024DB
:010001000EF0
:010002003FBE
:010003001EDE
:010005008179
:010006008178
:010008000FE8
:01000900C036
:01000A000FE6
:01000B00E014
:01000C000FE4
:01000D0040B2
:00000001FF
