:020000040000FA
:06000000A8EF12F012004F
:020006001200E6
:06000800CEEF01F0120032
:060018001BEF02F01200D4
:02001E000100DF
:0C0020006C250000A50500001400000085
:04002C00F5EF08F0F4
:10003000F00E8C1695169388938A0501A56BA66B16
:10004000A76BA86B010EA96F1200D9CFE6FFE1CF15
:10005000D9FF020EE1260501A95101E0DDD8200EED
:100060000501805D03E36D50020B01E0A4D00501A2
:10007000A551A61102E1000E08D0A5C5E9FFA6C54D
:10008000EAFFEF50800B01E0010E000901E093D080
:1000900005010051370A45E0B60A17E0010A01E000
:1000A00077D00501A96B8C50010B0B6E8C50020BA5
:1000B00001E0010E0B5C03E18C708C7205D08CA00A
:1000C00002D08C8201D08C9263D0810E406F81A8C7
:1000D00003D0010E416F01D0416B0501A751A8115A
:1000E00002E1000E08D0A7C5E9FFA8C5EAFFEF505E
:1000F000800B01E0010E000913E1400EE66E400E98
:10010000E66E050EE66E010EE66EE66EAAEC10F0E7
:100110000B6E050EE15E0B50F3CFA7F5F4CFA8F5FB
:1001200037D00501A751A81102E1000E08D0A7C5DC
:10013000E9FFA8C5EAFFEF50800B01E0010E0009BE
:1001400026E19280010EC26E3C0EC06EC08E3DD87C
:10015000F3CFDEFFF4CFDDFF0501370E406FDFCFB9
:1001600041F5010EDBCF42F5400EE66E400EE66E25
:10017000050EE66E010EE66EE66EAAEC10F00B6E52
:10018000050EE15E0B50F3CFA7F5F4CFA8F500D034
:10019000400EE66E000EE66E050EE66EE66A010E95
:1001A000E66EAAEC10F00B6E050EE15E0B50F3CF7D
:1001B000A5F5F4CFA6F5020EE15C02E2E16AE55294
:1001C000E16EE552E7CFD9FF1200D9CFE6FFE1CFCC
:1001D000D9FF020EE1269280010EC26E3C0EC06E67
:1001E000C08EC282C2B2FED7C350DF6E010EC4CF32
:1001F000DBFFDECF0BF0DDCF0CF00BC0F3FF0CC04C
:10020000F4FF020EE15C03E200D0E16AE552E16E28
:10021000E552E7CFD9FF12000501AA51AB1104E165
:10022000100EAA6F270EAB6FAA07000EAB5B6DA274
:100230000AD0AA51AB1106E18C708CA002D08C823E
:1002400001D08C922ED00501805103E18C908C92CC
:1002500028D0800503E18C808C8223D0020E805D43
:1002600003E18C808C921DD0040E805D03E18C90A4
:100270008C8217D0100E805D07E10501AA51AB11E9
:1002800002E18C708C920DD0200E805D0AE1050198
:10029000AA51AB1106E18C708CA002D08C9201D0D7
:1002A0008C82120012001200120012003FEF11F0B7
:1002B00012001E0EE66E010EE66E04EC10F0E55222
:1002C000E552400EE66E000EE66E050EE66EE66A3C
:1002D000010EE66EAAEC10F00B6E050EE15E0B50FF
:1002E000F3CFA5F5F4CFA6F512006D840501080E35
:1002F000C66F070EC76FC607000EC75BC651C71192
:10030000FAE16D941200D9CFE6FFE1CFD9FFFD0EDF
:10031000DBCF06F0FE0EDBCF07F0010E061801E181
:10032000075033E0E868061802E1E86807182BE098
:10033000030E061801E1075024E0040E061801E13F
:1003400007501DE0020E061801E1075016E0170ED7
:10035000061801E107500FE0160E061801E10750DC
:1003600008E0150E061801E1075001E010D0A1DFEA
:100370000FD09EDF0DD09ADF0BD096DF09D092DF31
:1003800007D091DF05D091DF03D0000001D000D06D
:10039000010E00D0E552E7CFD9FF1200DACFE4FF1B
:1003A000E2CFDAFFE9CFE4FFEACFE4FFF6CFE4FFE4
:1003B000F7CFE4FFF5CFE4FFF3CFE4FFF4CFE4FFA2
:1003C000FACFE4FF00EE00F00B0EE80403E3EECFFB
:1003D000E4FFFBD700EE0BF0090EE80403E3EECFD9
:1003E000E4FFFBD7E652F2A402D038D8F294E552EB
:1003F00000EE13F0090EE80403E3E5CFEDFFFBD7B1
:1004000000EE0AF00B0EE80403E3E5CFEDFFFBD7A7
:10041000E5CFFAFFE5CFF4FFE5CFF3FFE5CFF5FF3A
:10042000E5CFF7FFE5CFF6FFE5CFEAFFE5CFE9FF40
:10043000E5CFDAFF1100D8CFE4FFE0CFE4FFE46EB0
:10044000DACFE4FFE2CFDAFFE652E552E5CFDAFF9A
:10045000E550E5CFE0FFE5CFD8FF1000D9CFE6FFAC
:10046000E1CFD9FF020EE1260501B451020A01E1F4
:10047000ACD0010A01E1A9D0070A01E1A6D0010A26
:1004800001E1A3D0030A01E1A0D0010A01E19DD05E
:10049000060A4EE0010A01E0A0D0010E0B6E8A5060
:1004A000010B0B5CE8B08A80E8A08A908AA024D077
:1004B000ACC5B0F5ADC5B1F50E6A0F6A010E106E90
:1004C000ACC511F0ADC512F0030E1202F3CF12F05D
:1004D0001102F3CF11F0F4501226136A11500E5C82
:1004E0000B6E12500F580C6E135010580D6E0BC03F
:1004F000DEFF0CC0DDFF1BD0B0C50BF0B1C50CF0AA
:10050000030E0C02F3CF0CF00B02F3CF0BF0F45000
:100510000C260D6AB40E0B26E20E0C22000E0D22E4
:100520000BC0DEFF0CC0DDFFB429070BB46F55D044
:10053000010E0B6E8A50020B01E0010E0B5CE8B05D
:100540008A82E8A08A928AA224D0AEC5B2F5AFC54D
:10055000B3F50E6A0F6A010E106EAEC511F0AFC58D
:1005600012F0030E1202F3CF12F01102F3CF11F0CA
:10057000F4501226136A11500E5C0B6E12500F5875
:100580000C6E135010580D6E0BC0DEFF0CC0DDFF5B
:100590001BD0B2C50BF0B3C50CF0030E0C02F3CFA9
:1005A0000CF00B02F3CF0BF0F4500C260D6AB40ED6
:1005B0000B26E20E0C22000E0D220BC0DEFF0CC03B
:1005C000DDFFB429070BB46F08D0B40EDE6EE20E67
:1005D000DD6EB429070BB46F00D0DECF0BF0DDCF9A
:1005E0000CF00CC00BF00C6A0B50D76EDECF0BF08A
:1005F000DDCF0CF00B50D66E020EE15C02E2E16A38
:10060000E552E16EE552E7CFD9FF1200D9CFE6FF00
:10061000E1CFD9FF020EE126DE6ADD6ADECF0BF004
:10062000DDCF0CF00C3404E20B500108000E0C542A
:100630000AE3FA0EE66E81EC12F0E552DF2A010EB3
:1006400001E3DB2AEBD7020EE15C02E2E16AE5524C
:10065000E16EE552E7CFD9FF1200D9CFE6FFE1CF37
:10066000D9FF020EE126FD0EDBCF0BF0FE0EDBCF35
:100670000CF0D8900B360C36D8900B360C36010E99
:100680000B10C26E3C0EC06EC08EC282C2B2FED7CC
:10069000C350DF6E010EC4CFDBFFDECF0BF0DDCF2A
:1006A0000CF00BC0F3FF0CC0F4FF020EE15C03E2A0
:1006B00000D0E16AE552E16EE552E7CFD9FF1200C2
:1006C000B5DC09D84BEC09F00501B52B000EB623BB
:1006D0000BD8F8D71200926A936A956A010ED56E0C
:1006E000F28EF28AD58E1200C5EF03F0D9CFE6FF65
:1006F000E1CFD9FF020EE1260501B751B55D0B6EC2
:10070000B651B8550C6ED8900C5004E6640E0B5CD4
:10071000000E0C5801E22FD0B5C5B7F5B6C5B8F537
:1007200080CF40F583CF41F581CF42F59BEC07F0B8
:100730000501A751A81102E1000E08D0A7C5E9FFE5
:10074000A8C5EAFFEF50800B01E0010E000913E19C
:10075000400EE66E400EE66E050EE66E010EE66E8B
:10076000E66EAAEC10F00B6E050EE15E0B50F3CFB7
:10077000A7F5F4CFA8F5020EE15C02E2E16AE552CA
:10078000E16EE552E7CFD9FF1200200E0501805D32
:1007900003E36D50020B01E034D00501A551A61111
:1007A00002E1000E08D0A5C5E9FFA6C5EAFFEF509B
:1007B000800B01E0010E000923E105010051020A4E
:1007C00009E0030A05E0010A01E007D0F1D905D0EC
:1007D00019D803D095EC08F000D0400EE66E000E5C
:1007E000E66E050EE66EE66A010EE66EAAEC10F005
:1007F0000B6E050EE15E0B50F3CFA5F5F4CFA6F519
:1008000075DF1200D9CFE6FFE1CFD9FF040EE12654
:1008100005010151DE6EDD6A0251E66ED950020F0C
:10082000E96EDACFEAFFE552E750EE6EED6A000EB0
:10083000DFCF06F0010EDBCF07F0280E061801E12E
:10084000075001E1A4D1270E061801E1075001E18C
:1008500097D1260E061801E1075001E18AD1250E35
:10086000061801E1075001E17DD1240E061801E1CF
:10087000075001E170D1230E061801E1075001E194
:1008800063D1220E061801E1075001E156D1210E75
:10089000061801E1075001E149D11E0E061801E1D9
:1008A000075001E13CD11D0E061801E1075001E19E
:1008B0002FD11C0E061801E1075001E122D11B0EB9
:1008C000061801E1075001E115D11A0E061801E1E1
:1008D000075001E108D1190E061801E1075001E1A6
:1008E000FBD0180E061801E1075001E1EED0170EFB
:1008F000061801E1075001E1E1D0160E061801E1EA
:10090000075001E1D4D0150E061801E1075001E1AE
:10091000C7D0140E061801E1075001E1BAD0130E3A
:10092000061801E1075001E1ADD0110E061801E1F2
:10093000075001E1A0D0100E061801E1075001E1B7
:1009400093D00F0E061801E1075001E186D00E0E7C
:10095000061801E1075001E179D00A0E061801E1FD
:1009600007506DE0090E061801E1075061E0080E1E
:10097000061801E1075055E0070E061801E107507F
:1009800049E0060E061801E107503DE0050E061885
:1009900001E1075031E0040E061801E1075025E09F
:1009A000030E061801E1075019E0020E061801E1D6
:1009B00007500DE0010E061801E1075001E0EED0EE
:1009C000020EDB50E8B08486E8A08496E7D0020EE1
:1009D000DB50E8B08080E8A08090E0D0020EDB50D1
:1009E000E8B08082E8A08092D9D0020EDB50E8B057
:1009F0008084E8A08094D2D0020EDB50E8B08086DC
:100A0000E8A08096CBD0020EDB50E8B08088E8A04A
:100A10008098C4D0020EDB50E8B0808AE8A0809AAB
:100A2000BDD0020EDB50E8B08480E8A08490B6D040
:100A3000020EDB50E8B08482E8A08492AFD0020EB0
:100A4000DB50E8B08484E8A08494A8D0020EDB5088
:100A5000E8B0808CE8A0809CA1D0020EDB50E8B00A
:100A60008280E8A082909AD0020EDB50E8B08282A9
:100A7000E8A0829293D0020EDB50E8B08284E8A016
:100A800082948CD0020EDB50E8B08380E8A0839083
:100A900085D0020EDB50E8B08382E8A083927ED03E
:100AA000020EDB50E8B08384E8A0839477D0020E76
:100AB000DB50E8B08386E8A0839670D0020EDB504E
:100AC000E8B08288E8A0829869D0020EDB50E8B0D6
:100AD000828AE8A0829A62D0020EDB50E8B0828C53
:100AE000E8A0829C5BD0020EDB50E8B0828EE8A0CA
:100AF000829E54D0020EDB50E8B08388E8A0839831
:100B00004DD0020EDB50E8B0838AE8A0839A46D02D
:100B1000020EDB50E8B0838CE8A0839C3FD0020E2D
:100B2000DB50E8B0838EE8A0839E38D0020EDB5005
:100B3000E8B08180E8A0819031D0020EDB50E8B0AF
:100B40008182E8A081922AD0020EDB50E8B0818435
:100B5000E8A0819423D0020EDB50E8B08186E8A0A3
:100B600081961CD0020EDB50E8B08188E8A0819805
:100B700015D0020EDB50E8B0818AE8A0819A0ED031
:100B8000020EDB50E8B0818CE8A0819C07D0020EF9
:100B9000DB50E8B0818EE8A0819E00D0040EE15CBD
:100BA00002E2E16AE552E16EE552E7CFD9FF1200B9
:100BB000D9CFE6FFE1CFD9FF040EE12605010151AF
:100BC000DE6EDD6A0251E66ED950020FE96EDACFB1
:100BD000EAFFE552E750EE6EED6A000EDFCF06F059
:100BE000010EDBCF07F0280E061801E1075001E1E6
:100BF00091D1270E061801E1075001E184D1260E9C
:100C0000061801E1075001E177D1250E061801E130
:100C1000075001E16AD1240E061801E1075001E1F5
:100C20005DD1230E061801E1075001E150D1220EDB
:100C3000061801E1075001E143D1210E061801E138
:100C4000075001E136D11E0E061801E1075001E1FF
:100C500029D11D0E061801E1075001E11CD11C0E1F
:100C6000061801E1075001E10FD11B0E061801E142
:100C7000075001E102D11A0E061801E1075001E107
:100C8000F5D0190E061801E1075001E1E8D0180E61
:100C9000061801E1075001E1E1D0170E061801E145
:100CA000075001E1DAD0160E061801E1075001E104
:100CB000CDD0150E061801E1075001E1C0D0140E89
:100CC000061801E1075001E1B3D0130E061801E147
:100CD000075001E1A6D0110E061801E1075001E10D
:100CE00099D0100E061801E1075001E18CD00F0ECB
:100CF000061801E1075001E17FD00E0E061801E150
:100D0000075073E00A0E061801E1075067E0090E6C
:100D1000061801E107505BE0080E061801E10750D4
:100D20004FE0070E061801E1075043E0060E0618D3
:100D300001E1075037E0050E061801E107502BE0EE
:100D4000040E061801E107501FE0030E061801E12A
:100D5000075013E0020E061801E1075007E0010EEC
:100D6000061801E1075001E0DCD0DBD0020EDB50B9
:100D7000E8B09280E8A09290D4D0020EDB50E8B0A8
:100D80009282E8A09292CDD0020EDB50E8B092841D
:100D9000E8A09294C6D0020EDB50E8B09286E8A09C
:100DA0009296BFD0020EDB50E8B09288E8A09298ED
:100DB000B8D0020EDB50E8B0928AE8A0929AB1D087
:100DC000020EDB50E8B09680E8A09690AAD0020E02
:100DD000DB50E8B09682E8A09692A3D0020EDB50DA
:100DE000E8B09684E8A096949CD0020EDB50E8B060
:100DF000928CE8A0929C95D0020EDB50E8B09480D3
:100E0000E8A094908ED0020EDB50E8B09482E8A067
:100E1000949287D0020EDB50E8B09484E8A09494BA
:100E200080D0020EDB50E8B09580E8A0959079D094
:100E3000020EDB50E8B09582E8A0959272D0020EC7
:100E4000DB50E8B09584E8A095946BD0020EDB509F
:100E5000E8B09586E8A0959664D063D062D0020E83
:100E6000DB50E8B0948CE8A0949C5BD0020EDB5081
:100E7000E8B0948EE8A0949E54D0020EDB50E8B007
:100E80009588E8A095984DD0020EDB50E8B0958A81
:100E9000E8A0959A46D0020EDB50E8B0958CE8A009
:100EA000959C3FD0020EDB50E8B0958EE8A0959E51
:100EB00038D0020EDB50E8B09380E8A0939031D098
:100EC000020EDB50E8B09382E8A093922AD0020E83
:100ED000DB50E8B09384E8A0939423D0020EDB505B
:100EE000E8B09386E8A093961CD0020EDB50E8B0E1
:100EF0009388E8A0939815D0020EDB50E8B0938A4F
:100F0000E8A0939A0ED0020EDB50E8B0938CE8A0D4
:100F1000939C07D0020EDB50E8B0938EE8A0939E1E
:100F200000D0040EE15C02E2E16AE552E16EE552B6
:100F3000E7CFD9FF1200D9CFE6FFE1CFD9FF020EEC
:100F4000E12692A010D0000EE66EE66A2DEC03F0CA
:100F5000E552E552F3CFDEFFF4CFDDFFDFCF43F5FF
:100F6000010EDBCF44F592A210D0010EE66EE66AC8
:100F70002DEC03F0E552E552F3CFDEFFF4CFDDFFB9
:100F8000DFCF45F5010EDBCF46F592A410D0020E5F
:100F9000E66EE66A2DEC03F0E552E552F3CFDEFF94
:100FA000F4CFDDFFDFCF47F5010EDBCF48F592A68A
:100FB00010D0030EE66EE66A2DEC03F0E552E55222
:100FC000F3CFDEFFF4CFDDFFDFCF49F5010EDBCF3E
:100FD0004AF592AA10D0040EE66EE66A2DEC03F0F4
:100FE000E552E552F3CFDEFFF4CFDDFFDFCF4BF567
:100FF000010EDBCF4CF596A010D0050EE66EE66A2A
:101000002DEC03F0E552E552F3CFDEFFF4CFDDFF28
:10101000DFCF4DF5010EDBCF4EF596A210D0060EB8
:10102000E66EE66A2DEC03F0E552E552F3CFDEFF03
:10103000F4CFDDFFDFCF4FF5010EDBCF50F596A4E7
:1010400010D0070EE66EE66A2DEC03F0E552E5528D
:10105000F3CFDEFFF4CFDDFFDFCF51F5010EDBCFA5
:1010600052F593A410D0080EE66EE66A2DEC03F05C
:10107000E552E552F3CFDEFFF4CFDDFFDFCF53F5CE
:10108000010EDBCF54F593A610D0090EE66EE66A8A
:101090002DEC03F0E552E552F3CFDEFFF4CFDDFF98
:1010A000DFCF55F5010EDBCF56F593A210D00A0E17
:1010B000E66EE66A2DEC03F0E552E552F3CFDEFF73
:1010C000F4CFDDFFDFCF57F5010EDBCF58F593A846
:1010D00010D00B0EE66EE66A2DEC03F0E552E552F9
:1010E000F3CFDEFFF4CFDDFFDFCF59F5010EDBCF0D
:1010F0005AF593A010D00C0EE66EE66A2DEC03F0C4
:10110000E552E552F3CFDEFFF4CFDDFFDFCF5BF535
:10111000010EDBCF5CF5020EE15C02E2E16AE55212
:10112000E16EE552E7CFD9FF1200D9CFE6FFE1CF5C
:10113000D9FF080EE12605010151DE6EDD6A02517C
:10114000E66ED950020FE96EDACFEAFFE552E750BA
:10115000EE6EED6A0351E66ED950040FE96EDACFF8
:10116000EAFFE552E750EE6EED6A040EDBCF0DF0BC
:10117000050EDBCF0EF00DC00EF00D6A020EDB5037
:101180000D100B6E030EDB500E100C6E060E0BC016
:10119000DBFF070E0CC0DBFF000EDFCF06F0010EF9
:1011A000DBCF07F0220E061801E107500DE0210EFB
:1011B000061801E1075001E00ED0060EDBCFACF5BA
:1011C000070EDBCFADF507D0060EDBCFAEF5070E71
:1011D000DBCFAFF500D0080EE15C02E2E16AE55238
:0A11E000E16EE552E7CFD9FF1200DF
:0611EA00D9CFE6FFE1CFC2
:1011F000D9FFE6526A6A686A9F0E6B6EFB0E696ED3
:101200006D8C6D9C6E6A000EE66EE66AE66A710E83
:10121000E66E0F0EE66E67EC12F00B6E050EE15EE9
:101220000B50DF6ADF500B6E0C6A080E0B5C000E71
:101230000C5810E2DF50040DF3CFE9FFF4CFEAFFC2
:10124000000EE926040EEA22EE6AEE6AEE6AEE6A03
:10125000DF2AE8D7160E706E68A60CD0030EE66E75
:10126000680EE66E0F0EE66E23EC11F0E552E552C5
:10127000E552F2D70501936B986B996B9A6B6D9859
:10128000080E8B6F040E8C6F816B806BE552E552FC
:10129000E7CFD9FF1200D9CFE6FFE1CFD9FFE65261
:1012A000A19A0501805111E105D06D6A696A0501B5
:1012B000806BC9D06D6A696A6DB602D06D86FCD745
:1012C0000501010E806F160E6F6E800508E16DBA84
:1012D00006D0686A696A69806988020E806F685002
:1012E000040B0FE06950040B0CE0020EE66E680E72
:1012F000E66E0F0EE66E23EC11F0E552E552E55274
:10130000E6D86DB2A0D06850010B1BE06950010B0C
:1013100018E06BDF0501040E806F0401200E026FE0
:10132000040E036F080E016F006B8C0E0013E66A4B
:10133000680EE66E0F0EE66E23EC11F0E552E552F4
:10134000E5526850100B0FE06950100B0CE0A3D869
:10135000040EE66E680EE66E0F0EE66E23EC11F0DC
:10136000E552E552E5526850400B1DE06950400BD4
:101370001AE0010EE66EE66A000EE66EE66A020EFE
:10138000E66EE66A83EC01F00B6E060EE15E0B5032
:10139000060EE66E680EE66E0F0EE66E23EC11F09A
:1013A000E552E552E5526850200B04E06950200BED
:1013B00001E04ED86850020B12E06950020B0FE0BA
:1013C000010EE66EE66A000EE66EE66AE668E6681C
:1013D00083EC01F00B6E060EE15E0B506A6A040EA0
:1013E0000501805D01E22FD069A62DD0DF6A040ED1
:1013F000DF5C29E268A624D06CCFA0F5030EE66E70
:10140000680EE66E0F0EE66E23EC11F0E552E55223
:10141000E552780E0501A01502E178D810D0000E33
:10142000E66EE66AA00EE66E050EE66E010EE66E4C
:10143000E66A83EC01F00B6E060EE15E0B5001D004
:1014400002D0DF2AD4D7E552E552E7CFD9FF120008
:1014500070A015D083C5E9FF84C5EAFFEF5080086E
:101460000DE18BC5E9FF8CC5EAFFEF50840806E16A
:1014700083C5E9FF84C5EAFF8C0EEF6E7090050E00
:10148000E66E680EE66E0F0EE66E23EC11F0E55286
:10149000E552E55212006984040EE66E680EE66EAF
:1014A0000F0EE66E23EC11F0E552E552E5526D8227
:1014B000000EE66EE66AE66EE66A040EE66EE66A20
:1014C00083EC01F00B6E060EE15E0B5012006D9284
:1014D000000EE66EE66AE66EE66A030EE66EE66A01
:1014E00083EC01F00B6E060EE15E0B50699468A46C
:1014F0000CD0020EE66E680EE66E0F0EE66E23EC62
:1015000011F0E552E552E552F2D71200FD0E050149
:10151000A01520E17E0EA015E8407F0B040DF3CF4F
:1015200083F5F4CF84F5000E8327040E842383C54E
:1015300085F584C586F5857583C5E9FF84C5EAFF11
:10154000EF503C0BE842E8420D0802E109D801D017
:101550002AD805D0FD0EA015040801E12DD81200EF
:101560008BC5E9FF8CC5EAFFEF50800B05E08BC50A
:10157000E9FF8CC5EAFFEF6A05018F6B906B946BF6
:10158000956B936B04D9000EE66EE66AE66EE66A2A
:10159000170EE66EE66A83EC01F00B6E060EE15E56
:1015A0000B5073EF0DF0020E0501905D03E1D0ECDE
:1015B0000EF001D04ED81200D9CFE6FFE1CFD9FF0F
:1015C000E6528BC5E9FF8CC5EAFFEF50400B01E006
:1015D000010EDF6E05018B75080E805D0AE122C4E5
:1015E0006EFF6E50000803E2100E806F02D0040EF2
:1015F000806F900528E18BC5E9FF8CC5EAFF020EDC
:10160000E926000EEA22280EEE6E040EED6E3DDB9A
:10161000020E05018F5D07E18BC5E9FF8CC5EAFF6E
:10162000840EEF6E0FD0DF5007E18BC5E9FF8CC54C
:10163000EAFFC80EEF6E06D08BC5E9FF8CC5EAFF46
:10164000880EEF6E01D005D8E552E552E7CFD9FFFD
:101650001200D9CFE6FFE1CFD9FF030EE126020E3B
:101660000501905D4AE16D50100B47E083C5E9FF2D
:1016700084C5EAFFEE52EF500B6E0C6A080E0B1891
:1016800001E10C503AE183C5E9FF84C5EAFFEF5060
:101690003C0BE842E8420D0830E185C5E9FF86C50C
:1016A000EAFFEF50800B29E185C5E9FF86C5EAFF17
:1016B000020EE926000EEA22200EEE6E040EED6EFA
:1016C000DF6ADF500B6E0C6A080E0B5C000E0C58C4
:1016D00013E2DF50EA6A280FE96E040EEA22EF50A7
:1016E000E66EDF50EA6A200FE96E040EEA22E55248
:1016F000E750EF6EDF2AE5D731D0906B85C5E9FF63
:1017000086C5EAFFEE52080EEF6E85C5E9FF86C575
:10171000EAFF020EE926000EEA22200EEE6E040E0B
:10172000ED6E85C5E9FF86C5EAFF8C0EEF6E8BC5B1
:10173000E9FF8CC5EAFFEF6A040E8B190B6E8CC5AE
:101740000CF0010E0BC0DBFF020E0CC0DBFF010E24
:10175000DBCFE9FF020EDBCFEAFFEF6A050198AFAE
:101760000CD09B519C1107E005D09CC5FAFF0501E8
:101770009B51F96EFADF0501989F030EE15C02E2CE
:10178000E16AE552E16EE552E7CFD9FF12000401AC
:101790002051600BE842E842E842E842E842000992
:1017A00001E058D021510C0A54E00B0A43E00C0A26
:1017B00035E0010A26E00B0A22E0020A20E0030AD3
:1017C0001CE0080A10E0010A0CE00F0A08E0030A16
:1017D00001E03FD00501938F080E806F3BD0C8D841
:1017E00039D06FDB37D00501810E916F050E926FF6
:1017F0009381010E946F938F2DD014D92BD02BD8B9
:1018000029D024510501916F926B820E9127050E0C
:1018100092239381010E946F938F1CD00501938FB7
:1018200004012451EA6A820FE96E050EEA2222C4FD
:10183000EFFF10D0000EE66EE66AE66EE66A160E60
:10184000E66EE66A83EC01F00B6E060EE15E0B506D
:1018500001D000D01200D9CFE6FFE1CFD9FF040EAE
:10186000E1260401220510E120511F0B00090CE1C3
:101870000501938F030E0401215D04E10501010EB2
:101880009F6F02D005019F6B0401225167E1205137
:101890001F0B020863E124510F0B00095FE00501F3
:1018A000938F040124BF10D024510F0BE96EEA6A14
:1018B000D890E936EA36870EE926050EEA22EECF01
:1018C000DEFFEDCFDDFF0FD024510F0BE96EEA6A8A
:1018D000D890E936EA368B0EE926050EEA22EECFDD
:1018E000DEFFEDCFDDFF030E215D07E1DECFE9FF77
:1018F000DDCFEAFF840EEF6E31D024510F0B0C6A5E
:10190000700F0B6E0F0E0C22020E0BC0DBFF030ECE
:101910000CC0DBFF020EDBCFE9FF030EDBCFEAFFDB
:10192000EE90ED5224AF0DD0DECFE9FFDDCFEAFF20
:10193000EF6ADF74DECFE9FFDDCFEAFF400EEF6E26
:101940000DD0DECFE9FFDDCFEAFF880EEF6EDF744A
:10195000DECFE9FFDDCFEAFFC80EEF6E040EE15CDB
:1019600002E2E16AE552E16EE552E7CFD9FF1200EB
:10197000800E0401205D55E10501C00E936F040146
:101980002351030A2EE0010A0EE0030A03E00501D9
:10199000936B47D005016A0E916F230E926F120E62
:1019A000946F956B3ED02251F66EF76AD890F6365A
:1019B000F736280EF626240EF7220900F5CF91F50A
:1019C0000A00F5CF92F5020E0501F76A9125F66E31
:1019D0009251F7220900F5CF94F50A00F5CF95F55D
:1019E00020D0030E225D1AE22251F66EF76AD890DB
:1019F000F636F7362A0EF626240EF7220900F5CF22
:101A000091F50A00F5CF92F591C5F6FF92C5F7FF63
:101A10000800F5500501946F956B02D00501936B9A
:101A200000D01200D9CFE6FFE1CFD9FF020EE126A8
:101A30000401286B296B20511F0B020A12E0030AD4
:101A40000DE0010A01E03BD00501938F04012881DC
:101A500005019F0502E10401288331D00501938F20
:101A60002ED00501938F040124BF10D024510F0BF9
:101A7000E96EEA6AD890E936EA36870EE926050E5D
:101A8000EA22EECFDEFFEDCFDDFF0FD024510F0BAA
:101A9000E96EEA6AD890E936EA368B0EE926050E39
:101AA000EA22EECFDEFFEDCFDDFFDECFE9FFDDCFB7
:101AB000EAFFEF50040B02E0010E286F00D0050191
:101AC00093AF07D0280E916F040E926F9381020E90
:101AD000946F020EE15C02E2E16AE552E16EE552CA
:101AE000E7CFD9FF12006D98050193BF4AD098AF98
:101AF00028D0020E906F8BC5E9FF8CC5EAFFEE522D
:101B0000EF6A8BC5E9FF8CC5EAFFC80EEF6E85C58D
:101B1000E9FF86C5EAFFEE52080EEF6E85C5E9FFC4
:101B200086C5EAFF020EE926000EEA22280EEE6EB6
:101B3000040EED6E85C5E9FF86C5EAFFC80EEF6E9F
:101B40001FD085C5E9FF86C5EAFFEE52080EEF6E8D
:101B500085C5E9FF86C5EAFF020EE926000EEA22E6
:101B6000200EEE6E040EED6E85C5E9FF86C5EAFF18
:101B70008C0EEF6E8BC5E9FF8CC5EAFF840EEF6E0D
:101B800083D098BF81D0040120AF56D00501945175
:101B90000401265D050195510401275904E226C47C
:101BA00094F527C495F571D80501010E906F85C590
:101BB000E9FF86C5EAFFEE52080EEF6E85C5E9FF24
:101BC00086C5EAFF020EE926000EEA22200EEE6E1E
:101BD000040EED6E85C5E9FF86C5EAFF800EEF6E47
:101BE00083C5E9FF84C5EAFFEE52080EEF6E83C598
:101BF000E9FF84C5EAFF020EE926000EEA22200E64
:101C0000EE6E040EED6E83C5E9FF84C5EAFF800E1B
:101C1000EF6E8BC5E9FF8CC5EAFF020EE926000EC8
:101C2000EA22280EEE6E040EED6E8BC5E9FF8CC520
:101C3000EAFFC80EEF6E28D00501020E906F8BC52B
:101C4000E9FF8CC5EAFFEE52EF6A8BC5E9FF8CC550
:101C5000EAFFC80EEF6E85C5E9FF86C5EAFFEE52C2
:101C6000080EEF6E85C5E9FF86C5EAFF020EE9267C
:101C7000000EEA22280EEE6E040EED6E85C5E9FF19
:101C800086C5EAFFC80EEF6E1200D9CFE6FFE1CF9E
:101C9000D9FF020EE1260501080E945D000E95594C
:101CA0000EE294C5DEFF95C5DDFF8F5103E1010E05
:101CB0008F6F04D08F0502E1020E8F6F03D0080EE4
:101CC000DE6EDD6A8BC5E9FF8CC5EAFFEF928BC53E
:101CD000E9FF8CC5EAFFEF908BC5E9FF8CC5EAFFF1
:101CE000010EDB50EF128BC5E9FF8CC5EAFFEE5207
:101CF000DFCFEFFF000EDB50945F010EDB50955BF2
:101D0000280E9D6F040E9E6F93B121D0D9CFE9FFAD
:101D1000DACFEAFFEE50ED1019E091C5F6FF92C55B
:101D2000F7FF912B000E92230800F550E66E9DC53B
:101D3000E9FF9EC5EAFF9D2B000E9E23E552E7506A
:101D4000EF6EDF06010E01E2DB06E0D71FD0D9CF30
:101D5000E9FFDACFEAFFEE50ED1018E091C5E9FF98
:101D600092C5EAFF912B000E9223EF50E66E9DC5BF
:101D7000E9FF9EC5EAFF9D2B000E9E23E552E7502A
:101D8000EF6EDF06010E01E2DB06E1D7020EE15C39
:101D900002E2E16AE552E16EE552E7CFD9FF1200B7
:101DA000D9CFE6FFE1CFD9FF020EE12683C5E9FFD7
:101DB00084C5EAFFEE52EFCFDFFFDFCF0BF00B5011
:101DC0000501995D000E9A5903E299C5DFFF09D01C
:101DD000DF500B6E0C6A0B50995D996F0C509A593D
:101DE0009A6F010EDB6ADF50F36E010EDBCFF4FF5A
:101DF000F350F45C16E2010EDB50EA6A280FE96E3C
:101E0000040EEA22EF50E66E96C5E9FF97C5EAFF99
:101E1000962B000E9723E552E750EF6E010EDB2A5A
:101E2000E2D7000ED8809955000E9A5528E285C554
:101E3000E9FF86C5EAFFEE52080EEF6E85C5E9FFA1
:101E400086C5EAFF020EE926000EEA22280EEE6E93
:101E5000040EED6E83C5E9FF84C5EAFFEF50400B29
:101E600007E185C5E9FF86C5EAFFC80EEF6E06D01B
:101E700085C5E9FF86C5EAFF880EEF6E18D085C5D7
:101E8000E9FF86C5EAFF020EE926000EEA22200ECF
:101E9000EE6E040EED6E9B519C1107E005D09CC5C3
:101EA000FAFF05019B51F96EFADF0501989F020EBA
:101EB000E15C02E2E16AE552E16EE552E7CFD9FF6B
:101EC00012000501938F000EE66EE66AE66A710E57
:101ED000E66E0F0EE66E67EC12F00B6E050EE15E1D
:101EE0000B50010EE66EE66AE66A820EE66E050E9D
:101EF000E66E67EC12F00B6E050EE15E0B5022C42D
:101F000081F50401225104E10501100E806F11D00A
:101F10000501200E806F000EE66EE66AE66EE66A48
:101F2000150EE66EE66A83EC01F00B6E060EE15EBE
:101F30000B501200D9CFE6FFE1CFD9FF020EE12608
:101F4000000EDE6E040EDD6EFD0EDB50E8240D6E1D
:101F5000FE0EDB50040DF3500D24040DF3500B6EF8
:101F60000C6A020E0F0B05E0D8900C320B32E8061B
:101F7000FBE1D8900B360C36D8900B360C36D9CF07
:101F8000E9FFDACFEAFF0B50EE260C50ED22DECF50
:101F9000E9FFDDCFEAFFEF9EFD0EDB500FE1FE0E05
:101FA000EA6ADB34FE0BEA36E96E870EE926050E97
:101FB000EA22DECFEEFFDDCFEDFF0ED0FE0EEA6AA5
:101FC000DB34FE0BEA36E96E8B0EE926050EEA22BB
:101FD000DECFEEFFDDCFEDFFDECFE9FFDDCFEAFFA5
:101FE000EF9CDECFE9FFDDCFEAFF040EE926000E0D
:101FF000EA22EF8C020EE15C02E2E16AE552E16E58
:10200000E552E7CFD9FF1200D9CFE6FFE1CFD9FFE4
:10201000020EE126FE0EDB500C6A700F0B6E0F0EE7
:102020000C220BC0DEFF0CC0DDFFDECFE9FFDDCFF1
:10203000EAFFFD0EDBCFEFFFDBA407D0E66AFE0E62
:10204000DBCFE6FF77DFE552E552FD0EDBA208D0DD
:10205000010EE66EFE0EDBCFE6FF6CDFE552E552C9
:10206000020EE15C02E2E16AE552E16EE552E7CF81
:10207000D9FF1200D9CFE6FFE1CFD9FF020EE1264A
:10208000FE0EDB5020E185C5E9FF86C5EAFFEE5272
:10209000080EEF6E85C5E9FF86C5EAFF020EE92648
:1020A000000EEA22200EEE6E040EED6E85C5E9FFED
:1020B00086C5EAFF8C0EEF6E8BC5E9FF8CC5EAFF83
:1020C000840EEF6E3DD0FD0EDB50E8240D6EFE0E4B
:1020D000DB50040DF3500D24040DF3CF0BF0F4CFBF
:1020E0000CF0000E0B26040E0C220BC0DEFF0CC001
:1020F000DDFF840E0B6EDECFE9FFDDCFEAFF0B5074
:10210000EF12FD0EDB50E8240D6EFE0EDB50040DC9
:10211000F3500D24010F040DF3CF0BF0F4CF0CF0AE
:10212000000E0B26040E0C220BC0DEFF0CC0DDFFE0
:10213000840E0B6EDECFE9FFDDCFEAFF0B50EF120E
:10214000020EE15C02E2E16AE552E16EE552E7CFA0
:10215000D9FF1200D9CFE6FFE1CFD9FF020EE12669
:10216000FD0EDB500FE0FE0EEA6ADB34FE0BEA36B2
:10217000E96E8B0EE926050EEA22EECFDEFFEDCFEB
:10218000DDFF0ED0FE0EEA6ADB34FE0BEA36E96EA6
:10219000870EE926050EEA22EECFDEFFEDCFDDFF4A
:1021A000DECFE9FFDDCFEAFF020EE926000EEA22CC
:1021B000FB0EDBCFEEFFFC0EDBCFEDFFDECFE9FF4A
:1021C000DDCFEAFFEE52FA0EDBCFEFFF400E0B6ED3
:1021D000DECFE9FFDDCFEAFF0B50EF16880E0B6E66
:1021E000DECFE9FFDDCFEAFF0B50EF12FD0EDB5033
:1021F0000CE0FE0EEA6ADB34FE0BEA36E96E8B0E6B
:10220000E926050EEA22EF740BD0FE0EEA6ADB34F3
:10221000FE0BEA36E96E870EE926050EEA22EF7418
:10222000DECF0BF0DDCF0CF00BC0F3FF0CC0F4FFE2
:10223000020EE15C03E200D0E16AE552E16EE55294
:10224000E7CFD9FF1200D9CFE6FFE1CFD9FF010ECA
:10225000F36EFC0EDB5004E0D890F336E806FCE1A8
:10226000F350E81C0B6EFD0EDBCFE9FFFE0EDBCF5B
:0E227000EAFF0B50EF16E552E7CFD9FF120040
:02227E00040159
:1022800020511F0B010801E06DD0245101E06AD0FC
:10229000060E215D28E12351230A21E0010A11E005
:1022A000030A01E020D0050181050AE105018E0E37
:1022B000916F230E926F090E946F956BC00E936F02
:1022C00012D0050181050AE105010B0E916F240E64
:1022D000926F1D0E946F956BC00E936F04D0050125
:1022E000800E936F00D004012051600BE842E84259
:1022F000E842E842E842010801E034D021510B0AEB
:102300002BE0080A1EE0090A16E0080A09E00B0A99
:1023100005E0080A01E026D026D824D025D822D00E
:102320000501C30E916F050E926F010E946F956BB0
:10233000C10E936F17D00501800E936F23C4C3F5B0
:1023400011D00501C40E916F050E926F010E946FAE
:10235000956B810E936F06D00501800E936F22C49A
:0A236000C4F500D0120012001200B4
:06236A0012011001000049
:102370000008D8043F000200010200010902290000
:10238000010100C03209040000020300000009211D
:1023900000010001221D000705810340000107051F
:1023A00001034000010403090434034D0069006384
:1023B0000072006F00630068006900700020005424
:1023C000006500630068006E006F006C006F0067BE
:1023D000007900200049006E0063002E002E034D9E
:1023E0000065006E006400690065007400610020F3
:1023F00000760065007200730069006F006E0020B7
:102400000031002E0030002E0030000600FF0901D0
:10241000A10119012940150026FF0075089540818A
:1024200002190129409102C07C23A523A923DD23A1
:102430001E0EF66E000EF76E000EF86E0501090016
:10244000F550BE6F0900F550BF6F03E1BE6701D0C4
:102450003DD00900F550B96F0900F550BA6F090079
:10246000F550BB6F09000900F550E96E0900F55001
:10247000EA6E090009000900F550BC6F0900F5502B
:10248000BD6F09000900F6CFC0F5F7CFC1F5F8CF51
:10249000C2F5B9C5F6FFBAC5F7FFBBC5F8FF050120
:1024A000BC5302E1BD5307E00900F550EE6EBC07D6
:1024B000F8E2BD07F9D7C0C5F6FFC1C5F7FFC2C531
:0E24C000F8FF0501BE07000EBF5BBFD712007C
:0224CE00FE0E00
:1024D000E3CFE9FFFF0EE3CFEAFFE9CFF3FFEACF57
:1024E000F4FFFB0EE35003E1FC0EE35009E0FB0EAA
:1024F000E30602E2FC0EE306FD0EE350EE6EF1D7BA
:022500001200C7
:0E250200FF0EE350156EEF0E01D0F30EE76EE4
:10251000E72E88EF12F00C0E146EE76AE72E8EEFAE
:1025200012F0142E8DEF12F0152E86EF12F012001D
:10253000000EF36E00EE00F0080E01D81200EA6003
:1025400002D0EE6AFCD7F350E9601200EE6AFCD7C5
:1025500013EE00F023EE00F0F86A0A9C18EC12F07B
:0C25600003EC00F060EC03F0FBD712006D
:04256C00000000006B
:10257000010000000000000000000000000000005A
:020000040030CA
:0100000024DB
:010001000EF0
:010002003FBE
:010003001EDE
:010005008179
:010006008178
:010008000FE8
:01000900C036
:01000A000FE6
:01000B00E014
:01000C000FE4
:01000D0040B2
:00000001FF
