:020000040000FA
:060000007DEF17F0120075
:020006001200E6
:0600080026EF09F01200D2
:02000E000000F0
:020010000000EE
:0600180077EF09F0120071
:02001E000200DE
:100020000E000000DF05000004000000162F000095
:08003000C305000012000000EE
:08003800D9CFE6FFE1CFD9FFAB
:10004000110EE126DE6ADD6ADECF14F0DDCF15F099
:10005000D890155004E6020E145C000E155856E2B6
:10006000DECFE9FFDDCFEAFF0F0EEA02F3CFEAFFB2
:10007000E902F3CFE9FFF450EA26A50EE926050EC2
:10008000EA22020ED926EECFDEFFEECFDEFFEECF64
:10009000DEFFEECFDEFFEECFDEFFEECFDEFFEECFF8
:1000A000DEFFEECFDEFFEECFDEFFEECFDEFFEECFE8
:1000B000DEFFEECFDEFFEECFDEFFEECFDEFFEECFD8
:1000C000DEFF110ED95E020EDB6A030EDB6A040E40
:1000D000DB6A050EDB6A060EDB6A070EDB6A080EBA
:1000E000DB6A090EDB6A0A0EDB6A0B0EDB6A0C0E9A
:1000F000DB6A0D0EDB6A0E0EDB6A0F0EDB6A100E7A
:10010000DB6ADF2A010E01E3DB2A9ED7110EE15CD8
:1001100002E2E16AE552E16EE552E7CFD9FF120053
:100120000501C32B000EC4231200D9CFE6FFE1CF97
:10013000D9FF020EE126FD0EDBCF14F0FE0EDBCF61
:1001400015F0D89014361536D89014361536010EA1
:100150001410C26E3C0EC06EC08EC282C2B2FED7F8
:10016000C350DF6E010EC4CFDBFFDECF14F0DDCF56
:1001700015F014C0F3FF15C0F4FF020EE15C03E2BA
:1001800000D0E16AE552E16EE552E7CFD9FF1200F7
:10019000D9CFE6FFE1CFD9FF020EE1260501C55117
:1001A000C35D146EC451C655156ED890155004E643
:1001B000640E145C000E155801E226D0C3C5C5F5C7
:1001C000C4C5C6F58050E66E000EE66EE66A86ECA3
:1001D00014F0E552E552E5528350E66E010EE66EEC
:1001E000E66A86EC14F0E552E552E5528150E66E7F
:1001F000020EE66EE66A86EC14F0E552E552E55230
:10020000D2EC04F09BEC14F0020EE15C02E2E16A35
:10021000E552E16EE552E7CFD9FF1200200E05014D
:10022000805D03E36D50020B01E02BD0BFEC14F0B6
:10023000000926E0000EE66EE66AD4EC14F0E55202
:10024000E552050A18E0010A13E0070A0EE0010A68
:1002500009E0030A05E0010A01E010D0DBD90ED065
:1002600011D80CD034EC06F009D0A5EC06F006D07D
:10027000F8EC07F003D073EC08F000D0E8EC14F0D1
:1002800087DF1200D9CFE6FFE1CFD9FF040EE126C8
:10029000010EE66EE66AD4EC14F0E552E552DE6E2D
:1002A000DD6A020EE66EE66AD4EC14F0E552E55221
:1002B000E66ED950020FE96EDACFEAFFE552E75059
:1002C000EE6EED6A000EDFCF08F0010EDBCF09F015
:1002D000280E081801E1095001E18BD1270E0818FA
:1002E00001E1095001E17ED1260E081801E1095013
:1002F00001E171D1250E081801E1095001E164D135
:10030000240E081801E1095001E157D1230E081805
:1003100001E1095001E14AD1220E081801E109501A
:1003200001E13DD1210E081801E1095001E130D170
:100330001E0E081801E1095001E123D11D0E081815
:1003400001E1095001E116D11C0E081801E1095024
:1003500001E109D11B0E081801E1095001E1FCD0AF
:100360001A0E081801E1095001E1EFD0190E081822
:1003700001E1095001E1E2D0180E081801E109502D
:1003800001E1DBD0170E081801E1095001E1D4D0DA
:10039000160E081801E1095001E1C7D0150E081822
:1003A00001E1095001E1BAD0140E081801E1095029
:1003B00001E1ADD0130E081801E1095001E1A0D010
:1003C000110E081801E1095001E193D0100E081830
:1003D00001E1095001E186D00F0E081801E1095032
:1003E00001E179D00E0E081801E109506DE00A0E06
:1003F000081801E1095061E0090E081801E10950EF
:1004000055E0080E081801E1095049E0070E0818E8
:1004100001E109503DE0060E081801E1095031E004
:10042000050E081801E1095025E0040E081801E145
:10043000095019E0030E081801E109500DE0020E01
:10044000081801E1095001E0DBD0020EDB50E8B0F2
:100450008980E8A08990D4D0020EDB50E8B0898270
:10046000E8A08992CDD0020EDB50E8B08984E8A0E4
:100470008994C6D0020EDB50E8B08986E8A0899640
:10048000BFD0020EDB50E8B08988E8A08998B8D0C8
:10049000020EDB50E8B0898AE8A0899AB1D0020E3A
:1004A000DB50E8B08D80E8A08D90AAD0020EDB5022
:1004B000E8B08D82E8A08D92A3D0020EDB50E8B0A8
:1004C0008D84E8A08D949CD0020EDB50E8B0898C1E
:1004D000E8A0899C95D0020EDB50E8B08B80E8A0A4
:1004E0008B908ED0020EDB50E8B08B82E8A08B920E
:1004F00087D0020EDB50E8B08B84E8A08B9480D0CC
:10050000020EDB50E8B08C80E8A08C9079D0020E0F
:10051000DB50E8B08C82E8A08C9272D0020EDB50E7
:10052000E8B08C84E8A08C946BD0020EDB50E8B06D
:100530008C86E8A08C9664D063D062D0020EDB502B
:10054000E8B08B8CE8A08B9C5BD0020EDB50E8B04F
:100550008B8EE8A08B9E54D0020EDB50E8B08C88C6
:10056000E8A08C984DD0020EDB50E8B08C8AE8A051
:100570008C9A46D0020EDB50E8B08C8CE8A08C9CA4
:100580003FD0020EDB50E8B08C8EE8A08C9E38D0B5
:10059000020EDB50E8B08A80E8A08A9031D0020ECB
:1005A000DB50E8B08A82E8A08A922AD0020EDB50A3
:1005B000E8B08A84E8A08A9423D0020EDB50E8B029
:1005C0008A86E8A08A961CD0020EDB50E8B08A88A2
:1005D000E8A08A9815D0020EDB50E8B08A8AE8A01D
:1005E0008A9A0ED0020EDB50E8B08A8CE8A08A9C72
:1005F00007D0020EDB50E8B08A8EE8A08A9E00D0B9
:10060000040EE15C02E2E16AE552E16EE552E7CFF9
:10061000D9FF1200D9CFE6FFE1CFD9FF040EE126C2
:10062000010EE66EE66AD4EC14F0E552E552DE6E99
:10063000DD6A020EE66EE66AD4EC14F0E552E5528D
:10064000E66ED950020FE96EDACFEAFFE552E750C5
:10065000EE6EED6A000EDFCF08F0010EDBCF09F081
:10066000280E081801E1095001E18BD1270E081866
:1006700001E1095001E17ED1260E081801E109507F
:1006800001E171D1250E081801E1095001E164D1A1
:10069000240E081801E1095001E157D1230E081872
:1006A00001E1095001E14AD1220E081801E1095087
:1006B00001E13DD1210E081801E1095001E130D1DD
:1006C0001E0E081801E1095001E123D11D0E081882
:1006D00001E1095001E116D11C0E081801E1095091
:1006E00001E109D11B0E081801E1095001E1FCD01C
:1006F0001A0E081801E1095001E1EFD0190E08188F
:1007000001E1095001E1E2D0180E081801E1095099
:1007100001E1DBD0170E081801E1095001E1D4D046
:10072000160E081801E1095001E1C7D0150E08188E
:1007300001E1095001E1BAD0140E081801E1095095
:1007400001E1ADD0130E081801E1095001E1A0D07C
:10075000110E081801E1095001E193D0100E08189C
:1007600001E1095001E186D00F0E081801E109509E
:1007700001E179D00E0E081801E109506DE00A0E72
:10078000081801E1095061E0090E081801E109505B
:1007900055E0080E081801E1095049E0070E081855
:1007A00001E109503DE0060E081801E1095031E071
:1007B000050E081801E1095025E0040E081801E1B2
:1007C000095019E0030E081801E109500DE0020E6E
:1007D000081801E1095001E0DBD0020EDB50E8B05F
:1007E0009280E8A09290D4D0020EDB50E8B09282C2
:1007F000E8A09292CDD0020EDB50E8B09284E8A03F
:100800009294C6D0020EDB50E8B09286E8A0929691
:10081000BFD0020EDB50E8B09288E8A09298B8D022
:10082000020EDB50E8B0928AE8A0929AB1D0020E94
:10083000DB50E8B09680E8A09690AAD0020EDB507C
:10084000E8B09682E8A09692A3D0020EDB50E8B002
:100850009684E8A096949CD0020EDB50E8B0928C6F
:10086000E8A0929C95D0020EDB50E8B09480E8A0FE
:1008700094908ED0020EDB50E8B09482E8A094925F
:1008800087D0020EDB50E8B09484E8A0949480D026
:10089000020EDB50E8B09580E8A0959079D0020E6A
:1008A000DB50E8B09582E8A0959272D0020EDB5042
:1008B000E8B09584E8A095946BD0020EDB50E8B0C8
:1008C0009586E8A0959664D063D062D0020EDB5086
:1008D000E8B0948CE8A0949C5BD0020EDB50E8B0AA
:1008E000948EE8A0949E54D0020EDB50E8B0958818
:1008F000E8A095984DD0020EDB50E8B0958AE8A0AC
:10090000959A46D0020EDB50E8B0958CE8A0959CF5
:100910003FD0020EDB50E8B0958EE8A0959E38D00F
:10092000020EDB50E8B09380E8A0939031D0020E25
:10093000DB50E8B09382E8A093922AD0020EDB50FD
:10094000E8B09384E8A0939423D0020EDB50E8B083
:100950009386E8A093961CD0020EDB50E8B09388F3
:10096000E8A0939815D0020EDB50E8B0938AE8A077
:10097000939A0ED0020EDB50E8B0938CE8A0939CC3
:1009800007D0020EDB50E8B0938EE8A0939E00D013
:10099000040EE15C02E2E16AE552E16EE552E7CF66
:1009A000D9FF1200D9CFE6FFE1CFD9FF020EE12631
:1009B00092A018D0000EE66EE66A95EC00F0E552C3
:1009C000E552F3CFDEFFF4CFDDFFDECFE6FFDDCF74
:1009D000E6FF030EE66EE66AFCEC14F0E552E55223
:1009E000E552E55292A218D0010EE66EE66A95EC49
:1009F00000F0E552E552F3CFDEFFF4CFDDFFDECFAE
:100A0000E6FFDDCFE6FF050EE66EE66AFCEC14F0CD
:100A1000E552E552E552E55292A418D0020EE66E78
:100A2000E66A95EC00F0E552E552F3CFDEFFF4CF35
:100A3000DDFFDECFE6FFDDCFE6FF070EE66EE66AFE
:100A4000FCEC14F0E552E552E552E55292A618D0BE
:100A5000030EE66EE66A95EC00F0E552E552F3CF40
:100A6000DEFFF4CFDDFFDECFE6FFDDCFE6FF090ED0
:100A7000E66EE66AFCEC14F0E552E552E552E5520A
:100A800092AA18D0040EE66EE66A95EC00F0E552E4
:100A9000E552F3CFDEFFF4CFDDFFDECFE6FFDDCFA3
:100AA000E6FF0B0EE66EE66AFCEC14F0E552E5524A
:100AB000E552E55296A018D0050EE66EE66A95EC72
:100AC00000F0E552E552F3CFDEFFF4CFDDFFDECFDD
:100AD000E6FFDDCFE6FF0D0EE66EE66AFCEC14F0F5
:100AE000E552E552E552E55296A218D0060EE66EA2
:100AF000E66A95EC00F0E552E552F3CFDEFFF4CF65
:100B0000DDFFDECFE6FFDDCFE6FF0F0EE66EE66A25
:100B1000FCEC14F0E552E552E552E55296A418D0EB
:100B2000070EE66EE66A95EC00F0E552E552F3CF6B
:100B3000DEFFF4CFDDFFDECFE6FFDDCFE6FF110EF7
:100B4000E66EE66AFCEC14F0E552E552E552E55239
:100B500093A418D0080EE66EE66A95EC00F0E55214
:100B6000E552F3CFDEFFF4CFDDFFDECFE6FFDDCFD2
:100B7000E6FF130EE66EE66AFCEC14F0E552E55271
:100B8000E552E55293A618D0090EE66EE66A95EC9A
:100B900000F0E552E552F3CFDEFFF4CFDDFFDECF0C
:100BA000E6FFDDCFE6FF150EE66EE66AFCEC14F01C
:100BB000E552E552E552E55293A218D00A0EE66ED0
:100BC000E66A95EC00F0E552E552F3CFDEFFF4CF94
:100BD000DDFFDECFE6FFDDCFE6FF170EE66EE66A4D
:100BE000FCEC14F0E552E552E552E55293A818D01A
:100BF0000B0EE66EE66A95EC00F0E552E552F3CF97
:100C0000DEFFF4CFDDFFDECFE6FFDDCFE6FF190E1E
:100C1000E66EE66AFCEC14F0E552E552E552E55268
:100C200093A018D00C0EE66EE66A95EC00F0E55243
:100C3000E552F3CFDEFFF4CFDDFFDECFE6FFDDCF01
:100C4000E6FF1B0EE66EE66AFCEC14F0E552E55298
:100C5000E552E552020EE15C02E2E16AE552E16E24
:100C6000E552E7CFD9FF1200D9CFE6FFE1CFD9FF98
:100C7000080EE126010EE66EE66AD4EC14F0E552A9
:100C8000E552DE6EDD6A020EE66EE66AD4EC14F022
:100C9000E552E552E66ED950020FE96EDACFEAFF6F
:100CA000E552E750EE6EED6A030EE66EE66AD4ECAE
:100CB00014F0E552E552E66ED950040FE96EDACF32
:100CC000EAFFE552E750EE6EED6A040EDBCF16F058
:100CD000050EDBCF17F016C017F0166A020EDB50B8
:100CE0001610146E030EDB501710156E060E14C08E
:100CF000DBFF070E15C0DBFF000EDFCF08F0010E93
:100D0000DBCF09F0220E081801E109500DE0210E99
:100D1000081801E1095001E00ED0060EDBCFA5F561
:100D2000070EDBCFA6F507D0060EDBCFB4F5070E16
:100D3000DBCFB5F500D0080EE15C02E2E16AE552D6
:100D4000E16EE552E7CFD9FF1200D9CFE6FFE1CF40
:100D5000D9FF040EE126010EE66EE66AD4EC14F02B
:100D6000E552E552DE6EDD6A020EE66EE66AD4EC0E
:100D700014F0E552E552E66ED950020FE96EDACF73
:100D8000EAFFE552E750EE6EED6A000EDFCF08F0A5
:100D9000010EDBCF09F0220E081801E109500AE02C
:100DA000210E081801E1095001E008D0020EDBCF46
:100DB000A9F504D0020EDBCFB8F500D0040EE15C3B
:100DC00002E2E16AE552E16EE552E7CFD9FF120097
:100DD000D9CFE6FFE1CFD9FF0F0EE126FD0EDBCF25
:100DE000E9FFFE0EDBCFEAFF0F0EEA02F3CFEAFFC8
:100DF000E902F3CFE9FFF450EA26A50EE926050E35
:100E0000EA22000ED926EECFDEFFEECFDEFFEECFD8
:100E1000DEFFEECFDEFFEECFDEFFEECFDEFFEECF6A
:100E2000DEFFEECFDEFFEECFDEFFEECFDEFFEECF5A
:100E3000DEFFEECFDEFFEECFDEFFEECFDEFFEECF4A
:100E4000DEFF0F0ED95ED950070FE96EDACFEAFF49
:100E5000EE50ED1001E0C2D0D950FB0FE96EFF0E4D
:100E6000DA20EA6EEE50ED100CE1050EDB6A060E9C
:100E7000DB6A0F0EF36E070EF3CFDBFF080EDB6AA3
:100E800079D0FB0EDBCF14F0FC0EDBCF15F0153460
:100E900004E214500008000E15540AE2050EDBCFE0
:100EA00016F0060EDBCF17F00001800E171417E1C5
:100EB000FB0EDBCF18F0FC0EDBCF19F00001800E2B
:100EC000191414E0050EDBCF1AF0060EDBCF1BF071
:100ED0001B3404E21A500008000E1B5407E20F0EE8
:100EE000F36E070EF3CFDBFF080EDB6AFB0EDBCFE2
:100EF00016F0FC0EDBCF17F0173404E21650000892
:100F0000000E175402E2010E01D0FF0E146E156A96
:100F100014BE1568F90EDBCF08F0FA0EDBCF09F02E
:100F200014C00DF015C00EF0A5EC16F0050E06C0AD
:100F3000DBFF060E07C0DBFFF90EDBCF14F0FA0E65
:100F4000DBCF15F0FF0ED8801456000E1556140E88
:100F50000D6E0E6A14C008F015C009F07FEC16F093
:100F600008C014F009C015F0090E14C0DBFF0A0E0A
:100F700015C0DBFFD950050FE96EDACFEAFFEE505E
:100F8000ED1003E1040EDB6A29D0050EDBCF14F06F
:100F9000060EDBCF15F00001800E151409E0F40EEB
:100FA000DE6E010EDD6EF36E040EF3CFDBFF16D0A6
:100FB000050EDBCF14F0060EDBCF15F0153404E27E
:100FC00014500008000E155409E2C40EDE6E090E1E
:100FD000DD6E010EF36E040EF3CFDBFF0F0EE15C4E
:100FE00002E2E16AE552E16EE552E7CFD9FF120075
:100FF000D9CFE6FFE1CFD9FF060EE126010EE66E5E
:10100000E66AD4EC14F0E552E552DE6EDD6A020EBB
:10101000E66EE66AD4EC14F0E552E552E66ED9507D
:10102000020FE96EDACFEAFFE552E750EE6EED6AA5
:10103000030EE66EE66AD4EC14F0E552E552E66E75
:10104000D950040FE96EDACFEAFFE552E750EE6EB1
:10105000ED6A020EDB06030E01E2DB06000EDFCFB7
:1010600008F0010EDBCF09F0220E081801E109504B
:101070001BE0210E081801E1095001E02AD0040EFE
:10108000DBCFE6FF050EDBCFE6FF020EDBCFE6FF90
:10109000030EDBCFE6FF000EE66EE66A99DE146E05
:1010A000060EE15E145015D0040EDBCFE6FF050EF0
:1010B000DBCFE6FF020EDBCFE6FF030EDBCFE6FF62
:1010C000010EE66EE66A84DE146E060EE15E1450D2
:1010D00000D0060EE15C02E2E16AE552E16EE55203
:1010E000E7CFD9FF1200D9CFE6FFE1CFD9FF080E35
:1010F000E126010EE66EE66AD4EC14F0E552E55204
:10110000DE6EDD6A020EE66EE66AD4EC14F0E5529D
:10111000E552E66ED950020FE96EDACFEAFFE552EA
:10112000E750EE6EED6A030EE66EE66AD4EC14F05C
:10113000E552E552E66ED950040FE96EDACFEAFFC8
:10114000E552E750EE6EED6A040EDBCF16F0050EA9
:10115000DBCF17F016C017F0166A020EDB50161020
:10116000146E030EDB501710156E060E14C0DBFF55
:10117000070E15C0DBFF000EDFCF08F0010EDBCF3E
:1011800009F0250E081801E109502EE0280E081874
:1011900001E1095001E050D0060EDBCF14F0070E3C
:1011A000DBCF15F0050E145C000E155804E20501A6
:1011B000D26B8A9E12D0D950060FE96EDACFEAFFC1
:1011C000B30ED880EE540B0EED5404E20501D26B41
:1011D0008A8E03D00501010ED26F060EDBCFCAF551
:1011E000070EDBCFCBF528D0060EDBCF14F0070EB1
:1011F000DBCF15F0050E145C000E155804E2050156
:10120000D36B8A9812D0D950060FE96EDACFEAFF75
:10121000B30ED880EE540B0EED5404E20501D36BEF
:101220008A8803D00501010ED36F060EDBCFCCF503
:10123000070EDBCFCDF500D0080EE15C02E2E16ADB
:10124000E552E16EE552E7CFD9FF1200DACFE4FFB5
:10125000E2CFDAFFE9CFE4FFEACFE4FFF6CFE4FF25
:10126000F7CFE4FFF5CFE4FFF3CFE4FFF4CFE4FFE3
:10127000FACFE4FF00EE00F0140EE80403E3EECF33
:10128000E4FFFBD700EE14F00F0EE80403E3EECF0B
:10129000E4FFFBD7E652F2A402D09EDAF2949EA0BD
:1012A00002D038D89E90E55200EE22F00F0EE804EE
:1012B00003E3E5CFEDFFFBD700EE13F0140EE804D7
:1012C00003E3E5CFEDFFFBD7E5CFFAFFE5CFF4FF72
:1012D000E5CFF3FFE5CFF5FFE5CFF7FFE5CFF6FF6D
:1012E000E5CFEAFFE5CFE9FFE5CFDAFF1100D8CF80
:1012F000E4FFE0CFE4FFE46EDACFE4FFE2CFDAFF11
:10130000E652E552E5CFDAFFE550E5CFE0FFE5CF65
:10131000D8FF1000D9CFE6FFE1CFD9FF020EE126BA
:101320000501D451020A01E1A1D0030A3BE0010A00
:1013300001E0D2D0D25101E08A8ED35101E08A88F7
:10134000CAC5CEF5CBC5CFF5CCC5D0F5CDC5D1F549
:10135000176A186A010E196ECB51CD19E8AE02D08A
:10136000CD3504D0CC51CA5DCD51CB5905E2CAC5AB
:101370001AF0CBC51BF004D0CCC51AF0CDC51BF0BC
:101380001C6A1BBE1C681A50175C146E1B50185840
:10139000156E1C501958166E14C0DEFF15C0DDFF07
:1013A000D42B9AD0CF51D119E8AE02D0D13504D088
:1013B000D051CE5DD151CF592CE2D25101E08A9E5D
:1013C0001A6A1B6A010E1C6ED0C51DF0D1C51EF035
:1013D0001F6A1EBE1F681D501A5C176E1E501B58D8
:1013E000186E1F501C58196ECEC520F0CFC521F0C5
:1013F000226A21BE226817502024146E1850212022
:10140000156E19502220166E14C0DEFF15C0DDFFC8
:101410002BD0D35101E08A981A6A1B6A010E1C6E08
:10142000CEC51DF0CFC51EF01F6A1EBE1F681D5021
:101430001A5C176E1E501B58186E1F501C58196EE0
:10144000D0C520F0D1C521F0226A21BE22681750F4
:101450002024146E18502120156E19502220166E6B
:1014600014C0DEFF15C0DDFFD42B36D0CF51D1190B
:10147000E8AE02D0D13504D0D051CE5DD151CF5994
:1014800015E3D25101E08A9ECEC514F0CFC515F008
:10149000166A15BE1668480E1426F40E1522000EA4
:1014A000162214C0DEFF15C0DDFF14D0D35101E0B9
:1014B0008A98D0C514F0D1C515F0166A15BE166805
:1014C000480E1426F40E1522000E162214C0DEFF5C
:1014D00015C0DDFFD46B00D0DECF14F0DDCF15F0EA
:1014E00015C014F0156A1450CF6EDECF14F0DDCFA6
:1014F00015F01450CE6E020EE15C02E2E16AE55294
:10150000E16EE552E7CFD9FF1200D9CFE6FFE1CF78
:10151000D9FF100EE126FD0EDBCFE9FFFE0EDBCF7B
:10152000EAFF0F0EEA02F3CFEAFFE902F3CFE9FF89
:10153000F450EA26A50EE926050EEA22000ED92669
:10154000EECFDEFFEECFDEFFEECFDEFFEECFDEFF33
:10155000EECFDEFFEECFDEFFEECFDEFFEECFDEFF23
:10156000EECFDEFFEECFDEFFEECFDEFFEECFDEFF13
:10157000EECFDEFFEECFDEFFEECFDEFF0F0ED95E49
:10158000DB6A040EDB0401E0C6D0D950070FE96E18
:10159000DACFEAFFEE50ED1001E0BDD0D950090FCF
:1015A000E96EDACFEAFFEE50ED101CE0D9500D0FD6
:1015B000E96EDACFEAFFEE50ED1001E0ACD00B0E91
:1015C000DBCF14F00C0EDBCF15F005011550C91957
:1015D000E8AE02D0C93504D0C851145CC9511558C1
:1015E00001E399D0010EE76E0B0EDBCF14F00C0E69
:1015F000DBCF15F0E7501426000E15220B0E14C099
:10160000DBFF0C0E15C0DBFF0D0EDB6A0E0EDB6A76
:10161000FD0EDBCF08F0FE0EDBCF09F0010E08183F
:1016200001E1095019E0085001E1095005E0B40E4C
:10163000F36EE20EF46EC6D0010E146E8A50010BEA
:10164000145CE8B08A80E8A08A908A50010BE76EAB
:101650000F0EE7CFDBFF14D0010E146E8A50020B81
:1016600001E0010E145CE8B08A82E8A08A928A50F8
:10167000020B01E0010EE76E0F0EE7CFDBFF00D09B
:10168000DB502BE0D9CFE9FFDACFEAFF020EEECF35
:10169000DBFF030EEDCFDBFF176A186A010E196E30
:1016A000DECF1AF0DDCF1BF0030E1B02F3CF1BF0D1
:1016B0001A02F3CF1AF0F4501B261C6A1A50175C5A
:1016C000146E1B501858156E1C501958166E14C005
:1016D000F3FF15C0F4FF76D075D00501C729070BBD
:1016E000C76F020EDBCF14F0030EDBCF15F015022F
:1016F000F3CF15F01402F3CF14F0F4501526166A48
:10170000B40E1426E20E1522000E162214C0F3FFAA
:1017100015C0F4FF57D0070EDBCF14F0080EDBCF57
:1017200015F0153404E214500008000E15540FE2B1
:10173000070EDBCF14F0080EDBCF15F01406000EF9
:10174000155A070E14C0DBFF080E15C0DBFF0D0E87
:10175000DBCF14F00E0EDBCF15F0090EDBCF16F049
:101760000A0EDBCF17F015501718E8AE02D0173469
:1017700004D01650145C1750155817E2010EE76E8E
:101780000D0EDBCF14F00E0EDBCF15F0E750142654
:10179000000E15220D0E14C0DBFF0E0E15C0DBFF70
:1017A0000B0EDB6A0C0EDB6A04D00D0EDB6A0E0E2C
:1017B000DB6A0501C729070BC76FB40EF36EE20E93
:1017C000F46E00D0100EE15C02E2E16AE552E16ED7
:1017D000E552E7CFD9FF1200D9CFE6FFE1CFD9FF1D
:1017E000020EE1260501C751020A25E0010A23E0A5
:1017F000070A21E0010A1FE0030A1DE0010A1BE0BD
:10180000060A0EE0010A01E01ED0000EE66EE66A4E
:101810007CDEE552E552F3CFDEFFF4CFDDFF13D0DF
:10182000010EE66EE66A71DEE552E552F3CFDEFFA9
:10183000F4CFDDFF08D0B40EDE6EE20EDD6EC729F8
:10184000070BC76F00D0DECF14F0DDCF15F015C049
:1018500014F0156A1450D76EDECF14F0DDCF15F0FA
:101860001450D66E020EE15C02E2E16AE552E16ECE
:08187000E552E7CFD9FF120099
:08187800D9CFE6FFE1CFD9FF53
:10188000E6526A6A686A9F0E6B6EFB0E696E6D8C1B
:101890006D9C6E6A000EE66EE66AE66A710EE66E92
:1018A0000F0EE66E3DEC17F0146E050EE15E14505F
:1018B000DF6ADF50146E156A080E145C000E1558AE
:1018C00010E2DF50040DF3CFE9FFF4CFEAFF000E82
:1018D000E926040EEA22EE6AEE6AEE6AEE6ADF2A72
:1018E000E8D7160E706E68A60CD0030EE66E680E72
:1018F000E66E0F0EE66E6AEC14F0E552E552E55224
:10190000F2D70501936B986B996B9A6B6D98080EE3
:101910008B6F040E8C6F816B806BE552E552E7CFC5
:10192000D9FF1200D9CFE6FFE1CFD9FFE652A19A45
:101930000501805111E105D06D6A696A0501806B6E
:10194000C9D06D6A696A6DB602D06D86FCD7050193
:10195000010E806F160E6F6E800508E16DBA06D01D
:10196000686A696A69806988020E806F6850040B32
:101970000FE06950040B0CE0020EE66E680EE66E96
:101980000F0EE66E6AEC14F0E552E552E552E6D829
:101990006DB2A0D06850010B1BE06950010B18E03C
:1019A0006BDF0501040E806F0401200E026F040E30
:1019B000036F080E016F006B8C0E0013E66A680E51
:1019C000E66E0F0EE66E6AEC14F0E552E552E55253
:1019D0006850100B0FE06950100B0CE0A3D8040EF8
:1019E000E66E680EE66E0F0EE66E6AEC14F0E552D7
:1019F000E552E5526850400B1DE06950400B1AE07B
:101A0000010EE66EE66A000EE66EE66A020EE66E0D
:101A1000E66A5BEC15F0146E060EE15E1450060EDD
:101A2000E66E680EE66E0F0EE66E6AEC14F0E55296
:101A3000E552E5526850200B04E06950200B01E0AC
:101A40004ED86850020B12E06950020B0FE0010EF5
:101A5000E66EE66A000EE66EE66AE668E6685BEC4D
:101A600015F0146E060EE15E14506A6A040E05014C
:101A7000805D01E22FD069A62DD0DF6A040EDF5C05
:101A800029E268A624D06CCFA0F5030EE66E680E9E
:101A9000E66E0F0EE66E6AEC14F0E552E552E55282
:101AA000780E0501A01502E178D810D0000EE66E80
:101AB000E66AA00EE66E050EE66E010EE66EE66ABA
:101AC0005BEC15F0146E060EE15E145001D002D0EE
:101AD000DF2AD4D7E552E552E7CFD9FF120070A034
:101AE00015D083C5E9FF84C5EAFFEF5080080DE1FA
:101AF0008BC5E9FF8CC5EAFFEF50840806E183C57A
:101B0000E9FF84C5EAFF8C0EEF6E7090050EE66E5D
:101B1000680EE66E0F0EE66E6AEC14F0E552E552C2
:101B2000E55212006984040EE66E680EE66E0F0E32
:101B3000E66E6AEC14F0E552E552E5526D82000E55
:101B4000E66EE66AE66EE66A040EE66EE66A5BEC50
:101B500015F0146E060EE15E145012006D92000E28
:101B6000E66EE66AE66EE66A030EE66EE66A5BEC31
:101B700015F0146E060EE15E1450699468A40CD042
:101B8000020EE66E680EE66E0F0EE66E6AEC14F05C
:101B9000E552E552E552F2D71200FD0E0501A015FF
:101BA00020E17E0EA015E8407F0B040DF3CF83F5F6
:101BB000F4CF84F5000E8327040E842383C585F5B6
:101BC00084C586F5857583C5E9FF84C5EAFFEF50B6
:101BD0003C0BE842E8420D0802E109D801D02AD8BE
:101BE00005D0FD0EA015040801E12DD812008BC50B
:101BF000E9FF8CC5EAFFEF50800B05E08BC5E9FFDC
:101C00008CC5EAFFEF6A05018F6B906B946B956B47
:101C1000936B04D9000EE66EE66AE66EE66A170E6E
:101C2000E66EE66A5BEC15F0146E060EE15E14508B
:101C3000BAEF10F0020E0501905D03E117EC12F00F
:101C400001D04ED81200D9CFE6FFE1CFD9FFE6523E
:101C50008BC5E9FF8CC5EAFFEF50400B01E0010E98
:101C6000DF6E05018B75080E805D0AE122C46EFFF0
:101C70006E50000803E2100E806F02D0040E806FD9
:101C8000900528E18BC5E9FF8CC5EAFF020EE92625
:101C9000000EEA22280EEE6E040EED6E3DDB020E03
:101CA00005018F5D07E18BC5E9FF8CC5EAFF840E56
:101CB000EF6E0FD0DF5007E18BC5E9FF8CC5EAFF5F
:101CC000C80EEF6E06D08BC5E9FF8CC5EAFF880E03
:101CD000EF6E01D005D8E552E552E7CFD9FF1200EB
:101CE000D9CFE6FFE1CFD9FF030EE126020E0501B1
:101CF000905D4AE16D50100B47E083C5E9FF84C554
:101D0000EAFFEE52EF50146E156A080E141801E146
:101D100015503AE183C5E9FF84C5EAFFEF503C0B5B
:101D2000E842E8420D0830E185C5E9FF86C5EAFFD3
:101D3000EF50800B29E185C5E9FF86C5EAFF020E59
:101D4000E926000EEA22200EEE6E040EED6EDF6A2A
:101D5000DF50146E156A080E145C000E155813E25D
:101D6000DF50EA6A280FE96E040EEA22EF50E66EB1
:101D7000DF50EA6A200FE96E040EEA22E552E750CE
:101D8000EF6EDF2AE5D731D0906B85C5E9FF86C5B8
:101D9000EAFFEE52080EEF6E85C5E9FF86C5EAFF41
:101DA000020EE926000EEA22200EEE6E040EED6E03
:101DB00085C5E9FF86C5EAFF8C0EEF6E8BC5E9FF8E
:101DC0008CC5EAFFEF6A040E8B19146E8CC515F0F2
:101DD000010E14C0DBFF020E15C0DBFF010EDBCFCE
:101DE000E9FF020EDBCFEAFFEF6A050198AF0CD0E6
:101DF0009B519C1107E005D09CC5FAFF05019B5142
:101E0000F96EFADF0501989F030EE15C02E2E16AD8
:101E1000E552E16EE552E7CFD9FF120004012051EF
:101E2000600BE842E842E842E842E842000901E08B
:101E300058D021510C0A54E00B0A43E00C0A35E05B
:101E4000010A26E00B0A22E0020A20E0030A1CE055
:101E5000080A10E0010A0CE00F0A08E0030A01E09A
:101E60003FD00501938F080E806F3BD0C8D839D082
:101E70006FDB37D00501810E916F050E926F938154
:101E8000010E946F938F2DD014D92BD02BD829D03D
:101E900024510501916F926B820E9127050E9223BA
:101EA0009381010E946F938F1CD00501938F0401D1
:101EB0002451EA6A820FE96E050EEA2222C4EFFF7E
:101EC00010D0000EE66EE66AE66EE66A160EE66E64
:101ED000E66A5BEC15F0146E060EE15E145001D05C
:101EE00000D01200D9CFE6FFE1CFD9FF040EE126E2
:101EF0000401220510E120511F0B00090CE105012E
:101F0000938F030E0401215D04E10501010E9F6F13
:101F100002D005019F6B0401225167E120511F0B84
:101F2000020863E124510F0B00095FE00501938F64
:101F3000040124BF10D024510F0BE96EEA6AD89037
:101F4000E936EA36870EE926050EEA22EECFDEFFF5
:101F5000EDCFDDFF0FD024510F0BE96EEA6AD89068
:101F6000E936EA368B0EE926050EEA22EECFDEFFD1
:101F7000EDCFDDFF030E215D07E1DECFE9FFDDCF11
:101F8000EAFF840EEF6E31D024510F0B156A700FEB
:101F9000146E0F0E1522020E14C0DBFF030E15C0C7
:101FA000DBFF020EDBCFE9FF030EDBCFEAFFEE9093
:101FB000ED5224AF0DD0DECFE9FFDDCFEAFFEF6AAF
:101FC000DF74DECFE9FFDDCFEAFF400EEF6E0DD00C
:101FD000DECFE9FFDDCFEAFF880EEF6EDF74DECFE4
:101FE000E9FFDDCFEAFFC80EEF6E040EE15C02E20E
:101FF000E16AE552E16EE552E7CFD9FF1200800EAB
:102000000401205D55E10501C00E936F04012351C9
:10201000030A2EE0010A0EE0030A03E00501936BB8
:1020200047D00501380E916F2C0E926F120E946FEF
:10203000956B3ED02251F66EF76AD890F636F73699
:10204000F60EF6262C0EF7220900F5CF91F50A00C0
:10205000F5CF92F5020E0501F76A9125F66E9251C1
:10206000F7220900F5CF94F50A00F5CF95F520D0B9
:10207000030E225D1AE22251F66EF76AD890F63608
:10208000F736F80EF6262C0EF7220900F5CF91F55B
:102090000A00F5CF92F591C5F6FF92C5F7FF08004B
:1020A000F5500501946F956B02D00501936B00D03C
:1020B0001200D9CFE6FFE1CFD9FF020EE1260401DD
:1020C000286B296B20511F0B020A12E0030A0DE056
:1020D000010A01E03BD00501938F0401288105012D
:1020E0009F0502E10401288331D00501938F2ED092
:1020F0000501938F040124BF10D024510F0BE96E0A
:10210000EA6AD890E936EA36870EE926050EEA2211
:10211000EECFDEFFEDCFDDFF0FD024510F0BE96EC8
:10212000EA6AD890E936EA368B0EE926050EEA22ED
:10213000EECFDEFFEDCFDDFFDECFE9FFDDCFEAFF43
:10214000EF50040B02E0010E286F00D0050193AFA1
:1021500007D0280E916F040E926F9381020E946F38
:10216000020EE15C02E2E16AE552E16EE552E7CF80
:10217000D9FF12006D98050193BF4AD098AF28D0BF
:10218000020E906F8BC5E9FF8CC5EAFFEE52EF6A35
:102190008BC5E9FF8CC5EAFFC80EEF6E85C5E9FF68
:1021A00086C5EAFFEE52080EEF6E85C5E9FF86C5CB
:1021B000EAFF020EE926000EEA22280EEE6E040E59
:1021C000ED6E85C5E9FF86C5EAFFC80EEF6E1FD02C
:1021D00085C5E9FF86C5EAFFEE52080EEF6E85C59C
:1021E000E9FF86C5EAFF020EE926000EEA22200E6C
:1021F000EE6E040EED6E85C5E9FF86C5EAFF8C0E16
:10220000EF6E8BC5E9FF8CC5EAFF840EEF6E83D0BD
:1022100098BF81D0040120AF56D00501945104012C
:10222000265D050195510401275904E226C494F561
:1022300027C495F571D80501010E906F85C5E9FF9A
:1022400086C5EAFFEE52080EEF6E85C5E9FF86C52A
:10225000EAFF020EE926000EEA22200EEE6E040EC0
:10226000ED6E85C5E9FF86C5EAFF800EEF6E83C57A
:10227000E9FF84C5EAFFEE52080EEF6E83C5E9FF61
:1022800084C5EAFF020EE926000EEA22200EEE6E59
:10229000040EED6E83C5E9FF84C5EAFF800EEF6E84
:1022A0008BC5E9FF8CC5EAFF020EE926000EEA2283
:1022B000280EEE6E040EED6E8BC5E9FF8CC5EAFFAD
:1022C000C80EEF6E28D00501020E906F8BC5E9FF96
:1022D0008CC5EAFFEE52EF6A8BC5E9FF8CC5EAFFB9
:1022E000C80EEF6E85C5E9FF86C5EAFFEE52080EFF
:1022F000EF6E85C5E9FF86C5EAFF020EE926000EEE
:10230000EA22280EEE6E040EED6E85C5E9FF86C545
:10231000EAFFC80EEF6E1200D9CFE6FFE1CFD9FF7A
:10232000020EE1260501080E945D000E95590EE29D
:1023300094C5DEFF95C5DDFF8F5103E1010E8F6F60
:1023400004D08F0502E1020E8F6F03D0080EDE6EFF
:10235000DD6A8BC5E9FF8CC5EAFFEF928BC5E9FF0B
:102360008CC5EAFFEF908BC5E9FF8CC5EAFF010E33
:10237000DB50EF128BC5E9FF8CC5EAFFEE52DFCFD1
:10238000EFFF000EDB50945F010EDB50955B280ED3
:102390009D6F040E9E6F93B121D0D9CFE9FFDACFA4
:1023A000EAFFEE50ED1019E091C5F6FF92C5F7FF78
:1023B000912B000E92230800F550E66E9DC5E9FFB3
:1023C0009EC5EAFF9D2B000E9E23E552E750EF6E5F
:1023D000DF06010E01E2DB06E0D71FD0D9CFE9FF0F
:1023E000DACFEAFFEE50ED1018E091C5E9FF92C593
:1023F000EAFF912B000E9223EF50E66E9DC5E9FF98
:102400009EC5EAFF9D2B000E9E23E552E750EF6E1E
:10241000DF06010E01E2DB06E1D7020EE15C02E21B
:10242000E16AE552E16EE552E7CFD9FF1200D9CF5C
:10243000E6FFE1CFD9FF020EE12683C5E9FF84C59F
:10244000EAFFEE52EFCFDFFFDFCF14F014500501AB
:10245000995D000E9A5903E299C5DFFF09D0DF505C
:10246000146E156A1450995D996F15509A599A6FA8
:10247000010EDB6ADF50F36E010EDBCFF4FFF35089
:10248000F45C16E2010EDB50EA6A280FE96E040ED6
:10249000EA22EF50E66E96C5E9FF97C5EAFF962B54
:1024A000000E9723E552E750EF6E010EDB2AE2D7CC
:1024B000000ED8809955000E9A5528E285C5E9FF8F
:1024C00086C5EAFFEE52080EEF6E85C5E9FF86C5A8
:1024D000EAFF020EE926000EEA22280EEE6E040E36
:1024E000ED6E83C5E9FF84C5EAFFEF50400B07E1BD
:1024F00085C5E9FF86C5EAFFC80EEF6E06D085C523
:10250000E9FF86C5EAFF880EEF6E18D085C5E9FFA2
:1025100086C5EAFF020EE926000EEA22200EEE6EC4
:10252000040EED6E9B519C1107E005D09CC5FAFF8F
:1025300005019B51F96EFADF0501989F020EE15CDF
:1025400002E2E16AE552E16EE552E7CFD9FF1200FF
:102550000501938F000EE66EE66AE66A710EE66E7E
:102560000F0EE66E3DEC17F0146E050EE15E145092
:10257000010EE66EE66AE66A820EE66E050EE66E0D
:102580003DEC17F0146E050EE15E145022C481F587
:102590000401225104E10501100E806F11D00501E4
:1025A000200E806F000EE66EE66AE66EE66A150E95
:1025B000E66EE66A5BEC15F0146E060EE15E1450F2
:1025C0001200D9CFE6FFE1CFD9FF020EE126000EBF
:1025D000DE6E040EDD6EFD0EDB50E824166EFE0E80
:1025E000DB50040DF3501624040DF350146E156ADD
:1025F000020E0F0B05E0D89015321432E806FBE10D
:10260000D89014361536D89014361536D9CFE9FF40
:10261000DACFEAFF1450EE261550ED22DECFE9FFA7
:10262000DDCFEAFFEF9EFD0EDB500FE1FE0EEA6A02
:10263000DB34FE0BEA36E96E870EE926050EEA2248
:10264000DECFEEFFDDCFEDFF0ED0FE0EEA6ADB340B
:10265000FE0BEA36E96E8B0EE926050EEA22DECF86
:10266000EEFFDDCFEDFFDECFE9FFDDCFEAFFEF9C30
:10267000DECFE9FFDDCFEAFF040EE926000EEA22F5
:10268000EF8C020EE15C02E2E16AE552E16EE55296
:10269000E7CFD9FF1200D9CFE6FFE1CFD9FF020E75
:1026A000E126FE0EDB50156A700F146E0F0E152218
:1026B00014C0DEFF15C0DDFFDECFE9FFDDCFEAFF8E
:1026C000FD0EDBCFEFFFDBA407D0E66AFE0EDBCF0B
:1026D000E6FF77DFE552E552FD0EDBA208D0010EE2
:1026E000E66EFE0EDBCFE6FF6CDFE552E552020E32
:1026F000E15C02E2E16AE552E16EE552E7CFD9FF23
:102700001200D9CFE6FFE1CFD9FF020EE126FE0E7F
:10271000DB5020E185C5E9FF86C5EAFFEE52080ED1
:10272000EF6E85C5E9FF86C5EAFF020EE926000EB9
:10273000EA22200EEE6E040EED6E85C5E9FF86C519
:10274000EAFF8C0EEF6E8BC5E9FF8CC5EAFF840EA5
:10275000EF6E3DD0FD0EDB50E824166EFE0EDB5012
:10276000040DF3501624040DF3CF14F0F4CF15F03C
:10277000000E1426040E152214C0DEFF15C0DDFF66
:10278000840E146EDECFE9FFDDCFEAFF1450EF12A6
:10279000FD0EDB50E824166EFE0EDB50040DF350E8
:1027A0001624010F040DF3CF14F0F4CF15F0000E32
:1027B0001426040E152214C0DEFF15C0DDFF840EA2
:1027C000146EDECFE9FFDDCFEAFF1450EF12020EE8
:1027D000E15C02E2E16AE552E16EE552E7CFD9FF42
:1027E0001200D9CFE6FFE1CFD9FF020EE126FD0EA0
:1027F000DB500FE0FE0EEA6ADB34FE0BEA36E96ED0
:102800008B0EE926050EEA22EECFDEFFEDCFDDFFCF
:102810000ED0FE0EEA6ADB34FE0BEA36E96E870E56
:10282000E926050EEA22EECFDEFFEDCFDDFFDECF9B
:10283000E9FFDDCFEAFF020EE926000EEA22FB0ED9
:10284000DBCFEEFFFC0EDBCFEDFFDECFE9FFDDCF10
:10285000EAFFEE52FA0EDBCFEFFF400E146EDECF32
:10286000E9FFDDCFEAFF1450EF16880E146EDECFBD
:10287000E9FFDDCFEAFF1450EF12FD0EDB500CE054
:10288000FE0EEA6ADB34FE0BEA36E96E8B0EE926B1
:10289000050EEA22EF740BD0FE0EEA6ADB34FE0B63
:1028A000EA36E96E870EE926050EEA22EF74DECFDE
:1028B00014F0DDCF15F014C0F3FF15C0F4FF020EC5
:1028C000E15C03E200D0E16AE552E16EE552E7CF58
:1028D000D9FF1200D9CFE6FFE1CFD9FF010EF36E89
:1028E000FC0EDB5004E0D890F336E806FCE1F35030
:1028F000E81C146EFD0EDBCFE9FFFE0EDBCFEAFF16
:0C2900001450EF16E552E7CFD9FF12008B
:04290C00D9CFE6FF3A
:10291000E1CFD9FFFD0EDBCFE9FFFE0EDBCFEAFFF3
:10292000400EE926050EEA22FC0EDBCFEFFFE55252
:10293000E7CFD9FF12000501E151E21102E1000EDB
:1029400008D0E1C5E9FFE2C5EAFFEF50800B01E0E6
:10295000010E000913E1400EE66E400EE66E050E14
:10296000E66E010EE66EE66EF1EC13F0146E050EE7
:10297000E15E1450F3CFE1F5F4CFE2F5120005016A
:10298000DF51E01102E1000E08D0DFC5E9FFE0C52C
:10299000EAFFEF50800B01E0010E000902E0000E9B
:1029A00001D0010E00D01200D9CFE6FFE1CFD9FF50
:1029B000FD0EDBCFE9FFFE0EDBCFEAFF000EE926BE
:1029C000050EEA22EF5000D0E552E7CFD9FF120002
:1029D000400EE66E000EE66E050EE66EE66A010E2D
:1029E000E66EF1EC13F0146E050EE15E1450F3CFB9
:1029F000DFF5F4CFE0F51200D9CFE6FFE1CFD9FF44
:102A0000FB0EDBCFE6FFFD0EDBCFE6FFFE0EDBCFDE
:102A1000E6FF7CDFE552E552E552FC0EDBCFE6FF38
:102A2000010EE76EFD0EDBCF14F0FE0EDBCF15F0CE
:102A3000E7501426000E152214C0E6FF15C0E6FF6D
:102A400065DFE552E552E552E552E7CFD9FF1200C6
:102A50003CEF0CF01200120012001200A6EF15F06D
:102A600012001E0EE66E010EE66E4BEC13F0E55200
:102A7000E552400EE66E000EE66E050EE66EE66A64
:102A8000010EE66EF1EC13F0146E050EE15E1450CB
:102A9000F3CFDFF5F4CFE0F512006D840501080EE9
:102AA000E66F070EE76FE607000EE75BE651E711FA
:102AB000FAE16D941200D9CFE6FFE1CFD9FFFD0E08
:102AC000DBCF08F0FE0EDBCF09F0010E081801E1A4
:102AD000095033E0E868081802E1E86809182BE0BB
:102AE000030E081801E1095024E0040E081801E162
:102AF00009501DE0020E081801E1095016E0170EFA
:102B0000081801E109500FE0160E081801E10950FC
:102B100008E0150E081801E1095001E010D0A1DF0E
:102B20000FD09EDF0DD09ADF0BD096DF09D092DF59
:102B300007D091DF05D091DF03D0000001D000D095
:0C2B4000010E00D0E552E7CFD9FF1200D3
:042B4C00040120510F
:102B50001F0B010801E06DD0245101E06AD0060E80
:102B6000215D28E12351230A21E0010A11E0030A33
:102B700001E020D0050181050AE105015C0E916F9D
:102B80002C0E926F090E946F956BC00E936F12D03E
:102B9000050181050AE10501D90E916F2C0E926F96
:102BA0001D0E946F956BC00E936F04D00501800EBF
:102BB000936F00D004012051600BE842E842E842E4
:102BC000E842E842010801E034D021510B0A2BE031
:102BD000080A1EE0090A16E0080A09E00B0A05E0E7
:102BE000080A01E026D026D824D025D822D0050115
:102BF000E30E916F050E926F010E946F956BC10EEF
:102C0000936F17D00501800E936F23C4E3F511D0A5
:102C10000501E40E916F050E926F010E946F956B96
:102C2000810E936F06D00501800E936F22C4E4F5E8
:082C300000D012001200120096
:082C3800120110010000000868
:102C4000D8043F000200010200010902290001012D
:102C500000C0320904000002030000000921000145
:102C60000001221D00070581034000010705010343
:102C70004000010403090434034D0069006300723D
:102C8000006F006300680069007000200054006558
:102C900000630068006E006F006C006F00670079D1
:102CA00000200049006E0063002E002E034D0065D9
:102CB000006E006400690065007400610020007609
:102CC0000065007200730069006F006E0020003123
:102CD000002E0030002E0030000600FF0901A10187
:102CE00019012940150026FF007508954081021939
:0E2CF0000129409102C04A2C732C772CAB2C8A
:022CFE00006A6A
:102D00000EAE88EF16F00D6C0E1EE86A0E22001E45
:102D100009AE90EF16F0086C091EE86A0922001E41
:102D200057EC17F009BEA0EF16F000AE000C086CCF
:102D3000091EE86A0922046C051EE86A0522000CD7
:102D400000BE97EF16F00188FF0C09C013F008C011
:102D500012F008500D02F4CF07F0F3CF06F009503F
:102D60000E02F4CF09F0F3CF08F00D02F35007265E
:102D7000F4500822E86A092212500E02F350072686
:102D8000F4500822E86A09220EAECBEF16F012507A
:102D9000085E1350095A13AE000C0D50085E0E5019
:042DA000095A000CC0
:0C2DA4001E0EF66E000EF76E000EF86EAC
:102DB00005010900F550DA6F0900F550DB6F03E1FA
:102DC000DA6701D03DD00900F550D56F0900F55004
:102DD000D66F0900F550D76F09000900F550E96E6C
:102DE0000900F550EA6E090009000900F550D86F96
:102DF0000900F550D96F09000900F6CFDCF5F7CFCF
:102E0000DDF5F8CFDEF5D5C5F6FFD6C5F7FFD7C59A
:102E1000F8FF0501D85302E1D95307E00900F55046
:102E2000EE6ED807F8E2D907F9D7DCC5F6FFDDC5A5
:102E3000F7FFDEC5F8FF0501DA07000EDB5BBFD741
:022E400012007E
:0E2E420028EC15F007D892EC0CF090EC00F0A4
:102E500012D8FAD712001CEC00F0926A936A956AB5
:102E6000010ED56E200ECD6EF28EF28CF28A9D8010
:0A2E7000D58ECD8012000EEF01F0A8
:062E7A00FE0EE3CFE9FFAC
:102E8000FF0EE3CFEAFFE9CFF3FFEACFF4FFFB0E3B
:102E9000E35003E1FC0EE35009E0FB0EE30602E21F
:0E2EA000FC0EE306FD0EE350EE6EF1D71200BD
:022EAE00056AB3
:102EB000046A100EE76ED8900836093604360536D7
:102EC0000D50045C0E50055805E30D50045E0E5085
:0A2ED000055A082AE72EF0D7120079
:062EDA00000EF36E00EE95
:102EE00000F0080E01D81200EA6002D0EE6AFCD7AA
:0A2EF000F350E9601200EE6AFCD70F
:062EFA0013EE00F023EED0
:102F000000F0F86A019CD2EC16F003EC00F021EC22
:062F100017F0FBD71200D0
:0A2F160000000000000200000000AF
:082F20000000000000000000A9
:020000040030CA
:0100000024DB
:010001000EF0
:010002003FBE
:010003001EDE
:010005008179
:010006008178
:010008000FE8
:01000900C036
:01000A000FE6
:01000B00E014
:01000C000FE4
:01000D0040B2
:00000001FF
